:020000040800F2
:10200000A87C002009E5000811E50008DFE10008D0
:10201000E3E10008E7E10008EBE100080000000050
:102020000000000000000000000000001BE50008A8
:102030001DE50008000000001FE5000821E500087C
:1020400023E5000823E5000823E5000823E5000850
:1020500023E5000823E5000823E5000823E5000840
:1020600023E50008B5E1000823E5000823E50008A2
:1020700023E5000823E5000823E5000823E5000820
:1020800023E5000823E5000823E5000823E5000810
:1020900023E5000823E5000823E5000823E5000800
:1020A00023E5000815D8000823E5000823E500080B
:1020B00023E5000823E5000823E5000823E50008E0
:1020C00023E5000823E5000823E5000823E50008D0
:1020D00023E5000823E5000823E5000823E50008C0
:1020E00023E5000823E5000823E5000823E50008B0
:1020F00023E5000823E5000823E5000823E50008A0
:1021000023E500086DD3000823E5000823E5000857
:1021100023E5000823E5000823E5000823E500087F
:1021200023E5000823E5000823E50008000000007F
:1021300023E5000823E5000823E5000823E500085F
:1021400023E5000823E5000800F002F800F06AF833
:102150000AA090E8000C82448344AAF10107DA4502
:1021600001D100F05FF8AFF2090EBAE80F0013F0EA
:10217000010F18BFFB1A43F001031847CC140100EC
:102180000C1501000A444FF0000C10F8013B13F04D
:10219000070408BF10F8014B1D1108BF10F8015BC0
:1021A000641E05D010F8016B641E01F8016BF9D1B3
:1021B00013F0080F1EBF10F8014BAD1C0C1B09D10A
:1021C0006D1E58BF01F801CBFAD505E014F8016B7C
:1021D00001F8016B6D1EF9D59142D6D3704700000E
:1021E000103A24BF78C878C1FAD8520724BF30C843
:1021F00030C144BF04680C60704700000023002415
:1022000000250026103A28BF78C1FBD8520728BF06
:1022100030C148BF0B6070471FB511F08CF81FBD6F
:1022200010B510BD0FF0DCFA1146FFF7F5FF00F016
:102230004FFA0FF0FAFA03B4FFF7F2FF03BC0FF006
:10224000FDFA00002DE9FF4104460D4616461F46E3
:10225000F848844204D1012104200EF047FA16E028
:10226000F548844204D1012108200EF03FFA0EE027
:10227000F248844204D1012110200EF037FA06E022
:10228000EF48844203D1012120200EF02FFAB5F54A
:10229000803F0EDA68460DF068FCADF80050022071
:1022A0008DF802008DF804600297694620460DF013
:1022B0006AFBBDE8FF8110B501231A469902DD488B
:1022C000FFF7C0FF01231A465902DA48FFF7BAFFA9
:1022D00001231A461903D748FFF7B4FF01231A4612
:1022E000D902D448FFF7AEFF01231A462021D24875
:1022F000FFF7A8FF002301222021CE48FFF7A2FF0D
:10230000002301224021CB48FFF79CFF002301223C
:102310008021C848FFF796FF002301221146C648D6
:10232000FFF790FF002301220221C348FFF78AFF35
:10233000002301221102BF48FFF784FF10BD10B532
:102340000DF023FD10BD10B545F255500DF014FDF4
:1023500003200DF014FDBB480068C0F3CF100DF052
:1023600011FD0DF012FD0DF015FD10BD08B54FF477
:10237000A0600DF093FF0121C8020EF0B7F91920FB
:102380008DF8000000208DF8010001208DF802007A
:102390008DF8030068460CF0DCF80020AA4908809C
:1023A000AA480EF04FFE40F21B20A849888000206A
:1023B0000880C8804880A6480EF098FA0122A248FA
:1023C0000188A3480EF01CFF01221146A0480EF020
:1023D0008BFE01219E480EF06DFE08BD10B504462F
:1023E000082C28D0102C19D0182C28D1012108072E
:1023F0000EF014F89748006840F480709549086022
:10240000282101200EF074F800BF41200DF04FFE8E
:102410000028FAD018200EF02AF814E001200DF060
:102420007EFE00BF21200DF042FE0028FAD01020D1
:102430000EF01DF807E008200EF019F803E0002068
:102440000EF015F800BF00BF012180200DF0BAFF8B
:1024500010BD00B585B04FF4E0600CF075F8312088
:102460008DF8000000208DF8010001208DF8020099
:102470008DF8030068460CF06CF8012104200EF082
:1024800035F901A80DF071FB0220ADF804000390AE
:102490000620049001A967480DF075FA0120ADF8F7
:1024A00004008DF808000620049001A961480DF091
:1024B0006AFA1020FFF792FF0DF07EFC66480DF0DF
:1024C00002FD4FF41650644908600820888080019E
:1024D0000881002048810220C88008460DF081FC58
:1024E00001214FF4A4600DF019FD01214FF481701A
:1024F0000DF014FD594908780DF057FD05B000BDE9
:102500001FB5012104200EF0F1F8012108030EF09F
:10251000E0F8072100200CF0B5FB4FF4E04100206B
:102520000DF0EFFE68460DF020FB1420ADF8000022
:102530000320029069463F480DF025FA48480CF008
:1025400071F848480CF0ABF8002046490870487014
:102550004FF46020486000208860012008734048E4
:102560000CF06EF801213E480CF0A1F800BF2021CC
:102570003B480CF061FB0028F9D039480CF0D3F847
:1025800000BF37480CF0DDF80028FAD11FBD00B5B8
:1025900087B0012105200EF0A9F803A80DF0E5FA97
:1025A0000820ADF80C0000208DF81000059003A95C
:1025B00020480DF0E8F9032100200DF07BFB0820F6
:1025C000019000208DF8080008208DF809000120F6
:1025D0008DF80A0001A80CF09AFB09208DF8000084
:1025E00005208DF801000F208DF8020001208DF8E4
:1025F000030068460BF0ADFF07B000BD10B54FF407
:10260000C8701949088001201849087001F036FB8C
:1026100000201749087001201649087001F058FC85
:1026200000201549087010BD10B514481449086001
:10263000002429E000080140000C01400010014086
:10264000001401400460002000600020DC00002035
:10265000002C014000700040280100202F0B0020BA
:1026600000080240EC0000202660002028600020C6
:102670003C6000203D6000205460002000200008E5
:1026800008ED00E0601C84B24EF660208442F9DB65
:10269000002401E0601C84B24EF660208442F9DB25
:1026A000002401E0601C84B24EF660208442F9DB15
:1026B000FFF701FEFFF75AFEFFF7CBFEFFF720FF03
:1026C000FFF765FFFFF73FFEFFF798FF10BD000023
:1026D000FFF7AAFF1EE0FFF732FE05F069FC0BF0E2
:1026E00058FD05F065FC09F0EDFE05F061FC01F018
:1026F00094F905F05DFC05F05BFC00F05FF800F07C
:102700002EF800BF04480088B0F5F97FFADD0020FC
:1027100001490880DFE70000FC60002070B5044636
:102720000523012221461D480CF044F801211B48D5
:102730000CF014F800BF202118480CF0C1F9002853
:10274000F9D0202115480CF0E2F9102113480CF0C3
:10275000DEF912480CF09CF80546284670BD10B50D
:102760000A210F480AF07AFF0520FFF7D7FF0C492E
:10277000088008460AF080FF0A4908800A210A48B2
:102780000AF06CFF0320FFF7C9FF074908800846DD
:102790000AF072FF0549088010BD000000080240E1
:1027A000B403002000000020C80300200200002025
:1027B000304908700121304A117070472E48007866
:1027C000E0B100202C4908702A48007800EB400056
:1027D0002A49085C2A4908702648007800EB400026
:1027E000264908444078274908702248007800EBC1
:1027F0004000224908448078234908702048007826
:10280000002808DD0120214908701D480078401E7D
:102810001B4908702CE000201C4908701A480078F9
:10282000002820DD17480078002805DD15480078CD
:10283000401E144908701BE013480078401E1249DE
:1028400008700C48007800EB40000C49085C0C490B
:1028500008700848007800EB4000084908444078B8
:102860000849087004E0002005490870054908700F
:102870007047000004000020080000203A340108DE
:1028800005000020060000200700002009000020AD
:1028900010B52DED088B8E48007801287ED10020E0
:1028A0008B4908708B4890ED000AB5EEC00AF1EE36
:1028B00010FA36DD884890ED000ADFED880A20EE38
:1028C000200A8448D0ED000A80EE201A844880ED6A
:1028D000001A90ED000ADFED810A80EE201A11EE59
:1028E000104A204610F0B6FC41EC1B0B9FED7D1BFF
:1028F000B0EE4B0AF0EE6B0A0EF0C2FFB0EE40AA4B
:10290000F0EE60AA53EC1A2B9FED780B51EC100BF4
:102910000FF0ECFF41EC190B0FF0FAFE754908605F
:1029200000BF744890ED000ADFED730AB4EEE00AD0
:10293000F1EE10FA0DDD7148D0ED000AB3EE041A85
:1029400080EE810AD0ED000A30EE200A694880ED61
:10295000000A6B480088012808DC664890ED000AF0
:10296000DFED680A20EE200A80ED000A664890ED4F
:10297000000A664880ED000A654890ED000A654847
:1029800080ED000A5B4890ED000A5C4880ED000A8B
:1029900061490978012953D1604900E050E0098874
:1029A00096294DDD5E490988002949DD5D49097890
:1029B00000290BDC5C490978012907D05B490978BB
:1029C000012903D05A490978012907D159490878C2
:1029D00000EBD0714910A0EB410159B15149097880
:1029E00071BB5149097859BB5049097841BB5049DD
:1029F000097829BB3F4890ED000A3748D0ED000A1E
:102A000020EE208AB1EE000A68EE000A9FED4A1A15
:102A100080EE810AD0ED000AB2EE081AC0EE811AEB
:102A200030EE210A454880ED000A454890ED000A45
:102A30004248D0ED000A30EE200A414880ED000AFD
:102A400035480078042803D03E480078012834D166
:102A50009FED3D0A2D4880ED000A9FED3B0A274877
:102A600080ED000A9FED380A384880ED000A9FED9E
:102A7000360A80ED010A9FED340A80ED020A9FEDCF
:102A8000320A80ED030A9FED300A80ED040A9FEDC3
:102A90002E0A80ED050A0020194908809FED2A0AB8
:102AA0002B4880ED000A9FED280A2A4880ED000A95
:102AB0009FED250A164880ED000A0E4890ED000AA9
:102AC000BCEEC00A10EE100A80B2BDEC088B10BD3F
:102AD000A8610020C4610020946100200000FA4336
:102AE0008060002000000000000008406666666606
:102AF0006666064058600020000048445C60002084
:102B0000986100209A99993FA0610020A46100205B
:102B10006460002068600020146000201C610020B8
:102B20000C610020510000205200002053000020C2
:102B3000540000205700002000408345C861002059
:102B4000CC610020D061002000000000E461002082
:102B50006C6000206060002030B5044600209FEDCE
:102B6000F93AF0EE431A9FEDF73AF0EE432A9FED63
:102B7000F53AB0EE432A9FEDF33AB0EE430A9FEDEB
:102B8000F13AF0EE430A9FEDEF3AB0EE431A002916
:102B900068DD00BF2CE004EBC005D5ED003A04EB86
:102BA000C00595ED014AB0EE423A03EE843AB0EE2C
:102BB000432A04EBC00595ED003A33EE003AB0EE3F
:102BC000430A04EBC00595ED013A33EE203AF0EEEE
:102BD000430A04EBC005D5ED003A04EBC00595EDC2
:102BE000004AB0EE413A03EE843AB0EE431A401C7C
:102BF0008842D0DB03EE101AB8EEC33A23EE013A56
:102C000060EE003AB4EEE33AF1EE10FA14DD03EEB2
:102C1000101AB8EEC33A63EE023A40EE603A03EEA1
:102C2000101AB8EEC33A23EE013A00EE403A83EEB2
:102C3000834AF0EE441A03E09FEDC23AF0EE431AE5
:102C400003EE101AB8EEC33AC0EE833A21EE804A82
:102C500003EE101AB8EEC33AC4EE034A33EEE43A78
:102C6000F0EE432AC2ED001AC3ED002A30BD2DE973
:102C7000F0412DED068B9FEDB30AB0EE408A0026A1
:102C8000B1480078012842D10020AF4908700625DC
:102C90002C462DE0AD4800EB840090ED000A30EEAC
:102CA000080AB0EE408AAA4800EB840090ED000AC2
:102CB000B5EEC00AF1EE10FA13DDA54800EB840072
:102CC00090ED000AF7EE000A80EE801A601BA14921
:102CD00001EBC00080ED011A601B01EBC00080ED2C
:102CE000008A782C00DD08E0701C86B2601CC4B23B
:102CF00099480068401BA042CCD800BF974B984A27
:102D000031469448FFF728FF0120964908709448FF
:102D100090ED000A9448D0ED000A20EE200AB0EEB3
:102D2000408A924880ED008A90ED000AB5EEC00A14
:102D3000F1EE10FA08D990ED000ADFED8D0AB4EE3D
:102D4000E00AF1EE10FA04DD9FED8A0A874880ED73
:102D5000000A864890ED000ADFED870A80EE201A0F
:102D600011EE107A384610F075FA41EC1A0B9FED0F
:102D7000831BB0EE4A0AF0EE6A0A0EF081FDB0EE57
:102D8000409AF0EE609A51EC190B0FF0C1FC7D49AE
:102D90000860764890ED000ADFED7B0A20EE200AFD
:102DA0007A4880ED000A90ED000ABCEEC00A10EEF1
:102DB000100A77490880754890ED000ABCEEC00AF9
:102DC00010EE100A73490880734890ED000AF2EE85
:102DD000040AB4EEE00AF1EE10FA05D29FED6F0A94
:102DE0006F4880ED000A24E06B4890ED000ADFEDAB
:102DF0006D0AB4EEE00AF1EE10FA05D29FED6A0A10
:102E0000674880ED000A14E0634890ED000ADFEDAA
:102E1000670AB4EEE00AF1EE10FA05D29FED640AFB
:102E20005F4880ED000A04E09FED620A5C4880ED97
:102E3000000A5B48D0ED000A5548008800EE100AF1
:102E4000B8EE400A20EE800ADFED5B0A80EE201A21
:102E5000534880ED001ABDEC068BBDE8F08110B53B
:102E60002DED068B55480078012869D1544800782B
:102E7000012865D10020514908705248008810B9D6
:102E8000002051490880FFF703FD4E4908804E4855
:102E900000880988884203DA4A4800884A4908803D
:102EA0004A4800880FF091FE41EC1A0B9FED480B49
:102EB00053EC102B0FF01AFD41EC190B0FF028FC0E
:102EC0000446204610F0C6F941EC1A0B9FED421B58
:102ED000B0EE4A0AF0EE6A0A0EF0D2FCB0EE409A6A
:102EE000F0EE609A51EC190B0FF012FC08EE100A8C
:102EF000B5EEC08AF1EE10FA04DD9FED390AC0EE9E
:102F0000088A01E0DFED0F8AF5EEC08AF1EE10FAD3
:102F10000EDD0A2133480AF0A1FBBCEEE80A10EEF0
:102F2000100A3049088008460AF0A6FB2E4908809E
:102F30002D48008800285BDD2B4800882B4908803D
:102F400061E0000000000000AA610020F0490020BC
:102F5000503A0020FC610020AC6100209460002009
:102F6000906000209E6000208C600020886000201F
:102F700082A8FB390742B23833333340696FF0859A
:102F8000C954D53FB06100200024744998600020E6
:102F9000866000209C60002078610020CDCC4C3DF4
:102FA0008C61002000007042CDCCCC3D0000F0428E
:102FB000CDCC4C3E9A99993E0000AA421161002066
:102FC00014600020086000200E6000202E600020A9
:102FD0000000000000407F400000000000000840AA
:102FE0009A993940BC650020A6600020106000203E
:102FF000FE480088002803DD0120FD49088002E02A
:103000000020FB490880BDEC068B10BDF948007814
:10301000012865D1F8480078012861D10020F549E0
:103020000870F648008801285ADDF5480088401CE1
:10303000F3490880F348008810B90020F24908805D
:10304000F2480078EF490880F1480088002810DD38
:1030500008460088EE49098888420ADDE948008868
:10306000EB490988401A1E2803DDE9480088E54934
:103070000880E4480088002803DDE2480088E4492D
:103080000880E0480088632802DD6320DD4908806D
:10309000DD480088DB490988884203DAD94800887E
:1030A000D9490880DB480068D64909880844D949CD
:1030B0000860D3480088002808DD08460068D04929
:1030C0000988B0FBF1F0D449088002E00020D24921
:1030D0000880D1480088632802DD6320CE4908803B
:1030E000C5480078012802D00020C94908807047EF
:1030F00010B5CA48007800280BDCC94800780128C0
:1031000007D0C8480078012803D0C74800780128B4
:103110004DD1C649087800EBD0714910A0EB4101B0
:10312000012905D1C249097811B90720FFF740FBF1
:10313000BE49087800EBD0714910A0EB410191B96C
:10314000BB49097801290ED10020BA490880BA4943
:103150000860BA490880BA480068BA490860BA48A5
:103160000088BA490880B648006810B90020B549FF
:103170000860B548008810B90020B4490880B048FC
:103180000068B0490968401AAB490860AE48008839
:10319000AE490988401AA9490880A449087800EB7B
:1031A000D0714910A0EB4101A14A11700AE0002042
:1031B000A0490880A0490860A0490880A14908608A
:1031C000A24908808C480078012808D1A0480078DE
:1031D00028B9A0480078401C9E49087006E086483F
:1031E0000078012802D000209A49087082490978A5
:1031F00001297BD1964909780029FAD19649098895
:10320000962903DD7D490988002924DC9349097842
:10321000012907D19249098800291CDC91490988B4
:10322000002918DC7D49097800290BDC7C490978E4
:10323000012907D07B490978012903D07A49097807
:103240000129D6D17949087800EBD0714910A0EB5B
:10325000410101294AD183480088401C81490880E6
:103260006E48007800280BDC6D480078012807D0F4
:103270006C480078012803D06B480078012854D1AD
:1032800066490978082923D06449097809291FD09B
:10329000624909780A291BD0604909780B2917D09F
:1032A0005E4909780C2913D05C4909780E290FD0A2
:1032B0005A4909780D290BD058490978112907D0A6
:1032C00057490978012903D05649097801290ED1B7
:1032D0005649087800EBD0714910A0EB410131B993
:1032E00061480088401C604908801EE039E05E4863
:1032F0000088002819DD5C480088401E5A49088073
:103300005A480088401C594908804849087800EB11
:10331000D0714910A0EB4101012906D15248008823
:10332000022802DC0720FFF743FA4E4800883C28B9
:1033300012DB00204B49088049480088401C48495E
:1033400008800846008841F27071884204DB002042
:10335000434908804349088045480088401C444947
:10336000088010BD70B52DED088B424800780A2109
:1033700090FBF1F0C5B23F48007890FBF1F201FB01
:103380001200052801DB681CC5B205B901250A2D0C
:1033900000DD0A2518480078012826D12E4800882B
:1033A000962822DD154800880028FADD1B49097897
:1033B00000290BDC1A490978012907D01949097835
:1033C000012903D018490978012963D117490878E0
:1033D00000EBD0714910A0EB410101295AD12648D8
:1033E000008808B925484BE051E094E108600020CE
:1033F0001060002012610020146000200C61002089
:10340000AE600020B0600020B2600020906100201B
:10341000B6600020B8600020B46000205100002099
:1034200052000020530000205400002057000020CC
:10343000D4600020BE600020C4600020C060002076
:103440001C600020C860002018600020C2600020BE
:10345000E0610020BC6000201C6100203E60002074
:10346000166000201A600020640000206600002022
:1034700012600020846000200A6000201F000020ED
:103480000078012803D1F8480068F8490860BDECCD
:10349000088B70BDF448006860B90020F4490880CA
:1034A000F4490880F4490880F4490880EF4908602D
:1034B000F3490880F34890ED000ABCEEC00A10EE14
:1034C000100AF1490880F14890ED000ABCEEC00AEC
:1034D000E54880ED000A0068ED49884202D30846BD
:1034E000E1490860EB480088C0EB0010EA49098810
:1034F00001EB80004FF4967190FBF1F201FB12009A
:1035000050B9D9480068D9490860DF480088DC49CB
:1035100008800020E1490880D3480088D349098801
:10352000401ADF490880D8480088D5490988401AE0
:10353000DC490880DC480078012879D10020DA498C
:103540000870DA480088002814DDD84800880FF099
:103550003CFB41EC1A0B53EC1A2B9FEDD50B51ECB5
:10356000100B0FF0C3F941EC190B0FF0D1F808EE76
:10357000100A01E09FEDD08A18EE100A0FF06AFEE3
:1035800041EC1A0B9FEDCD1BB0EE4A0AF0EE6A0A31
:103590000EF076F9B0EE409AF0EE609A51EC190B0D
:1035A0000FF0B6F808EE900A9FEDC60A28EE800AE2
:1035B000BCEEC00A10EE100AC34908800846008815
:1035C000002807DD08460088C04991FBF0F0C0499B
:1035D000088002E00020BE490880BE48007801282B
:1035E00007D0BD480078012803D0BC4800780128E6
:1035F00023D1BB49087800EBD0714910A54A128845
:10360000C2EB0212A44B1B8803EB8202B54B1B8852
:1036100003FB11214FF4FA7201FB02F49248006897
:1036200038B191480068B4FBF0F0944908801DE07F
:1036300090E000209149088018E096480088C0EB8F
:1036400000109549098801EB80004FF4FA7100FBE6
:1036500001F48548006830B183480068B4FBF0F09D
:103660008649088002E0002084490880814800885B
:1036700095490988884202DC7E48008818B992483A
:1036800000887C490880894800880FF09EFA41EC48
:103690001B0B9FED950B53EC102B0FF0E5FA41EC53
:1036A0001A0B9FED930B53EC102B0FF063F841ECCA
:1036B000190B0FF02DF808EE100ABCEEC80A10EE38
:1036C000100A8D4908806A4800880988884203DA10
:1036D00089480088664908806B4800884FF461611A
:1036E00000FB01F46C480088002803DC694800886E
:1036F00000280CDD67480088C0EB00106649098887
:1037000001EB8000B4FBF0F05B49088022E0002070
:10371000594908801EE079480078D8B900205449FA
:1037200008805449088054490880544908807449E5
:103730000860744908809FED600A734880ED000AB4
:103740009FED5D0A714880ED000A9FED5B0A4F48CE
:1037500080ED000A00BF9AE66849097801292AD15C
:103760006B49097819B96B490978694A11706A4936
:10377000097819B967490978674A11706449097865
:10378000644A1278914203DA62490978604A1170FA
:10379000614909785F4A1278914203DD5D490978F1
:1037A0005D4A11705A4909785B4A127888184108B5
:1037B0005A4A117002E00021574A1170704730B523
:1037C000574C248844B1574C24882CB1544C24883D
:1037D000544D2D88AC4203D10024534D2C701BE175
:1037E0004F4C24884F4D2D88AC4202DA4C4C248833
:1037F00001E04C4C24882146494C2488494D2D88B1
:10380000AC4202DA474C248801E0454C2488234628
:103810005C1A102C03DA0024434D2C70FCE05C1A77
:10382000424D2D7894FBF5F4A2B2002005E000246F
:103830003F4D25F81040441CE0B21028F7DB002073
:1038400006E002FB00143A4D25F81040441CE0B29B
:10385000364C2478A042F4DB314C2488314D2D883D
:10386000AC4267DA012094E01C600020D8600020A0
:10387000346000202C600020366000202E60002084
:10388000DC600020CC61002018600020B8610020BE
:103890003C860100166000201A60002012600020A3
:1038A0000A6000200C6000201361002008600020E6
:1038B000666666666666064000000000555555550A
:1038C0005555D53F0000FA432A600020A0BB0D00EB
:1038D00030600020540000205200002053000020DF
:1038E0005700002072000020508D976E12830B400D
:1038F0008195438B6CC372403260002014600020BD
:10390000B8600020AE600020CC600020D0600020B5
:103910003960002024600020DE6000203860002034
:1039200050600020526000204E6000204F60002058
:10393000D065002032E0012809D1554C6488554DEE
:103940002D88AC4223DB0124534D2C701FE0534CD7
:103950002478641E4E4D35F814404E4D2D88AC42EF
:1039600004DA4E4C24784C4D2C7010E0441E484D27
:1039700035F81440474D2D88AC4208DA444C34F8F1
:103980001040444D2D88AC4201DB434C2070441C58
:10399000E0B2424C2478A042CDDB3DE0404C24888C
:1039A000404D2D88AC4237DD012031E001280AD19D
:1039B000374C6488374D2D88AC4227DB374C247850
:1039C000354D2C7022E0354C2478641E304D35F88E
:1039D0001440304D2D88AC4203DA01242E4D2C705A
:1039E00014E0441E2A4D35F814402A4D2D88AC426F
:1039F0000CDA274C34F81040264D2D88AC4205DBFC
:103A0000264C2478241A641C234D2C70441CE0B2EC
:103A1000224C2478A042C9DB30BD10B52248007882
:103A200040B922480078022804DC20480078401C75
:103A30001E4908701D480078022813D101231A4638
:103A400041031B48FEF7FEFB01231A4659031848A1
:103A5000FEF7F8FB0120FEF7ABFE14480078401C8F
:103A600012490870FFF703F9FFF7F9F9FFF7CEFAEB
:103A7000FFF7A5FEFFF770FEFFF73AFBFFF772FCBA
:103A800006F067FA07F0DEFF04F056FB10BD0000F9
:103A9000D0650020020000204E6000204F60002012
:103AA0005060002052600020E0610020546000203F
:103AB0000008014006E040F23C6100E0491E002998
:103AC000FCD1401E0028F6D1704705E0022100E03D
:103AD000491E0029FCD1401E0028F7D1704701463D
:103AE000002000E0401E0028FCD1704770B504465D
:103AF0000D46002621E004F0800028B14FF400714B
:103B000088480CF058F804E04FF4007185480CF038
:103B100056F84FF4806183480CF051F86006040EAB
:103B20000A20FFF7DCFF4FF480617E480CF043F879
:103B30000A20FFF7D4FF701CC6B2AE42DBDB70BDBB
:103B400010B504464FF4805176480CF038F84FF425
:103B5000006174480CF033F80120FFF7B6FF08212C
:103B60002046FFF7C3FF0120FFF7AFFF4FF480515E
:103B70006C480CF020F84FF400616A480CF01BF818
:103B800010BD70B505460C464FF4805165480CF0E9
:103B900016F84FF4006163480CF011F80120FFF7AC
:103BA00094FF08212846FFF7A1FF0120FFF78DFFB2
:103BB00008212046FFF79AFF0120FFF786FF4FF408
:103BC000805158480BF0F7FF4FF4006155480BF057
:103BD000F2FF70BD10B54FF4805152480BF0EFFF6B
:103BE0000420FFF772FF08218020FFF77FFF0420E9
:103BF000FFF76BFF08210020FFF778FF002409E0A2
:103C00000420FFF762FF4849085D0821FFF76EFFB7
:103C1000601CC4B23C2CF3DB0420FFF756FF4FF4CA
:103C2000805140480BF0C7FF4FF400613D480BF056
:103C3000C6FF0420FFF749FF08218020FFF756FF49
:103C40000420FFF742FF08210020FFF74FFF002468
:103C500009E00420FFF739FF3449085D0821FFF728
:103C600045FF601CC4B23C2CF3DB0420FFF72DFFA2
:103C70004FF400612B480BF09EFF10BD10B5AA2039
:103C8000FFF75EFF0220FFF715FF0021C020FFF7BE
:103C900078FF0A20FFF719FF0021C220FFF771FF0C
:103CA0000A20FFF712FF1321D020FFF76AFF7321CC
:103CB0008220FFF766FF0A20FFF707FF012184201B
:103CC000FFF75FFF0A20FFF700FF02218820FFF7C0
:103CD00058FF0A20FFF7F9FE03218620FFF751FF66
:103CE0000A20FFF7F2FE10BD10B5AA20FFF728FF4B
:103CF0000220FFF7DFFE02218620FFF742FF0A20A5
:103D0000FFF7E3FE10BD10B5AA20FFF719FF022050
:103D1000FFF7D0FE03218620FFF733FF0A20FFF7CD
:103D2000D4FE10BD00080140F06500202C66002084
:103D300070B505460E46F7480068F7490860F54833
:103D400040684860F348806888600020C860F14897
:103D500000690861EF4840694861EE48281A800808
:103D600041F820600BF0DCF8EA480BF025F900245C
:103D70000AE0E94A52F82410E64A042303FB04202F
:103D80000BF098FA601CC4B2062CF2DB0BF0CEF8F4
:103D900070BD2DE9F04104460D46002609E0DF48DC
:103DA000042101FB06073868DB4941F82600701C36
:103DB00086B2B6F5967FF2DB2888D849611A890861
:103DC000D54A42F821006888D449611A012202EBE1
:103DD0009101D14A42F82100A888D049611A0222F3
:103DE00002EB9101CC4A42F82100E888CB49611AE4
:103DF000032202EB9101C84A42F821002889C749F1
:103E0000611A042202EB9101C34A42F82100688939
:103E1000C249611A052202EB9101BF4A42F8210012
:103E2000BE49611A062202EB9101BB4AE86842F8DA
:103E30002100288AB949611A072202EB9101B64A8A
:103E400042F82100688AB549611A082202EB910103
:103E5000B14A42F82100A88AB049611A092202EB4E
:103E60009101AD4A42F82100AC49611A0A2202EBE5
:103E70009101A94AA86942F82100A88BA749611AB3
:103E80000B2202EB9101A44A42F82100A87FA3492A
:103E9000611A0C2202EB91019F4A42F821000BF0BB
:103EA0003FF89E480BF088F800260AE09A4A52F83C
:103EB00026109A4A042303FB06200BF0FBF9701C22
:103EC00086B2B6F5967FF1DB0BF030F8BDE8F081F5
:103ED00070B59048006892490880084600884FF6FF
:103EE000FF71884202DB00208D49088089484068C4
:103EF0008C490880084600884FF6FF71884202DB33
:103F0000002088490880834800698749087008466E
:103F10000078102803DC08460078062802DA0A2018
:103F2000814908707B48806880490870084600789D
:103F3000632802DC0846007810B904207B49087029
:103F40007448C56825B1002172480C30FFF7F0FEB7
:103F50000020774908706F48406976490870084624
:103F60000078142801DB0020087000242CE13420A4
:103F700060436A49455841F27070854205D300207C
:103F80006D4901EB4411088003E06B4901EB4411DA
:103F90000D8004EB840000EBC400604901EB80005D
:103FA000456841F27070854205D90020624901EBF5
:103FB0004411488003E0604901EB44114D8004EB5B
:103FC000840000EBC400554901EB8000856842F293
:103FD0000F70854205D90020574901EB44118880B4
:103FE00003E0554901EB44118D8004EB840000EBA4
:103FF000C4004A4901EB8000C56842F20F70854257
:1040000005D900204C4901EB4411C88003E04A491E
:1040100001EB4411CD8004EB840000EBC4003F4968
:1040200001EB80000569B5F57A7F05D30020424990
:1040300001EB4411088103E03F4901EB44110D817C
:1040400004EB840000EBC400344901EB80004569B7
:1040500042F20F70854205D90020374901EB441127
:10406000488103E0344901EB44114D8104EB8400A5
:1040700000EBC400294901EB8000856944F61F600C
:10408000854205D900202C4901EB4411C86003E0AA
:10409000294800EB4410C56004EB840000EBC40029
:1040A0001E4901EB8000C56944F61F60854205D9B1
:1040B0000020214901EB4411088203E01E4901EB75
:1040C00044110D8204EB840000EBC400134901EBA2
:1040D0008000056A42F20F70854205D9002016491A
:1040E00001EB4411488203E0134901EB44114D8276
:1040F00004EB840000EBC400084901EB8000456A32
:10410000B5F5803F1AD300200B4901EB441188829A
:1041100018E0000000500108DC0300200040010806
:1041200050600020526000204F6000204E000020B0
:10413000F06000203A60002034010020244901EBA7
:1041400044118D8204EB840000EBC400214901EB93
:104150008000856A42F20F70854205D900201C4913
:1041600001EB4411886103E0194800EB44108561BC
:1041700004EB840000EBC400164901EB8000C56A23
:10418000B5F57A7F05D30020114901EB44118883EE
:1041900003E00F4901EB44118D8304EB840000EB35
:1041A000C4000C4901EB8000056BB5F57A7F05D39F
:1041B0000020074901EB4411887703E0044901EB33
:1041C00044118D77601CC4B2142CFFF6D0AE70BDC4
:1041D00034010020004001080146002003E0FE4AAF
:1041E0001154421CD0B23C28F9DB002003E0FB4A0A
:1041F0001154421CD0B23C28F9DB002004E0F84AFC
:1042000022F81010421CD0B25728F8DB7047F5494D
:10421000B0FBF1F201FB1200F349B0FBF1F1F34AFC
:104220005171F149B0FBF1F201FB120042F2107141
:10423000B0FBF1F1ED4A117142F21071B0FBF1F2F5
:1042400001FB12004FF47A71B0FBF1F1E74AD17033
:104250004FF47A71B0FBF1F201FB12006421B0FB64
:10426000F1F1E24A91706421B0FBF1F201FB12001E
:104270000A21B0FBF1F1DD4A51700A21B0FBF1F2E5
:1042800001FB1201D94A1170704710B503460C4664
:104290001846FFF7BCFF0A2B12DBD1480088D34930
:1042A0004978D34A32F811100843CD4908800846AE
:1042B0004088CE49497832F811100843C8494880EF
:1042C000C7488088C9490978C94A32F8111008439B
:1042D000C34988800846C088C449097832F811105B
:1042E0000843BF49C8802046FFF791FFBC480089BA
:1042F000BE494978BE4A32F811100843B8490881CE
:1043000008464089B949497832F811100843B44940
:10431000488108468089B549097832F81110084368
:10432000AF4988810846C089B049097832F8111030
:104330000843AB49C88110BD00B503461846FFF7D6
:1043400066FFB3F57A7F12DBA5480088A749C978D4
:10435000A74A32F811100843A1490880084640884E
:10436000A249C97832F8111008439D494880642B4E
:1043700012DB9B4880889D4989789D4A32F811104C
:104380000843974988800846C0889849897832F858
:10439000111008439249C8800A2B12DB904800890B
:1043A00092494978924A32F8111008438C490881A1
:1043B000084640898D49497832F8111008438849E8
:1043C00048818748808989490978894A32F81110DB
:1043D0000843834988810846C0898449097832F8AE
:1043E000111008437E49C88100BD00B50346184638
:1043F000FFF70DFFB3F57A7F12DB7948008A7B491E
:10440000C9787B4A32F8111008437549088208467A
:10441000408A7649C97832F81110084370494882B9
:10442000642B12DB6E48808A70498978704A32F8B2
:10443000111008436A4988820846C08A6B49897806
:1044400032F8111008436649C8820A2B12DB64480F
:10445000008B66494978664A32F811100843604972
:1044600008830846408B6149497832F811100843A7
:104470005B4948835A48808B5C4909785C4A32F82A
:1044800011100843564988830846C08B574909785C
:1044900032F8111008435249C88300BD00B50346E5
:1044A0001846FFF7B4FE42F21070834212D34C4814
:1044B000008C4E4909794E4A32F811100843484998
:1044C00008840846408C4949097932F8111008439C
:1044D00043494884B3F57A7F12D34148808C4349DD
:1044E000C978434A32F8111008433D498884084688
:1044F000C08C3E49C97832F8111008433849C88445
:10450000642B12D33648008D38498978384A32F8FE
:1045100011100843324908850846408D334989788F
:1045200032F8111008432E4948850A2B12D32C4823
:10453000808D2E4949782E4A32F8111008432849B7
:1045400088850846C08D2949497832F811100843FA
:104550002349C8852248008E24490978244A32F824
:10456000111008431E4908860846408E1F490978E5
:1045700032F8111008431A49488600BD00B50346B9
:104580001846FFF744FE42F21070834212DB1448D3
:10459000008C16490979164A32F81110084310495F
:1045A00008840846408C1149097932F811100843F3
:1045B0000B494884B3F57A7F21DB0948808C0B498D
:1045C000C9780B4A32F81110084305498884084617
:1045D000C08C0649C9780DE0F06500202C660020EB
:1045E0006866002040420F00A0860100DF600020C6
:1045F0005234010832F811100843FE49C884642B74
:1046000012DBFC48008DFC498978FC4A32F8111015
:104610000843F84908850846408DF749897832F8FB
:1046200011100843F34948850A2B12DBF148808DAD
:10463000F1494978F14A32F811100843ED4988856B
:104640000846C08DEC49497832F811100843E94911
:10465000C885E848008EE8490978E84A32F8111020
:104660000843E44908860846408EE349097832F851
:1046700011100843DF49488600BD10B503460C46BB
:104680001846FFF7C4FD642B09DBDA48808EDA494F
:104690008978DA4A32F811100843D64988860A2BFD
:1046A00012DBD448C08ED4494978D44A32F811106C
:1046B0000843D049C8860846008FCF49497832F868
:1046C00011100843CB490887CA48408FCA49097866
:1046D000CA4A32F811100843C64948870846808FF5
:1046E000C549097832F811100843C2498887204625
:1046F000FFF78DFDBF48C08FBF494978BF4A32F8E8
:1047000011100843BB49C8870846B0F84000BA49B1
:10471000497832F811100843B649A1F8400008461C
:10472000B0F84200B449097832F811100843B14991
:10473000A1F842000846B0F84400AF49097832F8C1
:1047400011100843AB49A1F8440010BD00B5034661
:104750001846FFF75CFDB3F57A7F0BDBA548B0F890
:104760004600A549C978A54A32F811100843A14965
:10477000A1F84600642B0BDB9E48B0F848009E4928
:1047800089789E4A32F8111008439A49A1F84800E6
:104790000A2B0BDB9748B0F84A0097494978974AAB
:1047A00032F8111008439349A1F84A009148B0F833
:1047B0004C0091490978914A32F8111008438D490B
:1047C000A1F84C0000BD00B503461846FFF71FFDD9
:1047D000B3F57A7F0BDB8748B0F846008649C97885
:1047E000864A32F8111008438249A1F84600642B2A
:1047F0000BDB8048B0F848007F4989787F4A32F85F
:10480000111008437B49A1F848000A2B0BDB7948BB
:10481000B0F84A0078494978784A32F811100843CC
:104820007449A1F84A007348B0F84C0072490978FD
:10483000724A32F8111008436E49A1F84C0000BDCD
:1048400000B503461846FFF7E2FCB3F57A7F0BDBB1
:104850006848B0F84E006849C978684A32F81110C3
:1048600008436449A1F84E00642B0BDB6148B0F8A3
:10487000500061498978614A32F8111008435D4956
:10488000A1F850000A2B0BDB5A48B0F852005A49E5
:1048900049785A4A32F8111008435649A1F8520093
:1048A0005448B0F8540054490978544A32F8111069
:1048B00008435049A1F8540000BD0A2871DB0A21C1
:1048C00090FBF1F14D4A32F811104A4AB2F85620E5
:1048D0001143484AA2F856100A2190FBF1F1474AC9
:1048E00032F81110434AB2F858201143414AA2F855
:1048F00058100A2190FBF1F1404A32F811103D4A5C
:10490000B2F85A2011433B4AA2F85A100A2190FBF0
:10491000F1F13A4A32F81110364AB2F85C201143EC
:10492000344AA2F85C100A2190FBF1F201FB12015B
:10493000324A32F811102F4AB2F85E2011432D4A44
:10494000A2F85E100A2190FBF1F201FB12012B4A42
:1049500032F81110274AB2F860201143254AA2F814
:1049600060100A2190FBF1F201FB1201234A32F898
:104970001110204AB2F8622011431E4AA2F86210B8
:104980000A2190FBF1F201FB12011C4A32F81110CE
:10499000184AB2F864201143164AA2F864104CE099
:1049A000FFE71449B1F8561041F03801114AA2F856
:1049B00056101146B1F8581041F03801A2F85810BD
:1049C0001146B1F85A1041F03801A2F85A101146B8
:1049D000B1F85C1041F03801A2F85C101146B1F852
:1049E0005E10064A32F810201143024AA2F85E1007
:1049F000114605E068660020DF600020523401089F
:104A0000B1F86010F94A32F810201143F84AA2F8C0
:104A100060101146B1F86210F44A32F810201143C8
:104A2000F34AA2F862101146B1F86410EF4A32F866
:104A300010201143EE4AA2F864107047002805DDEB
:104A4000EC49097E41F08001EA4A1176012805DD32
:104A5000E849097E41F04001E64A1176022805DD69
:104A6000E449497E41F08001E24A5176032805DDA0
:104A7000E049497E41F04001DE4A517604280ADDD2
:104A8000DC49897E41F08001DA4A91761146897EBF
:104A900041F040019176052805DDD649C97E41F0F7
:104AA0004001D44AD17606280ADDD249C97E41F0B8
:104AB0008001D04AD1761146097F41F0400111773B
:104AC000072805DDCB49097F41F08001C94A1177EC
:104AD00008280ADDC749497F41F04001C54A51779E
:104AE0001146497F41F08001517709280ADDC1490B
:104AF000897F41F08001BF4A91771146C97F41F01B
:104B00008001D1770A2805DDBA49C97F41F040010B
:104B1000B84AD1770B280EDDB64991F8201041F044
:104B20008001B44A82F82010114691F8201041F01B
:104B3000400182F820100C2807DDAE4991F82110C1
:104B400041F08001AB4A82F821100D280EDDA94901
:104B500091F8211041F04001A64A82F82110114637
:104B600091F8221041F0800182F822100E280EDD0B
:104B7000A04991F8221041F040019E4A82F822108B
:104B8000114691F8231041F0400182F823100F28BC
:104B900007DD984991F8231041F08001954A82F889
:104BA000231010280EDD934991F8241041F04001A4
:104BB000904A82F82410114691F8241041F08001A7
:104BC00082F82410112807DD8A4991F8251041F058
:104BD0004001884A82F8251012280EDD854991F897
:104BE000251041F08001834A82F82510114691F882
:104BF000261041F0400182F8261013280EDD7D4971
:104C000091F8261041F080017A4A82F82610114668
:104C100091F8271041F0800182F82710142807DD51
:104C2000744991F8281041F08001724A82F82810E6
:104C300015280EDD6F4991F8281041F040016D4AAA
:104C400082F82810114691F8291041F0800182F86D
:104C50002910162807DD674991F8291041F0400115
:104C6000644A82F8291017280EDD624991F82A104B
:104C700041F080015F4A82F82A10114691F82A100B
:104C800041F0400182F82A1018280EDD594991F8A8
:104C90002B1041F04001574A82F82B10114691F831
:104CA0002B1041F0800182F82B10192807DD5149A3
:104CB00091F82C1041F040014E4A82F82C101A282D
:104CC0000EDD4C4991F82C1041F08001494A82F8E0
:104CD0002C10114691F82D1041F0400182F82D1052
:104CE0001B2807DD434991F82D1041F08001414A0E
:104CF00082F82D101C280EDD3E4991F82E1041F04F
:104D000040013C4A82F82E10114691F82E1041F0D5
:104D1000800182F82E101D280EDD364991F82F10E3
:104D200041F08001334A82F82F10114691F830107B
:104D300041F0800182F830101E2807DD2D4991F8DE
:104D4000301041F040012B4A82F830101F280EDD50
:104D5000284991F8311041F08001264A82F831103B
:104D6000114691F8311041F0400182F8311070473E
:104D7000212818D2DFE800F01711181F262D404710
:104D8000535A6672798992A2B2BBCBD4F1EFEEEDA1
:104D9000ECEBEAE9E8E7E6E5E4001649097E41F0D4
:104DA0008001144A117685E11249097E41F04001E3
:104DB000104A11767EE10F49497E41F080010D4A8B
:104DC000517677E10B49497E41F04001094A51761D
:104DD00070E10849897E41F08001064A91761146CA
:104DE000897E41F04001917664E10000523401086F
:104DF000686600202C660020F849C97E41F0400119
:104E0000F64AD17656E1F549C97E41F08001F34A70
:104E1000D1761146097F41F0400111774AE1EF490F
:104E2000097F41F08001ED4A117743E1EB49497F69
:104E300041F04001E94A51771146497F41F0800134
:104E4000517737E1E549897F41F08001E34A917765
:104E50001146C97F41F08001D1772BE1DF49C97F3D
:104E600041F04001DD4AD17724E1DC4991F820107E
:104E700041F08001D94A82F82010114691F82010A3
:104E800041F0400182F8201014E1D44991F821103A
:104E900041F08001D14A82F821100BE1CF4991F80D
:104EA000231041F04001CD4A82F82310114691F8B9
:104EB000221041F0400182F82210FBE0C74991F82E
:104EC000231041F04001C54A82F82310114691F8A1
:104ED000221041F0400182F82210EBE0BF4991F826
:104EE000231041F08001BD4A82F82310E2E0BB4963
:104EF00091F8241041F04001B84A82F8241011467C
:104F000091F8241041F0800182F82410D2E0B349D6
:104F100091F8251041F04001B04A82F82510C9E00F
:104F2000AE4991F8251041F08001AC4A82F8251075
:104F3000114691F8261041F0400182F82610B9E0A0
:104F4000A8E09EE08DE07CE072E061E057E046E0A2
:104F500035E02BE01AE010E0FFE7A04991F82610B9
:104F600041F080019D4A82F82610114691F82710E1
:104F700041F0800182F827109CE0984991F82810B0
:104F800041F08001954A82F8281093E0934991F806
:104F9000281041F04001914A82F82810114691F8FA
:104FA000291041F0800182F8291083E08B4991F8A3
:104FB000291041F04001894A82F829107AE0874996
:104FC00091F82A1041F08001844A82F82A10114693
:104FD00091F82A1041F0400182F82A106AE07F49D6
:104FE00091F82B1041F040017C4A82F82B101146B9
:104FF00091F82B1041F0800182F82B105AE077498C
:1050000091F82C1041F04001744A82F82C1051E0C4
:10501000724991F82C1041F08001704A82F82C10EE
:10502000114691F82D1041F0400182F82D1041E019
:105030006A4991F82D1041F08001684A82F82D10DC
:1050400038E0664991F82E1041F04001634A82F839
:105050002E10114691F82E1041F0800182F82E108A
:1050600028E05E4991F82F1041F080015B4A82F8F8
:105070002F10114691F8301041F0800182F8301065
:1050800018E0564991F8301041F04001534A82F837
:1050900030100FE0514991F8311041F080014F4A32
:1050A00082F83110114691F8311041F0400182F838
:1050B000311000BF00BF704710B504462046FFF70F
:1050C000A6F8642C24DB002320E063B9444890F860
:1050D000290044498978444A12F81110084340498C
:1050E00081F8290010E03F48807800EB40003F49FC
:1050F00001EB400010F81300C3F12901384A515C5C
:105100000843C3F129015054581CC3B2032BDCDB04
:105110000A2C16DB002312E03248407800EB4000F6
:10512000324901EB400010F81300C3F125012C4A6D
:10513000515C0843C3F125015054581CC3B2032BE2
:10514000EADB002312E02748007800EB4000274903
:1051500001EB400010F81300C3F12101204A515C1B
:105160000843C3F121015054581CC3B2032BEADB9E
:1051700010BD10B50146002067E031F81020232A49
:105180000ADDC0F12802164B9A5C42F00102C0F120
:105190002803134CE25456E031F810201E2A06DD95
:1051A0000E4A125C42F001020C4B1A544BE031F8EB
:1051B0001020192A06DD094A125C42F00202074B50
:1051C0001A5440E031F81020142A11DD034A125C11
:1051D00042F00402014B1A5435E000002C66002016
:1051E000F0650020DF600020B63401087A34010841
:1051F00031F810200F2A06DDFE4A125C42F0080248
:10520000FC4B1A541FE031F810200A2A06DDF94A37
:10521000125C42F01002F74B1A5414E031F81020DF
:10522000052A06DDF34A125C42F02002F14B1A54C3
:1052300009E031F81020002A05DDEE4A125C42F048
:105240004002EC4B1A54421CD0B2182895DB10BD1A
:1052500030B502462823E84C2380002A1CDDE74BAA
:105260001B78012B18D1E64B1B88002B05DDE44B86
:105270001B885B1EE24C23800EE0DF4B1B88E04C5A
:105280002380E04B1B885B1CDE4C238023461B885D
:10529000032B01DD00232380002043E0B1EB400F0E
:1052A0003EDDC0F12E03D84CE35CD84CD54D2D88A3
:1052B00014F815402343C0F12E04D34D2B5500F1B3
:1052C0002F032C46E35CD24CCE4D2D8814F81540AC
:1052D0002343DCB200F12F03CB4DEC54C94B1B88A8
:1052E000022B0EDAC0F12E032C46E35CC94CC54DEF
:1052F0002D8814F815402343C0F12E04C24D2B55C0
:105300000EE000F12F03C04CE35CC24CBD4D2D8874
:1053100014F815402343DCB200F12F03BA4DEC54CE
:10532000431CD8B20528B9DB30BD10B501460020BA
:1053300017E0B1EB400F12DDC0F12E02B24B9A5CC8
:1053400042F0FC02C0F12E03AF4CE25400F12F02F8
:1053500023469A5C42F0FC0300F12F02A354421C46
:10536000D0B20528E5DB10BDAB48B0F8780040F2BC
:1053700036510843A849A1F878000846B0F87A00E9
:1053800040F236510843A449A1F87A000846B0F823
:105390007C0040F2365108439F49A1F87C00084642
:1053A000B0F87E0040F0F700A1F87E000846B0F8A3
:1053B000800040F0F700A1F880000846B0F88200B5
:1053C00040F0F700A1F882000846B0F8840042F2ED
:1053D000361108439049A1F884000846B0F88600C9
:1053E00042F2361108438C49A1F886000846B0F80D
:1053F000880042F2361108438749A1F88800084620
:10540000B0F88A0040F03E00A1F88A000846B0F8E3
:105410008C0040F03E00A1F88C000846B0F88E00E9
:1054200040F03E00A1F88E000846B0F8900040F031
:10543000F700A1F890000846B0F8920040F0F7009D
:10544000A1F892000846B0F8940040F0F700A1F8E7
:1054500094000846B0F8960040F03800A1F8960095
:105460000846B0F8980040F03800A1F898000846C7
:10547000B0F89A0040F03800A1F89A0070476648EA
:10548000B0F8780041F2012108436349A1F878009F
:105490000846B0F87A0041F2012108435E49A1F8BC
:1054A0007A000846B0F87C0041F2012108435A49CD
:1054B000A1F87C000846B0F87E0040F0F700A1F8A3
:1054C0007E000846B0F8800040F0F700A1F88000A8
:1054D0000846B0F8820040F0F700A1F882000846C4
:1054E000B0F8840042F2F30108434B49A1F884006C
:1054F0000846B0F8860042F2F30108434649A1F895
:1055000086000846B0F8880042F2F3010843424999
:10551000A1F888000846B0F88A0040F0BD00A1F864
:105520008A000846B0F88C0040F0BD00A1F88C005D
:105530000846B0F88E0040F0BD00A1F88E00084685
:10554000B0F8900040F0F900A1F890000846B0F8DB
:10555000920040F0F900A1F892000846B0F89400DB
:1055600040F0F900A1F894000846B0F8960041F226
:10557000012108432849A1F896000846B0F8980090
:1055800041F2012108432449A1F898000846B0F8E7
:105590009A0041F2012108431F49A1F89A0070477F
:1055A0001D48B0F87E0041F2012108431A49A1F8D4
:1055B0007E000846B0F8800041F2012108431649F8
:1055C000A1F880000846B0F8820041F201210843AA
:1055D0001149A1F882000846B0F8840041F209217F
:1055E00008430D49A1F884000846B0F8860041F24E
:1055F000092113E02C660020AA000020146000207E
:10560000A8000020A6000020F0650020CA34010890
:10561000DA340108D2340108686600200843FE49E4
:10562000A1F886000846B0F8880041F20921084335
:10563000F949A1F888000846B0F88A0040F23651CE
:105640000843F549A1F88A000846B0F88C0040F2FA
:1056500036510843F049A1F88C000846B0F88E0096
:1056600040F236510843EC49A1F88E000846B0F8E4
:10567000900040F0F900A1F890000846B0F89200C0
:1056800040F0F900A1F892000846B0F8940040F00C
:10569000F900A1F894007047DF48B0F8720041F2B9
:1056A0000F210843DC49A1F872000846B0F87400E5
:1056B00041F20F210843D849A1F874000846B0F818
:1056C000760041F20F210843D349A1F8760008463D
:1056D000B0F8780041F209210843CF49A1F87800D9
:1056E0000846B0F87A0041F209210843CA49A1F8F6
:1056F0007A000846B0F87C0041F209210843C64907
:10570000A1F87C000846B0F87E0040F0ED00A1F85A
:105710007E000846B0F8800040F0ED00A1F880005F
:105720000846B0F8820040F0ED00A1F8820008467B
:10573000B0F8840041F201210843B749A1F8840080
:105740000846B0F8860041F201210843B249A1F8A9
:1057500086000846B0F8880041F201210843AE49AE
:10576000A1F888000846B0F88A0040F0F700A1F8D8
:105770008A000846B0F88C0040F0F700A1F88C00D1
:105780000846B0F88E0040F0F700A1F88E000846F9
:10579000B0F8900042F2361108439F49A1F89000FA
:1057A0000846B0F8920042F2361108439A49A1F82F
:1057B00092000846B0F8940042F236110843964928
:1057C000A1F894000846B0F8960040F03900A1F81E
:1057D00096000846B0F8980040F03900A1F898000B
:1057E0000846B0F89A0040F03900A1F89A0008463F
:1057F000B0F89C0040F0F900A1F89C000846B0F811
:105800009E0040F0F900A1F89E000846B0F8A00004
:1058100040F0F900A1F8A00070477F48B0F872008E
:1058200040F039007C49A1F872000846B0F87400D5
:1058300040F03900A1F874000846B0F8760040F056
:105840003900A1F876000846B0F8780040F0F7007B
:10585000A1F878000846B0F87A0040F0F700A1F807
:105860007A000846B0F87C0040F0F700A1F87C0010
:105870000846B0F87E0040F03800A1F87E000846E7
:10588000B0F8800040F03800A1F880000846B0F879
:10589000820040F03800A1F882000846B0F8840089
:1058A00040F03F00A1F884000846B0F8860040F0C0
:1058B0003F00A1F886000846B0F8880040F03F009D
:1058C000A1F888000846B0F88A0042F2F3010843C4
:1058D0005149A1F88A000846B0F88C0042F2F30161
:1058E00008434D49A1F88C000846B0F88E0042F2FA
:1058F000F30108434849A1F88E000846B0F890002B
:1059000041F2092108434449A1F890000846B0F843
:10591000920041F2092108433F49A1F8920008464C
:10592000B0F8940041F2092108433B49A1F89400E2
:105930000846B0F8960040F0F900A1F89600084635
:10594000B0F8980040F0F900A1F898000846B0F8C7
:105950009A0040F0F900A1F89A000846B0F89C00BF
:1059600040F0ED00A1F89C000846B0F89E0040F021
:10597000ED00A1F89E000846B0F8A00040F0ED0050
:10598000A1F8A00070472448B0F8780040F0ED007E
:105990002149A1F878000846B0F87A0040F0ED00FF
:1059A000A1F87A000846B0F87C0040F0ED00A1F8BC
:1059B0007C000846B0F87E0041F2012108431649F8
:1059C000A1F87E000846B0F8800041F201210843AA
:1059D0001149A1F880000846B0F8820041F2012187
:1059E00008430D49A1F882000846B0F8840042F24D
:1059F000F30108430849A1F884000846B0F886007E
:105A000042F2F30108430449A1F886000846B0F8C1
:105A1000880042F2F30101E0686600200843FE4975
:105A2000A1F888000846B0F88A0040F03F00A1F8CD
:105A30008A000846B0F88C0040F03F00A1F88C00C6
:105A40000846B0F88E0040F03F00A1F88E000846EE
:105A5000B0F8900042F270410843EF49A1F890007D
:105A60000846B0F8920042F270410843EA49A1F8B2
:105A700092000846B0F8940042F270410843E649AB
:105A8000A1F894000846B0F8960040F0F900A1F89B
:105A900096000846B0F8980040F0F900A1F8980088
:105AA0000846B0F89A0040F0F900A1F89A000846BC
:105AB000B0F89C0040F0ED00A1F89C000846B0F85A
:105AC0009E0040F0ED00A1F89E000846B0F8A0004E
:105AD00040F0ED00A1F8A0007047E8BBCE49B1F856
:105AE0007E1041F0ED01CC4AA2F87E101146B1F8CB
:105AF000801041F0ED01A2F880101146B1F882103B
:105B000041F0ED01A2F882101146B1F8841041F085
:105B1000F301A2F884101146B1F8861041F0F301A8
:105B2000A2F886101146B1F8881041F0F301A2F8EE
:105B300088101146B1F88A1040F236521143B64A25
:105B4000A2F88A101146B1F88C1040F23652114377
:105B5000B14AA2F88C1000E009E01146B1F88E10AD
:105B600040F236521143AC4AA2F88E10FFE0AA4927
:105B7000B1F8721041F0ED01A74AA2F87210114677
:105B8000B1F8741041F0ED01A2F874101146B1F8AB
:105B9000761041F0ED01A2F876101146B1F87810B8
:105BA00041F0F301A2F878101146B1F87A1041F0F3
:105BB000F301A2F87A101146B1F87C1041F0F3011C
:105BC000A2F87C101146B1F87E1040F23652114313
:105BD000914AA2F87E101146B1F8801040F2365278
:105BE00011438D4AA2F880101146B1F8821040F29C
:105BF00036521143884AA2F8821001285AD1114620
:105C0000B1F88A1041F0ED01A2F88A101146B1F8FE
:105C10008C1041F0ED01A2F88C101146B1F88E10F5
:105C200041F0ED01A2F88E101146B1F8901041F04C
:105C30003801A2F890101146B1F8921041F03801E5
:105C4000A2F892101146B1F8941041F03801A2F870
:105C500094101146B1F8961041F03F01A2F8961049
:105C60001146B1F8981041F03F01A2F89810114682
:105C7000B1F89A1041F03F01A2F89A101146B1F81C
:105C80009C1042F636221143634AA2F89C1011463A
:105C9000B1F89E1042F6362211435F4AA2F89E10D8
:105CA0001146B1F8A01042F6362211435A4AA2F822
:105CB000A0105CE002285AD15749B1F88A1041F08F
:105CC000F101554AA2F88A101146B1F88C1041F042
:105CD000F101A2F88C101146B1F88E1041F0F101DB
:105CE000A2F88E101146B1F8901041F0F701A2F819
:105CF00090101146B1F8921041F0F701A2F89210FD
:105D00001146B1F8941041F0F701A2F89410114631
:105D1000B1F8961041F0ED01A2F896101146B1F8D5
:105D2000981041F0ED01A2F898101146B1F89A10C0
:105D300041F0ED01A2F89A101146B1F89C1041F221
:105D400001221143344AA2F89C101146B1F89E106A
:105D500041F201221143304AA2F89E101146B1F8D7
:105D6000A01041F2012211432B4AA2F8A010704763
:105D700000B50346002B7CD12748B0F8780041F2EB
:105D8000092108432449A1F878000846B0F87A00B0
:105D900041F2092108432049A1F87A000846B0F8E9
:105DA0007C0041F2092108431B49A1F87C00084608
:105DB000B0F87E0042F2361108431749A1F87E0080
:105DC0000846B0F8800042F2361108431249A1F8A3
:105DD00080000846B0F8820042F2361108430E49AE
:105DE000A1F882000846B0F8840041F2012108437E
:105DF0000949A1F884000846B0F8860041F2012163
:105E000008430549A1F886000846B0F8880041F229
:105E100001210843004901E068660020A1F88800DC
:105E20000846B0F88A0040F0F900A1F88A00084658
:105E3000B0F88C0040F0F900A1F88C000846B0F8EA
:105E40008E0040F0F900A1F88E000846B0F89000EE
:105E500042F2F3010843FE49A1F890000846B0F869
:105E6000920042F2F3010843F949A1F89200084672
:105E700000E047E0B0F8940042F2F3010843F4492F
:105E8000A1F894000846B0F8960040F44360A1F8E9
:105E900096000846B0F8980040F44360A1F89800D6
:105EA0000846B0F89A0040F44360A1F89A0008460A
:105EB000B0F89C0040F0F700A1F89C000846B0F84C
:105EC0009E0040F0F700A1F89E000846B0F8A00040
:105ED00040F0F700A1F8A0000846B0F8A20040F09A
:105EE0003800A1F8A2000846B0F8A40040F038003D
:105EF000A1F8A4000846B0F8A60040F03800A1F8C8
:105F0000A60030E1D248B0F8660041F2092108430A
:105F1000CF49A1F866000846B0F8680041F20921AF
:105F20000843CB49A1F868000846B0F86A0041F27E
:105F300009210843C649A1F86A000846B0F86C0078
:105F400042F236110843C249A1F86C000846B0F885
:105F50006E0042F236110843BD49A1F86E000846B2
:105F6000B0F8700042F236110843B949A1F8700048
:105F70000846B0F8720041F201210843B449A1F883
:105F800072000846B0F8740041F201210843B0499C
:105F9000A1F874000846B0F8760041F201210843E8
:105FA000AB49A1F876000846B0F8780040F0F90057
:105FB000A1F878000846B0F87A0040F0F900A1F89E
:105FC0007A000846B0F87C0040F0F900A1F87C00A7
:105FD0000846B0F87E0042F2F30108439C49A1F85C
:105FE0007E000846B0F8800042F2F3010843984969
:105FF000A1F880000846B0F8820042F2F30108439D
:106000009349A1F882000846B0F8840040F4436048
:10601000A1F884000846B0F8860040F44360A1F877
:1060200086000846B0F8880040F44360A1F8880074
:106030000846B0F88A0040F0F700A1F88A00084648
:10604000B0F88C0040F0F700A1F88C000846B0F8DA
:106050008E0040F0F700A1F88E000846B0F89000DE
:1060600040F03800A1F890000846B0F8920040F0E7
:106070003800A1F892000846B0F8940040F03800CB
:10608000A1F89400002B27DD052B25DA1846FEF732
:10609000BEF86F48B0F89C006E4909786E4A32F835
:1060A000111008436A49A1F89C000846B0F89E0008
:1060B0006849097832F8111008436549A1F89E0033
:1060C0000846B0F8A0006349097832F81110084377
:1060D0005F49A1F8A00046E0052B44D15C48B0F828
:1060E0009C0041F2012108435949A1F89C0008464F
:1060F000B0F89E0041F2012108435549A1F89E00E5
:106100000846B0F8A00041F2012108435049A1F827
:10611000A0000846B0F8A20040F0F700A1F8A200E5
:106120000846B0F8A40040F0F700A1F8A400084623
:10613000B0F8A60040F0F700A1F8A6000846B0F8B5
:10614000A80040F0BD00A1F8A8000846B0F8AA00D9
:1061500040F0BD00A1F8AA000846B0F8AC0040F03D
:10616000BD00A1F8AC0000BD3948B0F8660041F2AE
:106170008F2108433649A1F866000846B0F8680048
:1061800041F28F2108433249A1F868000846B0F86F
:106190006A0041F28F2108432D49A1F86A000846A0
:1061A000B0F86C0041F2012108432949A1F86C00C4
:1061B0000846B0F86E0041F2012108432449A1F8D5
:1061C0006E000846B0F8700041F2012108432049F2
:1061D000A1F87000704730B503460C4615461846C6
:1061E000FEF715F842F21070834221DB1848B0F830
:1061F000660018490979184A32F811100843144901
:10620000A1F866000846B0F868001249097932F82A
:10621000111008430E49A1F868000846B0F86A005A
:106220000C49097932F8111008430949A1F86A00AC
:10623000B3F57A7F28DB0648B0F86C000549C978C9
:10624000054A32F8111008430149A1F86C0005E035
:1062500068660020DF600020663401080846B0F858
:106260006E00FE49C97832F811100843FC49A1F8C4
:106270006E000846B0F87000F849C97832F811107D
:106280000843F749A1F87000642B21DBF448B0F80B
:106290007200F2498978F34A32F811100843F04944
:1062A000A1F872000846B0F87400EC49897832F819
:1062B00011100843EA49A1F874000846B0F87600C6
:1062C000E649897832F811100843E549A1F87600CB
:1062D0000A2B21DBE248B0F87800E0494978E14A2E
:1062E00032F811100843DE49A1F878000846B0F8EA
:1062F0007A00DA49497832F811100843D849A1F8F0
:106300007A000846B0F87C00D449497832F8111078
:106310000843D349A1F87C00D148B0F87E00CF49AA
:106320000978D04A32F811100843CD49A1F87E000F
:106330000846B0F88000C949097832F811100843BE
:10634000C749A1F880000846B0F88200C34909781F
:1063500032F811100843C249A1F882000846B0F88B
:10636000840040F0C000A1F884000846B0F8860020
:1063700040F0C000A1F886000846B0F8880040F060
:10638000C000A1F888002046FDF741FF642C64DBC3
:10639000B348B0F88A00B1498978B24A32F811108E
:1063A0000843AF49A1F88A000846B0F88C00AB4911
:1063B000897832F811100843A949A1F88C000846E1
:1063C000B0F88E00A549897832F811100843A44925
:1063D000A1F88E000846B0F89000A049497832F83C
:1063E000111008439E49A1F890000846B0F89200A9
:1063F0009A49497832F8111008439949A1F8920056
:106400000846B0F894009549497832F811100843CD
:106410009349A1F894000846B0F896008F4909788E
:1064200032F8111008438E49A1F896000846B0F8DA
:1064300098008A49097832F8111008438849A1F870
:1064400098000846B0F89A008449097832F811108B
:1064500008438349A1F89A0067E00A2C43DB80488F
:10646000B0F88A007D4949787E4A32F81110084315
:106470007B49A1F88A000846B0F88C007749497832
:1064800032F8111008437649A1F88C000846B0F89C
:106490008E007249497832F8111008437049A1F80A
:1064A0008E000846B0F890006C49097832F8111057
:1064B00008436B49A1F890000846B0F8920067497C
:1064C000097832F8111008436549A1F8920008468E
:1064D000B0F894006149097832F811100843604916
:1064E000A1F8940021E05E48B0F88A005B49097881
:1064F0005C4A32F8111008435949A1F88A0008464D
:10650000B0F88C005549097832F811100843544905
:10651000A1F88C000846B0F88E005049097832F88E
:10652000111008434E49A1F88E002846FDF76FFE72
:106530000A2D21DB4A48B0F8A20048494978494A67
:1065400032F8111008434649A1F8A2000846B0F8F5
:10655000A4004249497832F8111008434049A1F893
:10656000A4000846B0F8A6003C49497832F811105A
:1065700008433B49A1F8A6003948B0F8A8003749BC
:106580000978384A32F8111008433549A1F8A800B3
:106590000846B0F8AA003149097832F811100843CA
:1065A0002F49A1F8AA000846B0F8AC002B49097899
:1065B00032F8111008432A49A1F8AC0030BD00B5EB
:1065C00003462748B0F8660042F2361108432449D2
:1065D000A1F866000846B0F8680042F23611084398
:1065E0001F49A1F868000846B0F86A0042F2361167
:1065F00008431B49A1F86A000846B0F86C0040F057
:106600003F00A1F86C000846B0F86E0040F03F0073
:10661000A1F86E000846B0F8700040F03F00A1F805
:1066200070001846FDF7F3FD0D48B0F878000B49EF
:1066300049780C4A32F8111008430949A1F878004A
:106640000846B0F87A000549497832F81110084335
:106650000349A1F87A00084606E00000DF60002048
:106660006866002066340108B0F87C00FE4949786D
:1066700032F811100843FD49A1F87C000846B0F833
:106680007E00F949097832F811100843F749A1F85A
:106690007E000846B0F88000F349097832F81110FE
:1066A0000843F249A1F880000846B0F88200EE499C
:1066B000097832F811100843EC49A1F8820000BDB6
:1066C000EA48B0F8780040F0F300E849A1F8780013
:1066D0000846B0F87A0040F0F300A1F87A000846C6
:1066E000B0F87C0040F0F300A1F87C000846B0F858
:1066F0007E0040F0F700A1F87E000846B0F8800068
:1067000040F0F700A1F880000846B0F8820040F0A1
:10671000F700A1F882000846B0F8840040F03E007F
:10672000A1F884000846B0F8860040F03E00A1F8C9
:1067300086000846B0F8880040F03E00A1F88800C6
:106740000846B0F88A0040F0ED00A1F88A0008463B
:10675000B0F88C0040F0ED00A1F88C000846B0F8CD
:106760008E0040F0ED00A1F88E000846B0F89000D1
:1067700040F0F900A1F890000846B0F8920040F00F
:10678000F900A1F892000846B0F8940040F0F90032
:10679000A1F894007047B548B0F8780040F0ED00DB
:1067A000B249A1F878000846B0F87A0040F0ED0050
:1067B000A1F87A000846B0F87C0040F0ED00A1F89E
:1067C0007C000846B0F87E0041F201210843A74949
:1067D000A1F87E000846B0F8800041F2012108438C
:1067E000A249A1F880000846B0F8820041F20121D8
:1067F00008439E49A1F882000846B0F8840040F0A2
:106800003F00A1F884000846B0F8860040F03F0041
:10681000A1F886000846B0F8880040F03F00A1F8D3
:1068200088000846B0F88A0040F0F300A1F88A001A
:106830000846B0F88C0040F0F300A1F88C00084640
:10684000B0F88E0040F0F300A1F88E0070470020F1
:10685000EEE0014600EBD1725210A0EB4202002A9A
:106860007AD1824911F8101001F0800149B1C0F1CC
:1068700010017F4A515C41F01001C0F110027C4BC5
:1068800099547A4911F8101001F0010139B1C0F1A1
:106890001001774A515CC0F11002754B995473494D
:1068A00011F8101001F0020139B1C0F11001704A65
:1068B000515CC0F110026E4B99546C4911F81010E4
:1068C00001F0040139B1C0F11001694A515CC0F115
:1068D0001002674B9954654911F8101001F0080136
:1068E00039B1C0F11001624A515CC0F11002604B35
:1068F00099545E4911F8101001F0100149B1C0F12E
:1069000010015B4A515C41F02001C0F11002584B6C
:106910009954564911F8101001F0200149B1C0F105
:106920001001534A515C41F08001C0F11002504BFC
:1069300099544E4911F8101001F04001002975D00A
:10694000C0F110014A4A515C41F04001C0F110020F
:10695000474B99546AE0FFE7444911F8101001F0E1
:10696000010149B1C0F11001414A515C41F080017F
:10697000C0F110023E4B99543C4911F8101001F03F
:10698000020149B1C0F11001394A515C41F04001A6
:10699000C0F11002364B9954344911F8101001F02F
:1069A000040149B1C0F11001314A515C41F02001AC
:1069B000C0F110022E4B99542C4911F8101001F01F
:1069C000080149B1C0F11001294A515C41F01001A0
:1069D000C0F11002264B9954244911F8101001F00F
:1069E000100139B1C0F11001214A515CC0F110020F
:1069F0001F4B99541D4911F8101001F0200139B1B5
:106A0000C0F110011A4A515CC0F11002184B9954A0
:106A1000164911F8101001F0400139B1C0F1100110
:106A2000134A515CC0F11002114B9954411CC8B279
:106A30000828FFF60EAF0820F6E0014600EBD17201
:106A40005210A0EB4202002A7ED1084911F8101022
:106A500001F0800181B1C0F10F01054A515C41F0A4
:106A60001001C0F10F0205E0DF6000206866002021
:106A7000F0650020FE4B9954FE4911F8101001F00A
:106A8000010139B1C0F10F01F94A515CC0F10F02A7
:106A9000F74B9954F74911F8101001F0020139B180
:106AA000C0F10F01F24A515CC0F10F02F04B995452
:106AB000F04911F8101001F0040139B1C0F10F01D3
:106AC000EB4A515CC0F10F02E94B9954E94911F8C6
:106AD000101001F0080139B1C0F10F01E44A515C16
:106AE000C0F10F02E24B9954E24911F8101001F085
:106AF000100149B1C0F10F01DD4A515C41F02001A4
:106B0000C0F10F02DA4B9954DA4911F8101001F074
:106B1000200149B1C0F10F01D54A515C41F080011B
:106B2000C0F10F02D24B9954D24911F8101001F064
:106B30004001002976D0C0F10F01CD4A515C41F0EF
:106B40004001C0F10F0200E002E0C94B995469E036
:106B5000C84911F8101001F0010149B1C0F10F014D
:106B6000C34A515C41F08001C0F10F02C04B9954FF
:106B7000C04911F8101001F0020149B1C0F10F0134
:106B8000BB4A515C41F04001C0F10F02B84B99542F
:106B9000B84911F8101001F0040149B1C0F10F011A
:106BA000B34A515C41F02001C0F10F02B04B99543F
:106BB000B04911F8101001F0080149B1C0F10F01FE
:106BC000AB4A515C41F01001C0F10F02A84B99543F
:106BD000A84911F8101001F0100139B1C0F10F01EE
:106BE000A34A515CC0F10F02A14B9954A14911F87D
:106BF000101001F0200139B1C0F10F019C4A515C25
:106C0000C0F10F029A4B99549A4911F8101001F0F3
:106C1000400139B1C0F10F01954A515CC0F10F023A
:106C2000934B9954411CC8B21028FFF606AF1020B0
:106C300095E0102847D18F4911F8101001F001019B
:106C400019B18B49C97B8A4AD1738A4911F810104E
:106C500001F0020129B18649C97B41F00101844A52
:106C6000D173844911F8101001F0040119B1804961
:106C7000C97B7F4AD1737F4911F8101001F00801D8
:106C800019B17B49C97B7A4AD1737A4911F810103E
:106C900001F0100119B17649C97B754AD173754964
:106CA00011F8101001F0200119B17149C97B704A27
:106CB000D173704911F8101001F0400119B16C49FD
:106CC000C97B6B4AD173112847D16A4911F810105A
:106CD00001F0010119B16649097C654A11746549E1
:106CE00011F8101001F0020119B16149097C604AE4
:106CF0001174604911F8101001F0040129B15C49C8
:106D0000097C41F001015A4A11745A4911F81010D6
:106D100001F0080119B15649097C554A11745549C9
:106D200011F8101001F0100119B15149097C504AB5
:106D30001174504911F8101001F0200119B14C499B
:106D4000097C4B4A11744B4911F8101001F04001B5
:106D500019B14749097C464A1174411CC8B212282E
:106D6000FFF667AF122062E116286BD1414911F896
:106D7000101001F0010149B1C0F122013C4A515CFF
:106D800041F00801C0F12202394B9954394911F8F8
:106D9000101001F0020139B1C0F12201344A515CF6
:106DA000C0F12202324B9954324911F8101001F00F
:106DB000040139B1C0F122012D4A515CC0F1220217
:106DC0002B4B99542B4911F8101001F0080149B1CF
:106DD000C0F12201264A515C41F00101C0F12202BA
:106DE000234B9954234911F8101001F0100149B1B7
:106DF000C0F122011E4A515C41F00201C0F12202A1
:106E00001B4B99541B4911F8101001F0200149B196
:106E1000C0F12201164A515C41F00401C0F1220286
:106E2000134B9954134911F8101001F04001002937
:106E300007D0C0F122010E4A515CC0F122020C4B76
:106E40009954F2E0014600EBD1725210A0EB4202DD
:106E5000EABB084911F8101001F0800171B1C0F1CE
:106E60002201034A515C41F00101C0F1220203E01A
:106E7000F065002068660020FE4B9954FE4911F829
:106E8000101001F0010149B1C0F12201F94A515C31
:106E900041F01001C0F12202F64B9954F64911F865
:106EA000101001F0020139B1C0F12201F14A515C28
:106EB000C0F12202EF4B9954EF4911F8101001F084
:106EC000040149B1C0F12201EA4A515C00E042E00C
:106ED000C0F12202E74B9954E74911F8101001F074
:106EE000080149B1C0F12201E24A515C41F00201BE
:106EF000C0F12202DF4B9954DF4911F8101001F064
:106F0000100149B1C0F12201DA4A515C41F004019B
:106F1000C0F12202D74B9954D74911F8101001F053
:106F2000200149B1C0F12201D24A515C41F008016F
:106F3000C0F12202CF4B9954CF4911F8101001F043
:106F40004001E9B3C0F12201CA4A515CC0F12202FA
:106F5000C84B995469E0C84911F8101001F00101BB
:106F600039B1C0F12201C34A515CC0F12202C14BC8
:106F70009954C14911F8101001F0020149B1C0F152
:106F80002201BC4A515C41F00801C0F12202B94B18
:106F90009954B94911F8101001F0040149B1C0F138
:106FA0002201B44A515C41F00201C0F12202B14B0E
:106FB0009954B14911F8101001F0080149B100E0ED
:106FC00033E0C0F12201AB4A515CC0F12202A94B6F
:106FD0009954A94911F8101001F0100139B1C0F10C
:106FE0002201A44A515CC0F12202A24B9954A24949
:106FF00011F8101001F0200139B1C0F122019D4AB1
:10700000515CC0F122029B4B99549B4911F810101E
:1070100001F0400149B1C0F12201964A515C41F0B2
:107020000401C0F12202934B9954411CC8B21A28A2
:10703000FFF69AAE55D1904911F8101001F0800179
:1070400029B18C49097A41F001018A4A11728A49B1
:1070500011F8101001F0010119B18649097A854A29
:107060001172854911F8101001F0020129B181490E
:10707000097A41F008017F4A11727F4911F8101016
:1070800001F0040129B17B49097A41F00201794AF2
:107090001172794911F8101001F0080119B1754900
:1070A000097A744A1172744911F8101001F0100134
:1070B00019B17049097A6F4A11726F4911F81010AD
:1070C00001F0200119B16B49097A6A4A11726A49C3
:1070D00011F8101001F0400119B16649097A654AAA
:1070E00011721B2062E11F286BD1634911F8101047
:1070F00001F0010149B1C0F122015E4A515C41F049
:107100000801C0F122025B4B99545B4911F8101041
:1071100001F0020139B1C0F12201564A515CC0F1BF
:107120002202544B9954544911F8101001F00401F3
:1071300039B1C0F122014F4A515CC0F122024D4BDE
:1071400099544D4911F8101001F0080149B1C0F1EE
:107150002201484A515C41F00101C0F12202454B35
:107160009954454911F8101001F0100149B1C0F1CE
:107170002201404A515C41F00201C0F122023D4B24
:1071800099543D4911F8101001F0200149B1C0F1A6
:107190002201384A515C41F00401C0F12202354B12
:1071A0009954354911F8101001F04001002907D019
:1071B000C0F122012F4A515CC0F122022D4B99549B
:1071C000F2E0014600EBD1725210A0EB4202EABBA2
:1071D000294911F8101001F0800149B1C0F12201D4
:1071E000244A515C41F00101C0F12202214B995423
:1071F000214911F8101001F0010139B1C0F122014B
:107200001C4A515CC0F122021A4B99541A4911F8D8
:10721000101001F0020149B1C0F12201154A515C80
:1072200041F00801C0F12202124B9954124911F8A1
:10723000101001F0040159B1C0F122010D4A515C56
:1072400041F00201C0F122020A4B00E040E09954F3
:10725000094911F8101001F0080139B1C0F12201FB
:10726000044A515CC0F12202024B9954024911F8C0
:10727000101003E0F06500206866002001F01001A6
:1072800039B1C0F12201FE4A515CC0F12202FC4B2F
:107290009954FC4911F8101001F0200139B1C0F1E6
:1072A0002201F74A515CC0F12202F54B9954F5498D
:1072B00011F8101001F04001E9B3C0F12201F04AC9
:1072C000515C41F00401C0F12202ED4B99546BE096
:1072D000EC4911F8101001F0010149B1C0F122018F
:1072E000E74A515C41F01001C0F12202E44B99548D
:1072F000E44911F8101001F0020139B1C0F1220186
:10730000DF4A515CC0F12202DD4B9954DD4911F88E
:10731000101001F0040139B1C0F12201D84A515CCA
:10732000C0F12202D64B9954D64911F8101001F041
:10733000080159B100E037E0C0F12201D04A515CA8
:1073400041F00201C0F12202CD4B9954CD4911F810
:10735000101001F0100149B1C0F12201C84A515C7E
:1073600041F00401C0F12202C54B9954C54911F8FE
:10737000101001F0200149B1C0F12201C04A515C56
:1073800041F00801C0F12202BD4B9954BD4911F8EA
:10739000101001F0400139B1C0F12201B84A515C2E
:1073A000C0F12202B64B9954411CC8B22328FFF603
:1073B0009AAE232081E0B34911F8101001F080014A
:1073C00049B1C0F15E01B04A515C41F08001C0F1A9
:1073D0005E02AD4B9954AB4911F8101001F0010158
:1073E00049B1C0F15E01A84A515C41F00101C0F110
:1073F0005E02A54B9954A34911F8101001F0020147
:1074000049B1C0F15E01A04A515C41F00201C0F1F6
:107410005E029D4B99549B4911F8101001F0040134
:1074200049B1C0F15E01984A515C41F01001C0F1D0
:107430005E02954B9954934911F8101001F0080120
:1074400049B1C0F15E01904A515C41F04001C0F188
:107450005E028D4B99548B4911F8101001F0100108
:1074600049B1C0F15E01884A515C41F02001C0F190
:107470005E02854B9954834911F8101001F02001E8
:1074800049B1C0F15E01804A515C41F00401C0F194
:107490005E027D4B99547B4911F8101001F04001B8
:1074A00049B1C0F15E01784A515C41F00801C0F178
:1074B0005E02754B9954411CC8B22728FFF67BAF7A
:1074C000272081E06F4911F8101001F0800149B1C7
:1074D000C0F15E016C4A515C41F08001C0F15E0276
:1074E000694B9954674911F8101001F0010149B135
:1074F000C0F15E01644A515C41F00101C0F15E02DD
:10750000614B99545F4911F8101001F0020149B123
:10751000C0F15E015C4A515C41F00201C0F15E02C3
:10752000594B9954574911F8101001F0040149B111
:10753000C0F15E01544A515C41F01001C0F15E029D
:10754000514B99544F4911F8101001F0080149B1FD
:10755000C0F15E014C4A515C41F04001C0F15E0255
:10756000494B9954474911F8101001F0100149B1E5
:10757000C0F15E01444A515C41F02001C0F15E025D
:10758000414B99543F4911F8101001F0200149B1C5
:10759000C0F15E013C4A515C41F00401C0F15E0261
:1075A000394B9954374911F8101001F0400149B195
:1075B000C0F15E01344A515C41F00801C0F15E0245
:1075C000314B9954411CC8B22B28FFF67BAF2B20BE
:1075D000DDE02B281BD12B4911F8101001F001011F
:1075E00039B1274991F82F1041F00101244A82F85E
:1075F0002F10244911F8101001F0200139B1204951
:1076000091F82F1041F002011D4A82F82F102C280A
:107610001BD11C4911F8101001F0020139B11849B1
:1076200091F8301041F00101154A82F830101549E7
:1076300011F8101001F0400139B1114991F83010E2
:1076400041F002010E4A82F830102D2823D10D4955
:1076500011F8101001F0040139B1094991F8311005
:1076600041F00101064A82F83110064911F8101064
:1076700001F0100179B1024991F8311006E00000E3
:10768000F0650020686600202C66002041F00201B1
:10769000FE4A82F831102E280DD1FD4911F8101044
:1076A00001F0080139B1F94991F82B1041F00101BD
:1076B000F64A82F82B102F281BD1F54911F810102B
:1076C00001F0010139B1F14991F82E1041F00101A9
:1076D000EE4A82F82E10EE4911F8101001F0020166
:1076E00039B1EA4991F82E1041F00201E74A82F8D7
:1076F0002E1030281BD1E64911F8101001F020019E
:1077000039B1E24991F82D1041F00101DF4A82F8C8
:107710002D10DF4911F8101001F0400139B1DB499B
:1077200091F82D1041F00201D84A82F82D1031282D
:107730001BD1D74911F8101001F0040139B1D34918
:1077400091F82C1041F00201D04A82F82C10D04957
:1077500011F8101001F0100139B1CC4991F82C103A
:1077600041F00101C94A82F82C1032280DD1C849D4
:1077700011F8101001F0080139B1C44991F82B102B
:1077800041F00201C14A82F82B10411CC8B23328D3
:10779000FFF61FAF3320F0E3332805D03C2803D099
:1077A000452801D04E287DD1B94911F8101001F0BB
:1077B000010179B1A0F13301B64A32F81110B64A8D
:1077C000515C41F00102A0F13301B24B33F81110CA
:1077D000B14B5A54AE4911F8101001F0100179B1B3
:1077E000A0F13301AB4A32F81110AB4A515C41F0C1
:1077F0002002A0F13301A74B33F81110A64B5A54C5
:10780000A34911F8101001F0200179B1A0F1330162
:10781000A04A32F81110A04A515C41F00202A0F1D6
:1078200033019C4B33F811109B4B5A54984931F853
:10783000101001F4807179B1A0F13301954A32F84A
:107840001110954A515C41F00402A0F13301914BB3
:1078500033F81110904B5A548D4911F8101001F063
:10786000400179B1A0F133018A4A32F811108A4AF5
:10787000515C41F00802A0F13301864B33F811103E
:10788000854B5A54824931F8101001F4006149B116
:10789000A0F133017F4A32F811107F4A515C41F068
:1078A000100200E006E0A0F133017A4B33F811102A
:1078B000794B5A54342805D03D2803D0462801D0AE
:1078C0004F287DD1724911F8101001F0080179B1EB
:1078D000A0F133016F4A32F811106F4A515C41F048
:1078E0002002A0F133016B4B33F811106A4B5A544C
:1078F000674931F8101001F4007179B1A0F133013A
:10790000644A32F81110644A515C41F00202A0F15D
:107910003301604B33F811105F4B5A545C4931F816
:10792000101001F4806179B1A0F13301594A32F8A5
:107930001110594A515C41F00102A0F13301554B3D
:1079400033F81110544B5A54514911F8101001F0EA
:10795000800179B1A0F133014E4A32F811104E4A3C
:10796000515C41F00402A0F133014A4B33F811108D
:10797000494B5A54464931F8101001F4805179B1FD
:10798000A0F13301434A32F81110434A515C41F0EF
:107990001002A0F133013F4B33F811103E4B5A5403
:1079A0003B4931F8101001F4005149B1A0F1330105
:1079B000384A32F81110384A515C41F0080200E0B0
:1079C00006E0A0F13301334B33F81110324B5A5417
:1079D000352805D03E2803D0472801D050282BD188
:1079E0002B4911F8101001F0020179B1A0F1330117
:1079F000284A32F81110284A515C41F00102A0F1E6
:107A00003301244B33F81110234B5A54204911F8F9
:107A1000101001F0040179B1A0F133011D4A32F8D0
:107A200011101D4A515C41F00802A0F13301194BBD
:107A300033F81110184B5A54362805D03F2803D07C
:107A4000482801D0512860D1114911F8101001F0D7
:107A5000100179B1A0F133010E4A32F811100E4A2B
:107A6000515C41F01002A0F133010A4B33F81110C0
:107A7000094B5A54064911F8101001F02001C1B108
:107A8000A0F13301034A32F8111007E0F06500203D
:107A900068660020E23401082C660020FE4A515C32
:107AA00041F00202A0F13301FC4B33F81110FA4B04
:107AB0005A54FB4911F8101001F0400179B1A0F1BE
:107AC0003301F64A32F81110F34A515C41F00402D6
:107AD000A0F13301F14B33F81110EF4B5A54F04938
