:020000040800F2
:10200000B07C0020D1E40008D9E40008A7E1000872
:10201000ABE10008AFE10008B3E1000800000000F8
:10202000000000000000000000000000E3E40008E1
:10203000E5E4000800000000E7E40008E9E4000827
:10204000EBE40008EBE40008EBE40008EBE4000834
:10205000EBE40008EBE40008EBE40008EBE4000824
:10206000EBE400087DE10008EBE40008EBE4000885
:10207000EBE40008EBE40008EBE40008EBE4000804
:10208000EBE40008EBE40008EBE40008EBE40008F4
:10209000EBE40008EBE40008EBE40008EBE40008E4
:1020A000EBE40008DDD70008EBE40008EBE40008EF
:1020B000EBE40008EBE40008EBE40008EBE40008C4
:1020C000EBE40008EBE40008EBE40008EBE40008B4
:1020D000EBE40008EBE40008EBE40008EBE40008A4
:1020E000EBE40008EBE40008EBE40008EBE4000894
:1020F000EBE40008EBE40008EBE40008EBE4000884
:10210000EBE4000835D30008EBE40008EBE400083A
:10211000EBE40008EBE40008EBE40008EBE4000863
:10212000EBE40008EBE40008EBE40008000000002A
:10213000EBE40008EBE40008EBE40008EBE4000843
:10214000EBE40008EBE4000800F002F800F06AF8A5
:102150000AA090E8000C82448344AAF10107DA4502
:1021600001D100F05FF8AFF2090EBAE80F0013F0EA
:10217000010F18BFFB1A43F0010318478C1401002C
:10218000CC1401000A444FF0000C10F8013B13F08E
:10219000070408BF10F8014B1D1108BF10F8015BC0
:1021A000641E05D010F8016B641E01F8016BF9D1B3
:1021B00013F0080F1EBF10F8014BAD1C0C1B09D10A
:1021C0006D1E58BF01F801CBFAD505E014F8016B7C
:1021D00001F8016B6D1EF9D59142D6D3704700000E
:1021E000103A24BF78C878C1FAD8520724BF30C843
:1021F00030C144BF04680C60704700000023002415
:1022000000250026103A28BF78C1FBD8520728BF06
:1022100030C148BF0B6070471FB511F070F81FBD8B
:1022200010B510BD0FF0C0FA1146FFF7F5FF00F032
:102230004FFA0FF0DEFA03B4FFF7F2FF03BC0FF022
:10224000E1FA00002DE9FF4104460D4616461F46FF
:10225000F848844204D1012104200EF02BFA16E044
:10226000F548844204D1012108200EF023FA0EE043
:10227000F248844204D1012110200EF01BFA06E03E
:10228000EF48844203D1012120200EF013FAB5F566
:10229000803F0EDA68460DF04CFCADF8005002208D
:1022A0008DF802008DF804600297694620460DF013
:1022B0004EFBBDE8FF8110B501231A469902DD48A7
:1022C000FFF7C0FF01231A465902DA48FFF7BAFFA9
:1022D00001231A461903D748FFF7B4FF01231A4612
:1022E000D902D448FFF7AEFF01231A462021D24875
:1022F000FFF7A8FF002301222021CE48FFF7A2FF0D
:10230000002301224021CB48FFF79CFF002301223C
:102310008021C848FFF796FF002301221146C648D6
:10232000FFF790FF002301220221C348FFF78AFF35
:10233000002301221102BF48FFF784FF10BD10B532
:102340000DF007FD10BD10B545F255500DF0F8FC2D
:1023500003200DF0F8FCBB480068C0F3CF100DF06F
:10236000F5FC0DF0F6FC0DF0F9FC10BD08B54FF4CE
:10237000A0600DF077FF0121C8020EF09BF9192033
:102380008DF8000000208DF8010001208DF802007A
:102390008DF8030068460CF0C0F80020AA490880B8
:1023A000AA480EF033FE40F21B20A8498880002086
:1023B0000880C8804880A6480EF07CFA0122A24816
:1023C0000188A3480EF000FF01221146A0480EF03C
:1023D0006FFE01219E480EF051FE08BD10B5044667
:1023E000082C28D0102C19D0182C28D1012108072E
:1023F0000DF0F8FF9748006840F480709549086038
:10240000282101200EF058F800BF41200DF033FEC6
:102410000028FAD018200EF00EF814E001200DF07C
:1024200062FE00BF21200DF026FE0028FAD0102009
:102430000EF001F807E008200DF0FDFF03E000209A
:102440000DF0F9FF00BF00BF012180200DF09EFFBD
:1024500010BD00B585B04FF4E0600CF059F83120A4
:102460008DF8000000208DF8010001208DF8020099
:102470008DF8030068460CF050F8012104200EF09E
:1024800019F901A80DF055FB0220ADF804000390E6
:102490000620049001A967480DF059FA0120ADF813
:1024A00004008DF808000620049001A961480DF091
:1024B0004EFA1020FFF792FF0DF062FC66480DF017
:1024C000E6FC4FF4165064490860082088808001BB
:1024D0000881002048810220C88008460DF065FC74
:1024E00001214FF4A4600DF0FDFC01214FF4817037
:1024F0000DF0F8FC594908780DF03BFD05B000BD22
:102500001FB5012104200EF0D5F8012108030EF0BB
:10251000C4F8072100200CF099FB4FF4E0410020A3
:102520000DF0D3FE68460DF004FB1420ADF800005A
:102530000320029069463F480DF009FA48480CF024
:1025400055F848480CF08FF800204649087048704C
:102550004FF46020486000208860012008734048E4
:102560000CF052F801213E480CF085F800BF202104
:102570003B480CF045FB0028F9D039480CF0B7F87F
:1025800000BF37480CF0C1F80028FAD11FBD00B5D4
:1025900087B0012105200EF08DF803A80DF0C9FACF
:1025A0000820ADF80C0000208DF81000059003A95C
:1025B00020480DF0CCF9032100200DF05FFB08202E
:1025C000019000208DF8080008208DF809000120F6
:1025D0008DF80A0001A80CF07EFB09208DF80000A0
:1025E00005208DF801000F208DF8020001208DF8E4
:1025F000030068460BF091FF07B000BD10B54FF423
:10260000C8701949088001201849087001F020FBA2
:1026100000201749087001201649087001F042FC9B
:1026200000201549087010BD10B514481449086001
:10263000002429E000080140000C01400010014086
:10264000001401400460002000600020DC00002035
:10265000002C014000700040280100202F0B0020BA
:1026600000080240EC0000202660002028600020C6
:102670003C6000203D6000205460002000200008E5
:1026800008ED00E0601C84B24EF660208442F9DB65
:10269000002401E0601C84B24EF660208442F9DB25
:1026A000002401E0601C84B24EF660208442F9DB15
:1026B000FFF701FEFFF75AFEFFF7CBFEFFF720FF03
:1026C000FFF765FFFFF73FFEFFF798FF10BD000023
:1026D000FFF7AAFF1EE0FFF732FE05F019FC0BF032
:1026E0003CFD05F015FC09F0D5FE05F011FC01F0EC
:1026F0007FF905F00DFC05F00BFC00F05FF800F031
:102700002EF800BF04480088B0F5F97FFADD0020FC
:1027100001490880DFE70000FC60002070B5044636
:102720000523012221461D480CF028F801211B48F1
:102730000BF0F8FF00BF202118480CF0A5F9002885
:10274000F9D0202115480CF0C6F9102113480CF0DF
:10275000C2F912480CF080F80546284670BD10B545
:102760000A210F480AF05EFF0520FFF7D7FF0C494A
:10277000088008460AF064FF0A4908800A210A48CE
:102780000AF050FF0320FFF7C9FF074908800846F9
:102790000AF056FF0549088010BD000000080240FD
:1027A000B403002056600020C803002058600020B9
:1027B000304908700121304A117070472E48007866
:1027C000E0B100202C4908702A48007800EB400056
:1027D0002A49085C2A4908702648007800EB400026
:1027E000264908444078274908702248007800EBC1
:1027F0004000224908448078234908702048007826
:10280000002808DD0120214908701D480078401E7D
:102810001B4908702CE000201C4908701A480078F9
:10282000002820DD17480078002805DD15480078CD
:10283000401E144908701BE013480078401E1249DE
:1028400008700C48007800EB40000C49085C0C490B
:1028500008700848007800EB4000084908444078B8
:102860000849087004E0002005490870054908700F
:10287000704700000000002004000020023401081E
:1028800001000020020000200300002005000020BD
:1028900010B52DED088B8E48007801287ED10020E0
:1028A0008B4908708B4890ED000AB5EEC00AF1EE36
:1028B00010FA36DD884890ED000ADFED880A20EE38
:1028C000200A8448D0ED000A80EE201A844880ED6A
:1028D000001A90ED000ADFED810A80EE201A11EE59
:1028E000104A204610F09AFC41EC1B0B9FED7D1B1B
:1028F000B0EE4B0AF0EE6B0A0EF0A6FFB0EE40AA67
:10290000F0EE60AA53EC1A2B9FED780B51EC100BF4
:102910000FF0D0FF41EC190B0FF0DEFE7549086097
:1029200000BF744890ED000ADFED730AB4EEE00AD0
:10293000F1EE10FA0DDD7148D0ED000AB3EE041A85
:1029400080EE810AD0ED000A30EE200A694880ED61
:10295000000A6B480088012808DC664890ED000AF0
:10296000DFED680A20EE200A80ED000A664890ED4F
:10297000000A664880ED000A654890ED000A654847
:1029800080ED000A5B4890ED000A5C4880ED000A8B
:1029900061490978012953D1604900E050E0098874
:1029A00096294DDD5E490988002949DD5D49097890
:1029B00000290BDC5C490978012907D05B490978BB
:1029C000012903D05A490978012907D159490878C2
:1029D00000EBD0714910A0EB410159B15149097880
:1029E00071BB5149097859BB5049097841BB5049DD
:1029F000097829BB3F4890ED000A3748D0ED000A1E
:102A000020EE208AB1EE000A68EE000A9FED4A1A15
:102A100080EE810AD0ED000AB2EE081AC0EE811AEB
:102A200030EE210A454880ED000A454890ED000A45
:102A30004248D0ED000A30EE200A414880ED000AFD
:102A400035480078042803D03E480078012834D166
:102A50009FED3D0A2D4880ED000A9FED3B0A274877
:102A600080ED000A9FED380A384880ED000A9FED9E
:102A7000360A80ED010A9FED340A80ED020A9FEDCF
:102A8000320A80ED030A9FED300A80ED040A9FEDC3
:102A90002E0A80ED050A0020194908809FED2A0AB8
:102AA0002B4880ED000A9FED280A2A4880ED000A95
:102AB0009FED250A164880ED000A0E4890ED000AA9
:102AC000BCEEC00A10EE100A80B2BDEC088B10BD3F
:102AD000A8610020C4610020946100200000FA4336
:102AE0008460002000000000000008406666666602
:102AF000666606405C60002000004844606000207C
:102B0000986100209A99993FA0610020A46100205B
:102B1000686000206C600020146000201C610020B0
:102B20000C610020550000205600002057000020B6
:102B3000580000205B00002000408345C861002051
:102B4000CC610020D061002000000000E86100207E
:102B5000706000206460002030B5044600209FEDC6
:102B6000F93AF0EE431A9FEDF73AF0EE432A9FED63
:102B7000F53AB0EE432A9FEDF33AB0EE430A9FEDEB
:102B8000F13AF0EE430A9FEDEF3AB0EE431A002916
:102B900068DD00BF2CE004EBC005D5ED003A04EB86
:102BA000C00595ED014AB0EE423A03EE843AB0EE2C
:102BB000432A04EBC00595ED003A33EE003AB0EE3F
:102BC000430A04EBC00595ED013A33EE203AF0EEEE
:102BD000430A04EBC005D5ED003A04EBC00595EDC2
:102BE000004AB0EE413A03EE843AB0EE431A401C7C
:102BF0008842D0DB03EE101AB8EEC33A23EE013A56
:102C000060EE003AB4EEE33AF1EE10FA14DD03EEB2
:102C1000101AB8EEC33A63EE023A40EE603A03EEA1
:102C2000101AB8EEC33A23EE013A00EE403A83EEB2
:102C3000834AF0EE441A03E09FEDC23AF0EE431AE5
:102C400003EE101AB8EEC33AC0EE833A21EE804A82
:102C500003EE101AB8EEC33AC4EE034A33EEE43A78
:102C6000F0EE432AC2ED001AC3ED002A30BD2DE973
:102C7000F0412DED068B9FEDB30AB0EE408A0026A1
:102C8000B1480078012842D10020AF4908700625DC
:102C90002C462DE0AD4800EB840090ED000A30EEAC
:102CA000080AB0EE408AAA4800EB840090ED000AC2
:102CB000B5EEC00AF1EE10FA13DDA54800EB840072
:102CC00090ED000AF7EE000A80EE801A601BA14921
:102CD00001EBC00080ED011A601B01EBC00080ED2C
:102CE000008A782C00DD08E0701C86B2601CC4B23B
:102CF00099480068401BA042CCD800BF974B984A27
:102D000031469448FFF728FF0120964908709448FF
:102D100090ED000A9448D0ED000A20EE200AB0EEB3
:102D2000408A924880ED008A90ED000AB5EEC00A14
:102D3000F1EE10FA08D990ED000ADFED8D0AB4EE3D
:102D4000E00AF1EE10FA04DD9FED8A0A874880ED73
:102D5000000A864890ED000ADFED870A80EE201A0F
:102D600011EE107A384610F059FA41EC1A0B9FED2B
:102D7000831BB0EE4A0AF0EE6A0A0EF065FDB0EE73
:102D8000409AF0EE609A51EC190B0FF0A5FC7D49CA
:102D90000860764890ED000ADFED7B0A20EE200AFD
:102DA0007A4880ED000A90ED000ABCEEC00A10EEF1
:102DB000100A77490880754890ED000ABCEEC00AF9
:102DC00010EE100A73490880734890ED000AF2EE85
:102DD000040AB4EEE00AF1EE10FA05D29FED6F0A94
:102DE0006F4880ED000A24E06B4890ED000ADFEDAB
:102DF0006D0AB4EEE00AF1EE10FA05D29FED6A0A10
:102E0000674880ED000A14E0634890ED000ADFEDAA
:102E1000670AB4EEE00AF1EE10FA05D29FED640AFB
:102E20005F4880ED000A04E09FED620A5C4880ED97
:102E3000000A5B48D0ED000A5548008800EE100AF1
:102E4000B8EE400A20EE800ADFED5B0A80EE201A21
:102E5000534880ED001ABDEC068BBDE8F08110B53B
:102E60002DED068B55480078012869D1544800782B
:102E7000012865D10020514908705248008810B9D6
:102E8000002051490880FFF703FD4E4908804E4855
:102E900000880988884203DA4A4800884A4908803D
:102EA0004A4800880FF075FE41EC1A0B9FED480B65
:102EB00053EC102B0FF0FEFC41EC190B0FF00CFC47
:102EC0000446204610F0AAF941EC1A0B9FED421B74
:102ED000B0EE4A0AF0EE6A0A0EF0B6FCB0EE409A86
:102EE000F0EE609A51EC190B0FF0F6FB08EE100AA9
:102EF000B5EEC08AF1EE10FA04DD9FED390AC0EE9E
:102F0000088A01E0DFED0F8AF5EEC08AF1EE10FAD3
:102F10000EDD0A2133480AF085FBBCEEE80A10EE0C
:102F2000100A3049088008460AF08AFB2E490880BA
:102F30002D48008800285BDD2B4800882B4908803D
:102F400061E0000000000000AA610020F0490020BC
:102F5000503A002000620020AC6100209860002000
:102F600094600020A2600020906000208C6000200F
:102F700082A8FB390742B23833333340696FF0859A
:102F8000C954D53FB0610020002474499C600020E2
:102F90008A600020A060002078610020CDCC4C3DEC
:102FA0008C61002000007042CDCCCC3D0000F0428E
:102FB000CDCC4C3E9A99993E0000AA421161002066
:102FC00014600020086000200E6000202E600020A9
:102FD0000000000000407F400000000000000840AA
:102FE0009A993940C0650020AA6000201060002036
:102FF000FD480088002803DD0120FC49088002E02C
:103000000020FA490880BDEC068B10BDF848007816
:10301000012847D1F7480078012843D10020F4491E
:103020000870F548008801283CDDF4480088401C01
:10303000F2490880F248008810B90020F149088060
:10304000F1480078EE49088008460088632801DDD1
:1030500063200880EB480088E9490988884203DA40
:10306000E7480088E7490880E8480068E44909889B
:103070000844E6490860E1480088002808DD084661
:103080000068DE490988B0FBF1F0E149088002E000
:103090000020DF490880DE480088632802DD6320C5
:1030A000DB490880704710B5DA48007800280BDC4F
:1030B000D9480078012807D0D8480078012803D0E3
:1030C000D748007801284DD1D649087800EBD07157
:1030D0004910A0EB4101012905D1D349097811B963
:1030E0000720FFF765FBCF49087800EBD071491046
:1030F000A0EB410191B9CC49097801290ED10020FA
:10310000CA490880CA490860CA490880CA48006894
:10311000CA490860CA480088CA490880C648006889
:1031200010B90020C5490860C548008810B90020C2
:10313000C4490880C0480068C0490968401ABC49B1
:103140000860BF480088BF490988401AB94908800B
:10315000B449087800EBD0714910A0EB4101B24AA4
:1031600011700AE00020B1490880B1490860B149F6
:103170000880B2490860B34908809E480078012859
:1031800008D1B148007828B9B0480078401CAF4950
:10319000087006E097480078012802D00020AB496B
:1031A00008709449097801297BD1A7490978002939
:1031B000FAD1A7490988962903DD8F490988002992
:1031C00024DCA4490978012907D1A34909880029E9
:1031D0001CDCA2490988002918DC8E4909780029DD
:1031E0000BDC8D490978012907D08C490978012920
:1031F00003D08B4909780129D6D18A49087800EB98
:10320000D0714910A0EB410101294AD193480088AF
:10321000401C924908807F48007800280BDC7E48DB
:103220000078012807D07D480078012803D07C4829
:103230000078012854D177490978082923D07549A5
:10324000097809291FD0734909780A291BD07149C7
:1032500009780B2917D06F4909780C2913D06D49CB
:1032600009780E290FD06B4909780D290BD06949CF
:103270000978112907D068490978012903D06749DD
:10328000097801290ED16749087800EBD0714910FF
:10329000A0EB410131B972480088401C7049088098
:1032A0001EE039E06E480088002819DD6C4800886F
:1032B000401E6B4908806B480088401C69490880A3
:1032C0005849087800EBD0714910A0EB4101012961
:1032D00006D163480088022802DC0720FFF768FA5D
:1032E0005E4800883C2812DB00205C4908805A4870
:1032F0000088401C584908800846008841F27071D7
:10330000884204DB0020544908805449088056480C
:103310000088401C5449088010BD70B52DED088B05
:10332000524800780A2190FBF1F0C5B24F4800786E
:1033300090FBF1F201FB1200052801DB681CC5B20D
:1033400005B901250A2D00DD0A252A480078012843
:1033500049D13F480088962845DD27480088002845
:10336000FADD2C49097800290BDC2B490978012961
:1033700007D02A490978012903D029490978012968
:1033800016D12849087800EBD0714910A0EB410113
:1033900001290DD13648008838B93648007801280F
:1033A00003D12548006834490860BDEC088B70BD26
:1033B0002148006860B90020304908803049088001
:1033C00030490880304908802B4908602F4908801F
:1033D0002F4890ED000ABCEEC00A10EE100A184902
:1033E00008802C4858E07EE1086000201060002032
:1033F00012610020146000200C610020B2600020E7
:10340000B4600020B660002090610020BC60002005
:10341000B860002055000020560000205700002012
:10342000580000205B000020D8600020C26000200F
:10343000C8600020C46000201C600020CC60002018
:1034400018600020C6600020E0610020C0600020FD
:103450001C6100203E600020166000201A600020E1
:10346000680000206A0000201260002088600020B0
:103470000A60002023000020DC600020346000206F
:103480002C600020366000202E600020E0600020CC
:10349000CC610020B861002090ED000ABCEEC00AAB
:1034A000FE4880ED000A0068FD49884202D30846C4
:1034B000FA490860FB480088C0EB0010FA49098807
:1034C00001EB80004FF4967190FBF1F201FB1200CA
:1034D00050B9F2480068F5490860F5480088F54998
:1034E00008800020F4490880EC480088EF490988EA
:1034F000401AF2490880EE480088EE490988401ACF
:10350000EF490880EF480078012879D10020ED4983
:103510000870ED480088002814DDEB4800880FF0A3
:1035200038FB41EC1A0B53EC1A2B9FEDE80B51ECD6
:10353000100B0FF0BFF941EC190B0FF0CDF808EEAE
:10354000100A01E09FEDE38A18EE100A0FF066FE04
:1035500041EC1A0B9FEDE01BB0EE4A0AF0EE6A0A4E
:103560000EF072F9B0EE409AF0EE609A51EC190B41
:103570000FF0B2F808EE900A9FEDD90A28EE800A03
:10358000BCEEC00A10EE100AD64908800846008832
:10359000002807DD08460088D34991FBF0F0D349A5
:1035A000088002E00020D1490880D1480078012835
:1035B00007D0D0480078012803D0CF4800780128F0
:1035C00023D1CE49087800EBD0714910B54A128852
:1035D000C2EB0212B44B1B8803EB8202C84B1B8860
:1035E00003FB11214FF4FA7201FB02F4AB480068AF
:1035F00038B1AA480068B4FBF0F0C24908801DE069
:1036000090E00020BF49088018E0A6480088C0EB81
:103610000010A549098801EB80004FF4FA7100FB06
:1036200001F49E48006830B19C480068B4FBF0F09B
:10363000B449088002E00020B2490880B2480088FE
:10364000A8490988884202DCAF48008818B9A54813
:103650000088AD4908809C4800880FF09AFA41EC38
:103660001B0B9FEDAA0B53EC102B0FF0E1FA41EC72
:103670001A0B9FEDA80B53EC102B0FF05FF841ECE9
:10368000190B0FF029F808EE100ABCEEC80A10EE6C
:10369000100AA2490880A24800880988884203DAF3
:1036A0009E4800889E490880814800884FF46161E7
:1036B00000FB01F47C480088002803DC794800887E
:1036C00000280CDD77480088C0EB00107649098897
:1036D00001EB8000B4FBF0F09249088022E000206A
:1036E000904908801EE090480078D8B900208C49A5
:1036F0000880854908808B490880824908808B4969
:1037000008608B4908809FED730A8A4880ED000AA3
:103710009FED700A884880ED000A9FED6E0A874889
:1037200080ED000A00BF40E67F49097801292AD1CF
:103730008349097819B983490978814A1170824906
:10374000097819B97F4909787F4A11707C4909784D
:103750007C4A1278914203DA7A490978784A1170E2
:1037600079490978774A1278914203DD75490978D9
:10377000754A117072490978734A1278881841089D
:10378000724A117002E000216F4A1170704730B523
:103790006F4C248844B16F4C24882CB16C4C248825
:1037A0006C4D2D88AC4203D100246B4D2C701EE172
:1037B000674C2488674D2D88AC4202DA644C24881B
:1037C00001E0644C24882146614C2488614D2D8899
:1037D000AC4202DA5F4C248801E05D4C2488234629
:1037E0005C1A102C03DA00245B4D2C70FFE05C1A8D
:1037F0005A4D2D7894FBF5F4A2B2002005E0002488
:10380000574D25F81040441CE0B21028F7DB00208B
:1038100006E002FB0014524D25F81040441CE0B2B3
:103820004E4C2478A042F4DB494C2488494D2D8825
:10383000AC4231DA01202DE0012809D1484C6488DE
:10384000484D2D88AC4223DB0124434D2C701FE0F2
:10385000424C2478641E424D35F81440414D2D8869
:10386000AC4204DA3D4C24783B4D2C7010E0441EF1
:103870003B4D35F814403B4D2D88AC4208DA384CAE
:1038800034F81040374D2D88AC4201DB324C2070AB
:10389000441CE0B2314C67E06BE000001C6000208B
:1038A0003C860100166000201A600020DC600020C9
:1038B00018600020E0600020126000200A600020F4
:1038C0000C600020136100200860002066666666B8
:1038D0006666064000000000555555555555D53FC4
:1038E0000000FA432A600020A0BB0D0030600020D9
:1038F0005800002056000020570000205B000020E8
:10390000760000202E6000202C600020508D976EE5
:1039100012830B408195438B6CC372403260002050
:10392000346000203660002014600020BC6000205D
:10393000B2600020D0600020D4600020B861002078
:103940003960002024600020E26000203860002000
:1039500050600020526000204E6000204F60002028
:10396000D4650020586000202478A042FFF664AFA0
:103970003DE03C4C24883C4D2D88AC4237DD012095
:1039800031E001280AD1394C6488394D2D88AC4288
:1039900027DB384C2478384D2C7022E0354C2478C5
:1039A000641E324D35F81440314D2D88AC4203DA97
:1039B0000124314D2C7014E0441E2C4D35F8144078
:1039C0002B4D2D88AC420CDA284C34F81040284D91
:1039D0002D88AC4205DB274C2478241A641C264D24
:1039E0002C70441CE0B2234C2478A042C9DB30BDCB
:1039F00010B52248007840B921480078022804DC3C
:103A00001F480078401C1E4908701D480078022895
:103A100013D101231A4641031A48FEF713FC012370
:103A20001A4659031748FEF70DFC0120FEF7C0FEA9
:103A300013480078401C12490870FFF718F9FFF787
:103A40000EFAFFF7E3FAFFF7A2FEFFF76DFEFFF7AE
:103A50002AFBFFF762FC06F0F0FA07F0D7FF04F04C
:103A60001BFB10BD5060002052600020D465002078
:103A7000586000204F6000204E600020E061002070
:103A8000546000200008014006E040F23C6100E084
:103A9000491E0029FCD1401E0028F6D1704705E0E0
:103AA000022100E0491E0029FCD1401E0028F7D168
:103AB00070470146002000E0401E0028FCD17047FE
:103AC00070B504460D46002621E004F0800028B1C0
:103AD0004FF4007188480CF052F804E04FF4007184
:103AE00085480CF050F84FF4806183480CF04BF897
:103AF0006006040E0A20FFF7DCFF4FF480617E4869
:103B00000CF03DF80A20FFF7D4FF701CC6B2AE429D
:103B1000DBDB70BD10B504464FF4805176480CF0E5
:103B200032F84FF4006174480CF02DF80120FFF7D3
:103B3000B6FF08212046FFF7C3FF0120FFF7AFFFC4
:103B40004FF480516C480CF01AF84FF400616A4849
:103B50000CF015F810BD70B505460C464FF48051B9
:103B600065480CF010F84FF4006163480CF00BF856
:103B70000120FFF794FF08212846FFF7A1FF01204D
:103B8000FFF78DFF08212046FFF79AFF0120FFF77E
:103B900086FF4FF4805158480BF0F1FF4FF400615D
:103BA00055480BF0ECFF70BD10B54FF480515248F2
:103BB0000BF0E9FF0420FFF772FF08218020FFF7D8
:103BC0007FFF0420FFF76BFF08210020FFF778FF3D
:103BD000002409E00420FFF762FF4849085D08213E
:103BE000FFF76EFF601CC4B23C2CF3DB0420FFF730
:103BF00056FF4FF4805140480BF0C1FF4FF4006175
:103C00003D480BF0C0FF0420FFF749FF082180204A
:103C1000FFF756FF0420FFF742FF08210020FFF7BF
:103C20004FFF002409E00420FFF739FF3449085D05
:103C30000821FFF745FF601CC4B23C2CF3DB0420D5
:103C4000FFF72DFF4FF400612B480BF098FF10BDDC
:103C500010B5AA20FFF75EFF0220FFF715FF002135
:103C6000C020FFF778FF0A20FFF719FF0021C220CC
:103C7000FFF771FF0A20FFF712FF1321D020FFF793
:103C80006AFF73218220FFF766FF0A20FFF707FF14
:103C900001218420FFF75FFF0A20FFF700FF0221C8
:103CA0008820FFF758FF0A20FFF7F9FE032186203E
:103CB000FFF751FF0A20FFF7F2FE10BD10B5AA2052
:103CC000FFF728FF0220FFF7DFFE02218620FFF723
:103CD00042FF0A20FFF7E3FE10BD10B5AA20FFF750
:103CE00019FF0220FFF7D0FE03218620FFF733FFE4
:103CF0000A20FFF7D4FE10BD00080140F465002043
:103D00003066002070B505460E46F7480068F74952
:103D10000860F54840684860F34880688860002083
:103D2000C860F14800690861EF4840694861EE48A1
:103D3000281A800841F820600BF0D6F8EA480BF00A
:103D40001FF900240AE0E94A52F82410E64A042345
:103D500003FB04200BF092FA601CC4B2062CF2DBC9
:103D60000BF0C8F870BD2DE9F04104460D46002661
:103D700009E0DF48042101FB06073868DB4941F808
:103D80002600701C86B2B6F5967FF2DB2888D849EB
:103D9000611A8908D54A42F821006888D449611A15
:103DA000012202EB9101D14A42F82100A888D049B2
:103DB000611A022202EB9101CC4A42F82100E88804
:103DC000CB49611A032202EB9101C84A42F8210053
:103DD0002889C749611A042202EB9101C34A42F8BB
:103DE00021006889C249611A052202EB9101BF4A8C
:103DF00042F82100BE49611A062202EB9101BB4A3A
:103E0000E86842F82100288AB949611A072202EBC2
:103E10009101B64A42F82100688AB549611A082220
:103E200002EB9101B14A42F82100A88AB049611A17
:103E3000092202EB9101AD4A42F82100AC49611A16
:103E40000A2202EB9101A94AA86942F82100A88B35
:103E5000A749611A0B2202EB9101A44A42F8210002
:103E6000A87FA349611A0C2202EB91019F4A42F8F4
:103E700021000BF039F89E480BF082F800260AE08A
:103E80009A4A52F826109A4A042303FB06200BF0A4
:103E9000F5F9701C86B2B6F5967FF1DB0BF02AF8C7
:103EA000BDE8F08170B590480068924908800846E6
:103EB00000884FF6FF71884202DB00208D490880A0
:103EC000894840688C490880084600884FF6FF7191
:103ED000884202DB002088490880834800698749BE
:103EE000087008460078102803DC08460078062889
:103EF00002DA0A20814908707B488068804908708E
:103F000008460078632802DC0846007810B90420CF
:103F10007B4908707448C56825B1002172480C308F
:103F2000FFF7F0FE0020774908706F484069764936
:103F3000087008460078142801DB0020087000246F
:103F40002CE1342060436A49455841F27070854243
:103F500005D300206D4901EB4411088003E06B4953
:103F600001EB44110D8004EB840000EBC4006049B8
:103F700001EB8000456841F27070854205D9002050
:103F8000624901EB4411488003E0604901EB4411B0
:103F90004D8004EB840000EBC400554901EB800028
:103FA000856842F20F70854205D90020574901EB20
:103FB0004411888003E0554901EB44118D8004EBE6
:103FC000840000EBC4004A4901EB8000C56842F25E
:103FD0000F70854205D900204C4901EB4411C8807F
:103FE00003E04A4901EB4411CD8004EB840000EB6F
:103FF000C4003F4901EB80000569B5F57A7F05D320
:104000000020424901EB4411088103E03F4901EBE4
:1040100044110D8104EB840000EBC400344901EB32
:104020008000456942F20F70854205D9002037496A
:1040300001EB4411488103E0344901EB44114D8107
:1040400004EB840000EBC400294901EB8000856982
:1040500044F61F60854205D900202C4901EB44112C
:10406000C86003E0294800EB4410C56004EB8400FD
:1040700000EBC4001E4901EB8000C56944F61F60D7
:10408000854205D90020214901EB4411088203E053
:104090001E4901EB44110D8204EB840000EBC400C7
:1040A000134901EB8000056A42F20F70854205D981
:1040B0000020164901EB4411488203E0134901EB4B
:1040C00044114D8204EB840000EBC400084901EB6D
:1040D0008000456AB5F5803F1AD300200B4901EBFB
:1040E0004411888218E0000000500108DC03002021
:1040F0000040010850600020526000204F60002006
:1041000052000020EE6000203A60002034010020C0
:10411000244901EB44118D8204EB840000EBC400C0
:10412000214901EB8000856A42F20F70854205D972
:1041300000201C4901EB4411886103E0194800EBA1
:104140004410856104EB840000EBC400164901EBC8
:104150008000C56AB5F57A7F05D30020114901EBCF
:104160004411888303E00F4901EB44118D8304EB74
:10417000840000EBC4000C4901EB8000056BB5F531
:104180007A7F05D30020074901EB4411887703E0CB
:10419000044901EB44118D77601CC4B2142CFFF666
:1041A000D0AE70BD3401002000400108014600205F
:1041B00003E0FE4A1154421CD0B23C28F9DB002037
:1041C00003E0FB4A1154421CD0B23C28F9DB00202A
:1041D00004E0F84A22F81010421CD0B25728F8DB4D
:1041E0007047F549B0FBF1F201FB1200F349B0FB57
:1041F000F1F1F34A5171F149B0FBF1F201FB120008
:1042000042F21071B0FBF1F1ED4A117142F21071FE
:10421000B0FBF1F201FB12004FF47A71B0FBF1F147
:10422000E74AD1704FF47A71B0FBF1F201FB120052
:104230006421B0FBF1F1E24A91706421B0FBF1F22C
:1042400001FB12000A21B0FBF1F1DD4A51700A2195
:10425000B0FBF1F201FB1201D94A1170704710B5A1
:1042600003460C461846FFF7BCFF0A2B12DBD14869
:104270000088D3494978D34A32F811100843CD4910
:10428000088008464088CE49497832F81110084322
:10429000C8494880C7488088C9490978C94A32F85E
:1042A00011100843C34988800846C088C44909786A
:1042B00032F811100843BF49C8802046FFF791FF2C
:1042C000BC480089BE494978BE4A32F811100843FB
:1042D000B849088108464089B949497832F811102F
:1042E0000843B449488108468089B549097832F8BD
:1042F00011100843AF4988810846C089B049097840
:1043000032F811100843AB49C88110BD00B503460F
:104310001846FFF766FFB3F57A7F12DBA5480088E1
:10432000A749C978A74A32F811100843A149088063
:1043300008464088A249C97832F8111008439D49BF
:104340004880642B12DB9B4880889D4989789D4A70
:1043500032F811100843974988800846C088984968
:10436000897832F8111008439249C8800A2B12DB71
:104370009048008992494978924A32F811100843CE
:104380008C490881084640898D49497832F81110D6
:104390000843884948818748808989490978894A3A
:1043A00032F811100843834988810846C08984493E
:1043B000097832F8111008437E49C88100BD00B564
:1043C00003461846FFF70DFFB3F57A7F12DB7948F5
:1043D000008A7B49C9787B4A32F811100843754935
:1043E00008820846408A7649C97832F81110084395
:1043F00070494882642B12DB6E48808A7049897844
:10440000704A32F8111008436A4988820846C08A07
:104410006B49897832F8111008436649C8820A2B23
:1044200012DB6448008B66494978664A32F81110FD
:104430000843604908830846408B6149497832F84F
:10444000111008435B4948835A48808B5C490978BE
:104450005C4A32F811100843564988830846C08BDD
:104460005749097832F8111008435249C88300BDF2
:1044700000B503461846FFF7B4FE42F210708342BF
:1044800012D34C48008C4E4909794E4A32F811102B
:104490000843484908840846408C4949097932F85C
:1044A0001110084343494884B3F57A7F12D3414839
:1044B000808C4349C978434A32F8111008433D497A
:1044C00088840846C08C3E49C97832F811100843E8
:1044D0003849C884642B12D33648008D384989780E
:1044E000384A32F811100843324908850846408D91
:1044F0003349897832F8111008432E4948850A2B30
:1045000012D32C48808D2E4949782E4A32F811104A
:104510000843284988850846C08D2949497832F8DA
:10452000111008432349C8852248008E2449097880
:10453000244A32F8111008431E4908860846408E66
:104540001F49097832F8111008431A49488600BDFE
:1045500000B503461846FFF744FE42F2107083424E
:1045600012DB1448008C16490979164A32F81110EA
:104570000843104908840846408C1149097932F8EB
:10458000111008430B494884B3F57A7F21DB0948B1
:10459000808C0B49C9780B4A32F811100843054941
:1045A00088840846C08C0649C9780DE0F46500206F
:1045B000306600206C66002040420F00A08601009B
:1045C000060000201A34010832F811100843FE4991
:1045D000C884642B12DBFC48008DFC498978FC4AB6
:1045E00032F811100843F84908850846408DF7490C
:1045F000897832F811100843F34948850A2B12DBF9
:10460000F148808DF1494978F14A32F81110084398
:10461000ED4988850846C08DEC49497832F811107B
:104620000843E949C885E848008EE8490978E84A1E
:1046300032F811100843E44908860846408EE349E1
:10464000097832F811100843DF49488600BD10B5DB
:1046500003460C461846FFF7C4FD642B09DBDA4815
:10466000808EDA498978DA4A32F811100843D6493F
:1046700088860A2B12DBD448C08ED4494978D44AA4
:1046800032F811100843D049C8860846008FCF4938
:10469000497832F811100843CB490887CA48408F3F
:1046A000CA490978CA4A32F811100843C6494887EE
:1046B0000846808FC549097832F811100843C2496D
:1046C00088872046FFF78DFDBF48C08FBF494978D6
:1046D000BF4A32F811100843BB49C8870846B0F8F2
:1046E0004000BA49497832F811100843B649A1F898
:1046F00040000846B0F84200B449097832F8111079
:104700000843B149A1F842000846B0F84400AF4957
:10471000097832F811100843AB49A1F8440010BDE4
:1047200000B503461846FFF75CFDB3F57A7F0BDB57
:10473000A548B0F84600A549C978A54A32F8111035
:104740000843A149A1F84600642B0BDB9E48B0F852
:1047500048009E4989789E4A32F8111008439A49C8
:10476000A1F848000A2B0BDB9748B0F84A0097499C
:104770004978974A32F8111008439349A1F84A0042
:104780009148B0F84C0091490978914A32F81110DB
:1047900008438D49A1F84C0000BD00B503461846FA
:1047A000FFF71FFDB3F57A7F0BDB8748B0F84600B3
:1047B0008649C978864A32F8111008438249A1F81F
:1047C0004600642B0BDB8048B0F848007F498978AD
:1047D0007F4A32F8111008437B49A1F848000A2BA0
:1047E0000BDB7948B0F84A0078494978784A32F8C2
:1047F000111008437449A1F84A007348B0F84C00FE
:1048000072490978724A32F8111008436E49A1F8CA
:104810004C0000BD00B503461846FFF7E2FCB3F5B7
:104820007A7F0BDB6848B0F84E006849C978684A5F
:1048300032F8111008436449A1F84E00642B0BDBD9
:104840006148B0F8500061498978614A32F8111026
:1048500008435D49A1F850000A2B0BDB5A48B0F819
:1048600052005A4949785A4A32F8111008435649B9
:10487000A1F852005448B0F8540054490978544AF9
:1048800032F8111008435049A1F8540000BD0A281D
:1048900071DB0A2190FBF1F14D4A32F811104A4ABE
:1048A000B2F856201143484AA2F856100A2190FB4C
:1048B000F1F1474A32F81110434AB2F85820114337
:1048C000414AA2F858100A2190FBF1F1404A32F80F
:1048D00011103D4AB2F85A2011433B4AA2F85A102F
:1048E0000A2190FBF1F13A4A32F81110364AB2F837
:1048F0005C201143344AA2F85C100A2190FBF1F2CB
:1049000001FB1201324A32F811102F4AB2F85E2030
:1049100011432D4AA2F85E100A2190FBF1F201FB2F
:1049200012012B4A32F81110274AB2F860201143C5
:10493000254AA2F860100A2190FBF1F201FB120156
:10494000234A32F81110204AB2F8622011431E4A5D
:10495000A2F862100A2190FBF1F201FB12011C4A3D
:1049600032F81110184AB2F864201143164AA2F81E
:1049700064104CE0FFE71449B1F8561041F03801DB
:10498000114AA2F856101146B1F8581041F03801FA
:10499000A2F858101146B1F85A1041F03801A2F8A7
:1049A0005A101146B1F85C1041F03801A2F85C10C1
:1049B0001146B1F85E10064A32F810201143024A3F
:1049C000A2F85E10114605E06C660020060000208B
:1049D0001A340108B1F86010F94A32F81020114376
:1049E000F84AA2F860101146B1F86210F44A32F8A1
:1049F00010201143F34AA2F862101146B1F8641076
:104A0000EF4A32F810201143EE4AA2F864107047C2
:104A1000002805DDEC49097E41F08001EA4A117663
:104A2000012805DDE849097E41F04001E64A11769A
:104A3000022805DDE449497E41F08001E24A5176D1
:104A4000032805DDE049497E41F04001DE4A517608
:104A500004280ADDDC49897E41F08001DA4A91763A
:104A60001146897E41F040019176052805DDD64941
:104A7000C97E41F04001D44AD17606280ADDD249E8
:104A8000C97E41F08001D04AD1761146097F41F0BC
:104A900040011177072805DDCB49097F41F08001EE
:104AA000C94A117708280ADDC749497F41F040010A
:104AB000C54A51771146497F41F080015177092855
:104AC0000ADDC149897F41F08001BF4A91771146D3
:104AD000C97F41F08001D1770A2805DDBA49C97F35
:104AE00041F04001B84AD1770B280EDDB64991F864
:104AF000201041F08001B44A82F82010114691F84C
:104B0000201041F0400182F820100C2807DDAE494A
:104B100091F8211041F08001AB4A82F821100D2854
:104B20000EDDA94991F8211041F04001A64A82F812
:104B30002110114691F8221041F0800182F82210D4
:104B40000E280EDDA04991F8221041F040019E4A46
:104B500082F82210114691F8231041F0400182F8AA
:104B600023100F2807DD984991F8231041F08001A8
:104B7000954A82F8231010280EDD934991F82410ED
:104B800041F04001904A82F82410114691F8241017
:104B900041F0800182F82410112807DD8A4991F83C
:104BA000251041F04001884A82F8251012280EDDB8
:104BB000854991F8251041F08001834A82F825103B
:104BC000114691F8261041F0400182F82610132872
:104BD0000EDD7D4991F8261041F080017A4A82F875
:104BE0002610114691F8271041F0800182F8271015
:104BF000142807DD744991F8281041F08001724AA9
:104C000082F8281015280EDD6F4991F8281041F020
:104C100040016D4A82F82810114691F8291041F0A0
:104C2000800182F82910162807DD674991F82910BC
:104C300041F04001644A82F8291017280EDD6249CC
:104C400091F82A1041F080015F4A82F82A1011463B
:104C500091F82A1041F0400182F82A1018280EDD40
:104C6000594991F82B1041F04001574A82F82B1016
:104C7000114691F82B1041F0800182F82B10192871
:104C800007DD514991F82C1041F040014E4A82F85D
:104C90002C101A280EDD4C4991F82C1041F080019F
:104CA000494A82F82C10114691F82D1041F040012C
:104CB00082F82D101B2807DD434991F82D1041F093
:104CC0008001414A82F82D101C280EDD3E4991F8E2
:104CD0002E1041F040013C4A82F82E10114691F806
:104CE0002E1041F0800182F82E101D280EDD36496D
:104CF00091F82F1041F08001334A82F82F101146AD
:104D000091F8301041F0800182F830101E2807DD44
:104D10002D4991F8301041F040012B4A82F83010B3
:104D20001F280EDD284991F8311041F08001264AF4
:104D300082F83110114691F8311041F0400182F8AB
:104D400031107047212818D2DFE800F01711181F22
:104D5000262D4047535A6672798992A2B2BBCBD4B2
:104D6000F1EFEEEDECEBEAE9E8E7E6E5E400164901
:104D7000097E41F08001144A117685E11249097ECD
:104D800041F04001104A11767EE10F49497E41F021
:104D900080010D4A517677E10B49497E41F040018F
:104DA000094A517670E10849897E41F08001064A3E
:104DB00091761146897E41F04001917664E10000D0
:104DC0001A3401086C66002030660020F849C97E5C
:104DD00041F04001F64AD17656E1F549C97E41F0ED
:104DE0008001F34AD1761146097F41F040011177E5
:104DF0004AE1EF49097F41F08001ED4A117743E133
:104E0000EB49497F41F04001E94A51771146497F1A
:104E100041F08001517737E1E549897F41F0800118
:104E2000E34A91771146C97F41F08001D1772BE1A8
:104E3000DF49C97F41F04001DD4AD17724E1DC49F7
:104E400091F8201041F08001D94A82F820101146D3
:104E500091F8201041F0400182F8201014E1D4496B
:104E600091F8211041F08001D14A82F821100BE124
:104E7000CF4991F8231041F04001CD4A82F8231028
:104E8000114691F8221041F0400182F82210FBE017
:104E9000C74991F8231041F04001C54A82F8231018
:104EA000114691F8221041F0400182F82210EBE007
:104EB000BF4991F8231041F08001BD4A82F82310C8
:104EC000E2E0BB4991F8241041F04001B84A82F871
:104ED0002410114691F8241041F0800182F824102A
:104EE000D2E0B34991F8251041F04001B04A82F870
:104EF0002510C9E0AE4991F8251041F08001AC4A77
:104F000082F82510114691F8261041F0400182F8F0
:104F10002610B9E0A8E09EE08DE07CE072E061E060
:104F200057E046E035E02BE01AE010E0FFE7A0494B
:104F300091F8261041F080019D4A82F82610114612
:104F400091F8271041F0800182F827109CE09849E1
:104F500091F8281041F08001954A82F8281093E0DA
:104F6000934991F8281041F04001914A82F82810A5
:104F7000114691F8291041F0800182F8291083E050
:104F80008B4991F8291041F04001894A82F8291093
:104F90007AE0874991F82A1041F08001844A82F82A
:104FA0002A10114691F82A1041F0400182F82A1087
:104FB0006AE07F4991F82B1041F040017C4A82F869
:104FC0002B10114691F82B1041F0800182F82B1024
:104FD0005AE0774991F82C1041F04001744A82F868
:104FE0002C1051E0724991F82C1041F08001704A68
:104FF00082F82C10114691F82D1041F0400182F8F2
:105000002D1041E06A4991F82D1041F08001684A65
:1050100082F82D1038E0664991F82E1041F04001D9
:10502000634A82F82E10114691F82E1041F080014B
:1050300082F82E1028E05E4991F82F1041F080018F
:105040005B4A82F82F10114691F8301041F0800130
:1050500082F8301018E0564991F8301041F04001C4
:10506000534A82F830100FE0514991F8311041F065
:1050700080014F4A82F83110114691F8311041F009
:10508000400182F8311000BF00BF704710B50446E0
:105090002046FFF7A6F8642C24DB002320E063B948
:1050A000444890F8290044498978444A12F811107C
:1050B0000843404981F8290010E03F48807800EB20
:1050C00040003F4901EB400010F81300C3F12901F3
:1050D000384A515C0843C3F129015054581CC3B2EB
:1050E000032BDCDB0A2C16DB002312E0324840786D
:1050F00000EB4000324901EB400010F81300C3F10F
:1051000025012C4A515C0843C3F125015054581C19
:10511000C3B2032BEADB002312E02748007800EB40
:105120004000274901EB400010F81300C3F12101B2
:10513000204A515C0843C3F121015054581CC3B2AA
:10514000032BEADB10BD10B50146002067E031F803
:105150001020232A0ADDC0F12802164B9A5C42F087
:105160000102C0F12803134CE25456E031F810203C
:105170001E2A06DD0E4A125C42F001020C4B1A5444
:105180004BE031F81020192A06DD094A125C42F082
:105190000202074B1A5440E031F81020142A11DDA6
:1051A000034A125C42F00402014B1A5435E000003D
:1051B00030660020F4650020060000207E340108DF
:1051C0004234010831F810200F2A06DDFE4A125C35
:1051D00042F00802FC4B1A541FE031F810200A2A52
:1051E00006DDF94A125C42F01002F74B1A5414E043
:1051F00031F81020052A06DDF34A125C42F0200245
:10520000F14B1A5409E031F81020002A05DDEE4A6E
:10521000125C42F04002EC4B1A54421CD0B21828E7
:1052200095DB10BD30B502461E2A03DD3223E74C64
:1052300023800FE0142A03DD6423E44C238009E07B
:105240000A2A03DDC823E14C238003E04FF4C8732E
:10525000DE4C2380002A1CDDDD4B1B78012B18D18E
:10526000DC4B1B88002B05DDDA4B1B885B1ED94C01
:1052700023800EE0D54B1B88D64C2380D64B1B8851
:105280005B1CD54C238023461B88052B01DD0023A6
:105290002380002023E0B1EB400F1EDDC0F12E0380
:1052A000CE4CE35CCE4CCC4D2D8814F815402343F6
:1052B000C0F12E04C94D2B5500F12F032C46E35CA1
:1052C000C54C2488C4F10504C54D15F8144023438A
:1052D000DCB200F12F03C14DEC54431CD8B20528B9
:1052E000D9DB30BDBF48B0F8780040F236510843F2
:1052F000BC49A1F878000846B0F87A0040F236516F
:105300000843B849A1F87A000846B0F87C0040F29A
:1053100036510843B349A1F87C000846B0F87E0036
:1053200040F0F700A1F87E000846B0F8800040F099
:10533000F700A1F880000846B0F8820040F0F700BE
:10534000A1F882000846B0F8840042F23611084302
:10535000A449A1F884000846B0F8860042F236114C
:105360000843A049A1F886000846B0F8880042F238
:10537000361108439B49A1F888000846B0F88A0016
:1053800040F03E00A1F88A000846B0F88C0040F0DA
:105390003E00A1F88C000846B0F88E0040F03E00B8
:1053A000A1F88E000846B0F8900040F0F700A1F890
:1053B00090000846B0F8920040F0F700A1F8920083
:1053C0000846B0F8940040F0F700A1F894000846B1
:1053D000B0F8960040F03800A1F896000846B0F802
:1053E000980040F03800A1F898000846B0F89A00FC
:1053F00040F03800A1F89A0070477A48B0F8780079
:1054000041F2012108437749A1F878000846B0F835
:105410007A0041F2012108437249A1F87A00084656
:10542000B0F87C0041F2012108436E49A1F87C00EC
:105430000846B0F87E0040F0F700A1F87E0008466C
:10544000B0F8800040F0F700A1F880000846B0F8FE
:10545000820040F0F700A1F882000846B0F884000E
:1054600042F2F30108435F49A1F884000846B0F80E
:10547000860042F2F30108435A49A1F88600084623
:10548000B0F8880042F2F30108435649A1F88800B9
:105490000846B0F88A0040F0BD00A1F88A0008462E
:1054A000B0F88C0040F0BD00A1F88C000846B0F8C0
:1054B0008E0040F0BD00A1F88E000846B0F89000C4
:1054C00040F0F900A1F890000846B0F8920040F0D2
:1054D000F900A1F892000846B0F8940040F0F900F5
:1054E000A1F894000846B0F8960041F20121084363
:1054F0003C49A1F896000846B0F8980041F2012115
:1055000008433849A1F898000846B0F89A0041F2DB
:10551000012108433349A1F89A0070473148B0F897
:105520007E0041F2012108432E49A1F87E00084681
:10553000B0F8800041F2012108432A49A1F8800017
:105540000846B0F8820041F2012108432549A1F83C
:1055500082000846B0F8840041F20921084321493D
:10556000A1F884000846B0F8860041F209210843FA
:105570001C49A1F886000846B0F8880041F20921CC
:1055800008431849A1F888000846B0F88A0040F29C
:10559000365108431349A1F88A000846B0F88C0038
:1055A00040F2365108430F49A1F88C000846B0F884
:1055B0008E0040F2365108430A49A1F88E00084691
:1055C000B0F8900010E0000030660020AC00002031
:1055D00014600020AA000020A8000020F46500202C
:1055E000923401086C66002040F0F900A1F89000A8
:1055F0000846B0F8920040F0F900A1F89200084681
:10560000B0F8940040F0F900A1F894007047FE480B
:10561000B0F8720041F20F210843FB49A1F8720073
:105620000846B0F8740041F20F210843F649A1F88A
:1056300074000846B0F8760041F20F210843F249A1
:10564000A1F876000846B0F8780041F20921084335
:10565000ED49A1F878000846B0F87A0041F2092136
:105660000843E949A1F87A000846B0F87C0041F205
:1056700009210843E449A1F87C000846B0F87E00FF
:1056800040F0ED00A1F87E000846B0F8800040F040
:10569000ED00A1F880000846B0F8820040F0ED006F
:1056A000A1F882000846B0F8840041F201210843C5
:1056B000D549A1F884000846B0F8860041F20121DE
:1056C0000843D149A1F886000846B0F8880041F2A5
:1056D00001210843CC49A1F888000846B0F88A00A7
:1056E00040F0F700A1F88A000846B0F88C0040F0BE
:1056F000F700A1F88C000846B0F88E0040F0F700E3
:10570000A1F88E000846B0F8900042F23611084326
:10571000BD49A1F890000846B0F8920042F2361157
:105720000843B949A1F892000846B0F8940042F243
:1057300036110843B449A1F894000846B0F8960021
:1057400040F03900A1F896000846B0F8980040F003
:105750003900A1F898000846B0F89A0040F03900E6
:10576000A1F89A000846B0F89C0040F0F900A1F8B2
:105770009C000846B0F89E0040F0F900A1F89E0099
:105780000846B0F8A00040F0F900A1F8A00070476A
:105790009D48B0F8720040F039009B49A1F87200B2
:1057A0000846B0F8740040F03900A1F874000846CB
:1057B000B0F8760040F03900A1F876000846B0F85D
:1057C000780040F0F700A1F878000846B0F87A00B9
:1057D00040F0F700A1F87A000846B0F87C0040F0ED
:1057E000F700A1F87C000846B0F87E0040F03800D1
:1057F000A1F87E000846B0F8800040F03800A1F81B
:1058000080000846B0F8820040F03800A1F882001D
:105810000846B0F8840040F03F00A1F88400084634
:10582000B0F8860040F03F00A1F886000846B0F8C6
:10583000880040F03F00A1F888000846B0F88A00D0
:1058400042F2F30108437049A1F88A000846B0F813
:105850008C0042F2F30108436B49A1F88C00084622
:10586000B0F88E0042F2F30108436749A1F88E00B8
:105870000846B0F8900041F2092108436249A1F8B6
:1058800090000846B0F8920041F2092108435E49B1
:10589000A1F892000846B0F8940041F209210843AB
:1058A0005949A1F894000846B0F8960040F0F90074
:1058B000A1F896000846B0F8980040F0F900A1F869
:1058C00098000846B0F89A0040F0F900A1F89A0054
:1058D0000846B0F89C0040F0ED00A1F89C00084696
:1058E000B0F89E0040F0ED00A1F89E000846B0F828
:1058F000A00040F0ED00A1F8A00070474248B0F8C9
:10590000780040F0ED004049A1F878000846B0F872
:105910007A0040F0ED00A1F87A000846B0F87C006B
:1059200040F0ED00A1F87C000846B0F87E0041F29E
:10593000012108433449A1F87E000846B0F88000F0
:1059400041F2012108433049A1F880000846B0F82F
:10595000820041F2012108432B49A1F88200084648
:10596000B0F8840042F2F30108432749A1F884000B
:105970000846B0F8860042F2F30108432249A1F834
:1059800086000846B0F8880042F2F30108431E4939
:10599000A1F888000846B0F88A0040F03F00A1F85E
:1059A0008A000846B0F88C0040F03F00A1F88C0057
:1059B0000846B0F88E0040F03F00A1F88E0008467F
:1059C000B0F8900042F2704108430F49A1F89000EE
:1059D0000846B0F8920042F2704108430A49A1F823
:1059E00092000846B0F8940042F27041084306491C
:1059F000A1F894000846B0F8960040F0F900A1F82C
:105A00009600084602E000006C660020B0F898009E
:105A100040F0F900A1F898000846B0F89A0040F06C
:105A2000F900A1F89A000846B0F89C0040F0ED009B
:105A3000A1F89C000846B0F89E0040F0ED00A1F8E7
:105A40009E000846B0F8A00040F0ED00A1F8A000CC
:105A50007047E8BBFE49B1F87E1041F0ED01FC4A09
:105A6000A2F87E101146B1F8801041F0ED01A2F8C5
:105A700080101146B1F8821041F0ED01A2F88210B9
:105A80001146B1F8841041F0F301A2F884101146D8
:105A9000B1F8861041F0F301A2F886101146B1F872
:105AA000881041F0F301A2F888101146B1F88A106D
:105AB00040F236521143E64AA2F88A101146B1F874
:105AC0008C1040F236521143E14AA2F88C1000E0EB
:105AD00009E01146B1F88E1040F236521143DC4A0B
:105AE000A2F88E10FFE0DA49B1F8721041F0ED0132
:105AF000D74AA2F872101146B1F8741041F0ED01C6
:105B0000A2F874101146B1F8761041F0ED01A2F838
:105B100076101146B1F8781041F0F301A2F8781030
:105B20001146B1F87A1041F0F301A2F87A1011464B
:105B3000B1F87C1041F0F301A2F87C101146B1F8E5
:105B40007E1040F236521143C14AA2F87E1011462F
:105B5000B1F8801040F236521143BD4AA2F88010CD
:105B60001146B1F8821040F236521143B84AA2F8F9
:105B7000821001285AD11146B1F88A1041F0ED0186
:105B8000A2F88A101146B1F88C1041F0ED01A2F88C
:105B90008C101146B1F88E1041F0ED01A2F88E1074
:105BA0001146B1F8901041F03801A2F8901011465A
:105BB000B1F8921041F03801A2F892101146B1F8F4
:105BC000941041F03801A2F894101146B1F89610E3
:105BD00041F03F01A2F896101146B1F8981041F03B
:105BE0003F01A2F898101146B1F89A1041F03F0118
:105BF000A2F89A101146B1F89C1042F636221143D1
:105C0000934AA2F89C101146B1F89E1042F6362233
:105C100011438F4AA2F89E101146B1F8A01042F627
:105C2000362211438A4AA2F8A0105CE002285AD119
:105C30008749B1F88A1041F0F101854AA2F88A102B
:105C40001146B1F88C1041F0F101A2F88C10114608
:105C5000B1F88E1041F0F101A2F88E101146B1F8A2
:105C6000901041F0F701A2F890101146B1F892108F
:105C700041F0F701A2F892101146B1F8941041F0EA
:105C8000F701A2F894101146B1F8961041F0ED0119
:105C9000A2F896101146B1F8981041F0ED01A2F863
:105CA00098101146B1F89A1041F0ED01A2F89A103F
:105CB0001146B1F89C1041F201221143644AA2F846
:105CC0009C101146B1F89E1041F201221143604A26
:105CD000A2F89E101146B1F8A01041F20122114322
:105CE0005B4AA2F8A010704700B50346002B7DD197
:105CF0005748B0F8780041F2092108435449A1F807
:105D000078000846B0F87A0041F20921084350496A
:105D1000A1F87A000846B0F87C0041F20921084356
:105D20004B49A1F87C000846B0F87E0042F23611DB
:105D300008434749A1F87E000846B0F8800042F2C7
:105D4000361108434249A1F880000846B0F88200A5
:105D500042F2361108433E49A1F882000846B0F8E5
:105D6000840041F2012108433949A1F88400084622
:105D7000B0F8860041F2012108433549A1F88600B8
:105D80000846B0F8880041F2012108433049A1F8E3
:105D900088000846B0F88A0040F0F900A1F88A00AF
:105DA0000846B0F88C0040F0F900A1F88C000846D5
:105DB000B0F88E0040F0F900A1F88E000846B0F867
:105DC000900042F2F30108432149A1F890000846EF
:105DD000B0F8920042F2F30108431D49A1F8920085
:105DE0000846B0F8940042F2F30100E047E00843AF
:105DF0001749A1F894000846B0F8960040F44360B3
:105E0000A1F896000846B0F8980040F44360A1F865
:105E100098000846B0F89A0040F44360A1F89A0050
:105E20000846B0F89C0040F0F700A1F89C00084636
:105E3000B0F89E0040F0F700A1F89E000846B0F8C8
:105E4000A00040F0F700A1F8A000084602E0000022
:105E50006C660020B0F8A20040F03800A1F8A20063
:105E60000846B0F8A40040F03800A1F8A4000846A5
:105E7000B0F8A60040F03800A1F8A60030E1FE48D6
:105E8000B0F8660041F209210843FB49A1F8660019
:105E90000846B0F8680041F209210843F649A1F824
:105EA00068000846B0F86A0041F209210843F24947
:105EB000A1F86A000846B0F86C0042F236110843B7
:105EC000ED49A1F86C000846B0F86E0042F23611B8
:105ED0000843E949A1F86E000846B0F8700042F2A4
:105EE00036110843E449A1F870000846B0F8720082
:105EF00041F201210843E049A1F872000846B0F8D8
:105F0000740041F201210843DB49A1F874000846FE
:105F1000B0F8760041F201210843D749A1F8760094
:105F20000846B0F8780040F0F900A1F8780008467B
:105F3000B0F87A0040F0F900A1F87A000846B0F80D
:105F40007C0040F0F900A1F87C000846B0F87E0023
:105F500042F2F3010843C849A1F87E000846B0F8B0
:105F6000800042F2F3010843C349A1F880000846CB
:105F7000B0F8820042F2F3010843BF49A1F8820061
:105F80000846B0F8840040F44360A1F88400084655
:105F9000B0F8860040F44360A1F886000846B0F8E7
:105FA000880040F44360A1F888000846B0F88A00F1
:105FB00040F0F700A1F88A000846B0F88C0040F0E5
:105FC000F700A1F88C000846B0F88E0040F0F7000A
:105FD000A1F88E000846B0F8900040F03800A1F813
:105FE00090000846B0F8920040F03800A1F8920006
:105FF0000846B0F8940040F03800A1F89400002B57
:1060000027DD052B25DA1846FEF7EBF89A48B0F89D
:106010009C009A4909789A4A32F811100843964927
:10602000A1F89C000846B0F89E009449097832F81F
:10603000111008439049A1F89E000846B0F8A0004E
:106040008E49097832F8111008438B49A1F8A00055
:1060500046E0052B44D18848B0F89C0041F201216C
:1060600008438549A1F89C000846B0F89E0041F21B
:10607000012108438049A1F89E000846B0F8A0001D
:1060800041F2012108437C49A1F8A0000846B0F87C
:10609000A20040F0F700A1F8A2000846B0F8A40062
:1060A00040F0F700A1F8A4000846B0F8A60040F0C0
:1060B000F700A1F8A6000846B0F8A80040F0BD001F
:1060C000A1F8A8000846B0F8AA0040F0BD00A1F869
:1060D000AA000846B0F8AC0040F0BD00A1F8AC0042
:1060E00000BD6548B0F8660041F28F21084362495F
:1060F000A1F866000846B0F8680041F28F21084315
:106100005D49A1F868000846B0F86A0041F28F21A5
:1061100008435949A1F86A000846B0F86C0041F2FA
:10612000012108435449A1F86C000846B0F86E00FC
:1061300041F2012108435049A1F86E000846B0F829
:10614000700041F2012108434B49A1F870007047EB
:1061500030B503460C4615461846FEF742F842F2A3
:106160001070834221DB4448B0F866004349097946
:10617000434A32F8111008433F49A1F86600084627
:10618000B0F868003D49097932F8111008433A49DE
:10619000A1F868000846B0F86A003849097932F871
:1061A000111008433449A1F86A00B3F57A7F21DB66
:1061B0003148B0F86C003149C978314A32F81110D1
:1061C00008432D49A1F86C000846B0F86E002B4931
:1061D000C97832F8111008432749A1F86E00084623
:1061E000B0F870002549C97832F8111008432249E7
:1061F000A1F87000642B21DB1F48B0F872001F4922
:1062000089781F4A32F8111008431B49A1F872001F
:106210000846B0F874001949897832F8111008431B
:106220001549A1F874000846B0F87600134989783A
:1062300032F8111008431049A1F876000A2B28DB28
:106240000D48B0F878000D4949780D4A32F8111020
:1062500008430949A1F878000846B0F87A000749D0
:10626000497832F8111008430349A1F87A0008462A
:10627000B0F87C00014905E06C66002006000020B3
:106280002E340108497832F811100843FE49A1F86C
:106290007C00FD48B0F87E00FC490978FC4A32F8E1
:1062A00011100843F849A1F87E000846B0F88000B4
:1062B000F649097832F811100843F349A1F8800033
:1062C0000846B0F88200F149097832F81110084305
:1062D000ED49A1F882000846B0F8840040F0C00003
:1062E000A1F884000846B0F8860040F0C000A1F88C
:1062F00086000846B0F8880040F0C000A1F8880089
:106300002046FDF76EFF642C64DBDF48B0F88A009E
:10631000DE498978DE4A32F811100843DA49A1F8DB
:106320008A000846B0F88C00D849897832F81110F4
:106330000843D549A1F88C000846B0F88E00D3492F
:10634000897832F811100843CF49A1F88E00084629
:10635000B0F89000CD49497832F811100843CA4985
:10636000A1F890000846B0F89200C849497832F880
:1063700011100843C449A1F892000846B0F89400EF
:10638000C249497832F811100843BF49A1F8940076
:106390000846B0F89600BD49097832F81110084354
:1063A000B949A1F896000846B0F89800B7490978AD
:1063B00032F811100843B449A1F898000846B0F823
:1063C0009A00B249097832F811100843AE49A1F891
:1063D0009A0067E00A2C43DBAB48B0F88A00AB496F
:1063E0004978AB4A32F811100843A749A1F88A004E
:1063F0000846B0F88C00A549497832F811100843D6
:10640000A149A1F88C000846B0F88E009F49497850
:1064100032F8111008439C49A1F88E000846B0F8E4
:1064200090009A49097832F8111008439649A1F86A
:1064300090000846B0F892009449097832F811109B
:1064400008439149A1F892000846B0F894008F499A
:10645000097832F8111008438B49A1F8940021E023
:106460008948B0F88A0089490978894A32F81110B8
:1064700008438549A1F88A000846B0F88C00834992
:10648000097832F8111008437F49A1F88C000846BA
:10649000B0F88E007D49097832F8111008437A4926
:1064A000A1F88E002846FDF79CFE0A2D21DB7648D8
:1064B000B0F8A20075494978754A32F811100843BE
:1064C0007149A1F8A2000846B0F8A4006F494978C4
:1064D00032F8111008436C49A1F8A4000846B0F83E
:1064E000A6006A49497832F8111008436649A1F8B4
:1064F000A6006548B0F8A80064490978644A32F8F3
:10650000111008436049A1F8A8000846B0F8AA0095
:106510005E49097832F8111008435B49A1F8AA00D6
:106520000846B0F8AC005949097832F81110084310
:106530005549A1F8AC0030BD00B503465248B0F84B
:10654000660042F2361108434F49A1F8660008463A
:10655000B0F8680042F2361108434B49A1F86800D0
:106560000846B0F86A0042F2361108434649A1F8DD
:106570006A000846B0F86C0040F03F00A1F86C00DB
:106580000846B0F86E0040F03F00A1F86E000846E3
:10659000B0F8700040F03F00A1F870001846FDF719
:1065A00020FE3948B0F8780038494978384A32F83E
:1065B000111008433449A1F878000846B0F87A0071
:1065C0003249497832F8111008432F49A1F87A006E
:1065D0000846B0F87C002D49497832F8111008437C
:1065E0002949A1F87C000846B0F87E0027490978BF
:1065F00032F8111008432449A1F87E000846B0F88B
:1066000080002249097832F8111008431E49A1F888
:1066100080000846B0F882001C49097832F8111051
:1066200008431949A1F8820000BD1748B0F8780066
:1066300040F0F3001449A1F878000846B0F87A0059
:1066400040F0F300A1F87A000846B0F87C0040F072
:10665000F300A1F87C000846B0F87E0040F0F70097
:10666000A1F87E000846B0F8800040F0F700A1F8DD
:1066700080000846B0F8820040F0F700A1F88200E0
:106680000846B0F8840005E06C6600200600002093
:106690002E34010840F03E00A1F884000846B0F80E
:1066A000860040F03E00A1F886000846B0F8880059
:1066B00040F03E00A1F888000846B0F88A0040F09B
:1066C000ED00A1F88A000846B0F88C0040F0ED001B
:1066D000A1F88C000846B0F88E0040F0ED00A1F85B
:1066E0008E000846B0F8900040F0F900A1F8900044
:1066F0000846B0F8920040F0F900A1F89200084670
:10670000B0F8940040F0F900A1F894007047FE48FA
:10671000B0F8780040F0ED00FB49A1F87800084699
:10672000B0F87A0040F0ED00A1F87A000846B0F821
:106730007C0040F0ED00A1F87C000846B0F87E0037
:1067400041F201210843F049A1F87E000846B0F863
:10675000800041F201210843EB49A1F8800008467E
:10676000B0F8820041F201210843E749A1F8820014
:106770000846B0F8840040F03F00A1F884000846C5
:10678000B0F8860040F03F00A1F886000846B0F857
:10679000880040F03F00A1F888000846B0F88A0061
:1067A00040F0F300A1F88A000846B0F88C0040F0F1
:1067B000F300A1F88C000846B0F88E0040F0F3001A
:1067C000A1F88E0070470020EEE0014600EBD17288
:1067D0005210A0EB4202002A7AD1CB4911F81010D6
:1067E00001F0800149B1C0F11001C84A515C41F08B
:1067F0001001C0F11002C54B9954C34911F8101093
:1068000001F0010139B1C0F11001C04A515CC0F181
:106810001002BE4B9954BC4911F8101001F002014E
:1068200039B1C0F11001B94A515CC0F11002B74B47
:106830009954B54911F8101001F0040139B1C0F1B3
:106840001001B24A515CC0F11002B04B9954AE49EC
:1068500011F8101001F0080139B1C0F11001AB4A74
:10686000515CC0F11002A94B9954A74911F81010BE
:1068700001F0100149B1C0F11001A44A515C41F08E
:106880002001C0F11002A14B99549F4911F810103A
:1068900001F0200149B1C0F110019C4A515C41F066
:1068A0008001C0F11002994B9954974911F81010CA
:1068B00001F04001002975D0C0F11001934A515CEC
:1068C00041F04001C0F11002904B99546AE0FFE79B
:1068D0008D4911F8101001F0010149B1C0F110010A
:1068E0008A4A515C41F08001C0F11002874B9954F3
:1068F000854911F8101001F0020149B1C0F11001F1
:10690000824A515C41F04001C0F110027F4B995422
:106910007D4911F8101001F0040149B1C0F11001D6
:106920007A4A515C41F02001C0F11002774B995432
:10693000754911F8101001F0080149B1C0F11001BA
:10694000724A515C41F01001C0F110026F4B995432
:106950006D4911F8101001F0100139B1C0F11001AA
:106960006A4A515CC0F11002684B9954664911F8AB
:10697000101001F0200139B1C0F11001634A515CDF
:10698000C0F11002614B99545F4911F8101001F0E9
:10699000400139B1C0F110015C4A515CC0F11002F4
:1069A0005A4B9954411CC8B20828FFF60EAF082074
:1069B000F4E0014600EBD1725210A0EB4202002A33
:1069C0007AD1514911F8101001F0800149B1C0F19C
:1069D0000F014E4A515C41F01001C0F10F024B4BC8
:1069E0009954494911F8101001F0010139B1C0F171
:1069F0000F01464A515CC0F10F02444B9954424981
:106A000011F8101001F0020139B1C0F10F013F4A35
:106A1000515CC0F10F023D4B99543B4911F81010E5
:106A200001F0040139B1C0F10F01384A515CC0F1E5
:106A30000F02364B9954344911F8101001F0080137
:106A400039B1C0F10F01314A515CC0F10F022F4B37
:106A500099542D4911F8101001F0100149B1C0F1FD
:106A60000F012A4A515C41F02001C0F10F02274B6F
:106A70009954254911F8101001F0200149B1C0F1D5
:106A80000F01224A515C41F08001C0F10F021F4BFF
:106A900099541D4911F8101001F0400100297BD0D4
:106AA000C0F10F01194A515C41F04001C0F10F02E1
:106AB000164B995470E0FFE7134911F8101001F0DC
:106AC000010149B1C0F10F01104A515C41F0800150
:106AD000C0F10F020D4B99540B4911F8101001F041
:106AE000020149B1C0F10F01084A515C41F0400177
:106AF000C0F10F02054B9954034911F8101001F031
:106B0000040179B104E000006C660020F465002007
:106B1000C0F10F01FE4A515C41F02001C0F10F02AB
:106B2000FB4B9954FB4911F8101001F0080149B1D1
:106B3000C0F10F01F64A515C41F01001C0F10F02A3
:106B4000F34B9954F34911F8101001F0100139B1C9
:106B5000C0F10F01EE4A515CC0F10F02EC4B9954A9
:106B6000EC4911F8101001F0200139B1C0F10F010A
:106B7000E74A515CC0F10F02E54B9954E54911F821
:106B8000101001F0400139B1C0F10F01E04A515C31
:106B9000C0F10F02DE4B9954411CC8B21028FFF619
:106BA00008AF102095E0102847D1DA4911F81010ED
:106BB00001F0010119B1D649C97BD54AD173D54934
:106BC00011F8101001F0020129B1D149C97B41F03F
:106BD0000101CF4AD173CF4911F8101001F004011F
:106BE00019B1CB49C97BCA4AD173CA4911F81010EF
:106BF00001F0080119B1C649C97BC54AD173C5491D
:106C000011F8101001F0100119B1C149C97BC04A37
:106C1000D173C04911F8101001F0200119B1BC491D
:106C2000C97BBB4AD173BB4911F8101001F0400178
:106C300019B1B749C97BB64AD173112847D1B549B3
:106C400011F8101001F0010119B1B149097CB04AE5
:106C50001174B04911F8101001F0020119B1AC49DA
:106C6000097CAB4A1174AB4911F8101001F0040112
:106C700029B1A749097C41F00101A54A1174A54930
:106C800011F8101001F0080119B1A149097CA04ABE
:106C90001174A04911F8101001F0100119B19C49AC
:106CA000097C9B4A11749B4911F8101001F02001D6
:106CB00019B19749097C964A1174964911F8101038
:106CC00001F0400119B19249097C914A1174411CAB
:106CD000C8B21228FFF667AF122061E116286BD107
:106CE0008C4911F8101001F0010149B1C0F12201E5
:106CF000874A515C41F00801C0F12202844B99544B
:106D0000844911F8101001F0020139B1C0F12201DB
:106D10007F4A515CC0F122027D4B99547D4911F8A4
:106D2000101001F0040139B1C0F12201784A515C20
:106D3000C0F12202764B9954764911F8101001F0F7
:106D4000080149B1C0F12201714A515C41F00101D1
:106D5000C0F122026E4B99546E4911F8101001F0E7
:106D6000100149B1C0F12201694A515C41F00201B0
:106D7000C0F12202664B9954664911F8101001F0D7
:106D8000200149B1C0F12201614A515C41F0040186
:106D9000C0F122025E4B99545E4911F8101001F0C7
:106DA0004001002907D0C0F12201594A515CC0F1CD
:106DB0002202574B9954F1E0014600EBD172521078
:106DC000A0EB4202EABB534911F8101001F0800118
:106DD00049B1C0F122014E4A515C41F00101C0F1BC
:106DE00022024B4B99544B4911F8101001F001014C
:106DF00049B1C0F12201464A515C41F01001C0F195
:106E00002202434B9954434911F8101001F002013A
:106E100039B1C0F122013E4A515CC0F122023C4B23
:106E200099543C4911F8101001F0040139B1C0F136
:106E30002201374A515CC0F12202354B9954354941
:106E400000E03DE011F8101001F0080149B1C0F177
:106E500022012F4A515C41F00201C0F122022C4B69
:106E600099542C4911F8101001F0100149B1C0F1EA
:106E70002201274A515C41F00401C0F12202244B57
:106E80009954244911F8101001F0200149B1C0F1C2
:106E900022011F4A515C41F00801C0F122021C4B43
:106EA00099541C4911F8101001F04001A1B3C0F130
:106EB0002201174A515CC0F12202154B99546DE032
:106EC000144911F8101001F0010139B1C0F122018B
:106ED0000F4A515CC0F122020D4B99540D4911F833
:106EE000101001F0020149B1C0F12201084A515CC1
:106EF00041F00801C0F12202054B9954054911F8EF
:106F0000101001F0040179B1C0F12201004A04E03F
:106F1000F46500206C66002040E0515C41F0020105
:106F2000C0F12202FE4B9954FE4911F8101001F0F5
:106F3000080139B1C0F12201F94A515CC0F12202C5
:106F4000F74B9954F74911F8101001F0100139B1BD
:106F5000C0F12201F24A515CC0F12202F04B995477
:106F6000F04911F8101001F0200139B1C0F12201EF
:106F7000EB4A515CC0F12202E94B9954E94911F8FE
:106F8000101001F0400149B1C0F12201E44A515C06
:106F900041F00401C0F12202E14B9954411CC8B2F6
:106FA0001A28FFF69BAE55D1DE4911F8101001F0FA
:106FB000800129B1DA49097A41F00101D84A1172F8
:106FC000D84911F8101001F0010119B1D449097A1A
:106FD000D34A1172D34911F8101001F0020129B1FE
:106FE000CF49097A41F00801CD4A1172CD4911F813
:106FF000101001F0040129B1C949097A41F00201D8
:10700000C74A1172C74911F8101001F0080119B1EF
:10701000C349097AC24A1172C24911F8101001F02D
:10702000100119B1BE49097ABD4A1172BD4911F862
:10703000101001F0200119B1B949097AB84A11724A
:10704000B84911F8101001F0400119B1B449097A9A
:10705000B34A11721B205DE11F286BD1B14911F8B1
:10706000101001F0010149B1C0F12201AC4A515C9C
:1070700041F00801C0F12202A94B9954A94911F825
:10708000101001F0020139B1C0F12201A44A515C93
:10709000C0F12202A24B9954A24911F8101001F03C
:1070A000040139B1C0F122019D4A515CC0F12202B4
:1070B0009B4B99549B4911F8101001F0080149B1FC
:1070C000C0F12201964A515C41F00101C0F1220257
:1070D000934B9954934911F8101001F0100149B1E4
:1070E000C0F122018E4A515C41F00201C0F122023E
:1070F0008B4B99548B4911F8101001F0200149B1C4
:10710000C0F12201864A515C41F00401C0F1220223
:10711000834B9954834911F8101001F04001002964
:1071200007D0C0F122017E4A515CC0F122027C4BA3
:107130009954EDE0014600EBD1725210A0EB4202EF
:10714000F2BB784911F8101001F0800149B1C0F18B
:107150002201734A515C41F00101C0F12202704BDF
:107160009954704911F8101001F0010139B1C0F1C2
:1071700022016B4A515CC0F12202694B9954694962
:1071800011F8101001F0020149B1C0F12201644A66
:10719000515C41F00801C0F12202614B99546149F0
:1071A00011F8101001F0040149B1C0F122015C4A4C
:1071B000515C41F00201C0F12202594B995400E0A8
:1071C0003AE0584911F8101001F0080139B1C0F146
:1071D0002201534A515CC0F12202514B995451494A
:1071E00011F8101001F0100139B1C0F122014C4A20
:1071F000515CC0F122024A4B99544A4911F81010CF
:1072000001F0200139B1C0F12201454A515CC0F1C1
:107210002202434B9954434911F8101001F04001E8
:10722000E9B3C0F122013E4A515C41F00401C0F1D2
:1072300022023B4B99546BE03A4911F8101001F0CF
:10724000010149B1C0F12201354A515C41F0100100
:10725000C0F12202324B9954324911F8101001F05A
:10726000020139B1C0F122012D4A515CC0F1220264
:107270002B4B99542B4911F8101001F0040139B12E
:10728000C0F12201264A515CC0F12202244B9954DC
:10729000244911F8101001F0080159B100E037E05D
:1072A000C0F122011E4A515C41F00201C0F12202EC
:1072B0001B4B99541B4911F8101001F0100149B1F2
:1072C000C0F12201164A515C41F00401C0F12202D2
:1072D000134B9954134911F8101001F0200149B1D2
:1072E000C0F122010E4A515C41F00801C0F12202B6
:1072F0000B4B99540B4911F8101001F0400139B1B2
:10730000C0F12201064A515CC0F12202044B99549B
:10731000411CC8B22328FFF69FAE232086E0000060
:10732000F46500206C660020FE4911F8101001F091
:10733000800149B1C0F15E01FB4A515C41F080011E
:10734000C0F15E02F84B9954F64911F8101001F0A3
:10735000010149B1C0F15E01F34A515C41F0010104
:10736000C0F15E02F04B9954EE4911F8101001F093
:10737000020149B1C0F15E01EB4A515C41F00201EA
:10738000C0F15E02E84B9954E64911F8101001F083
:10739000040149B1C0F15E01E34A515C41F01001C2
:1073A000C0F15E02E04B9954DE4911F8101001F073
:1073B000080149B1C0F15E01DB4A515C41F0400176
:1073C000C0F15E02D84B9954D64911F8101001F063
:1073D000100149B1C0F15E01D34A515C41F0200176
:1073E000C0F15E02D04B9954CE4911F8101001F053
:1073F000200149B1C0F15E01CB4A515C41F004016A
:10740000C0F15E02C84B9954C64911F8101001F042
:10741000400149B1C0F15E01C34A515C41F008012D
:10742000C0F15E02C04B9954411CC8B22728FFF638
:107430007BAF272081E0BB4911F8101001F08001DB
:1074400049B1C0F15E01B84A515C41F08001C0F120
:107450005E02B54B9954B34911F8101001F00101C7
:1074600049B1C0F15E01B04A515C41F00101C0F187
:107470005E02AD4B9954AB4911F8101001F00201B6
:1074800049B1C0F15E01A84A515C41F00201C0F16E
:107490005E02A54B9954A34911F8101001F00401A4
:1074A00049B1C0F15E01A04A515C41F01001C0F148
:1074B0005E029D4B99549B4911F8101001F0080190
:1074C00049B1C0F15E01984A515C41F04001C0F100
:1074D0005E02954B9954934911F8101001F0100178
:1074E00049B1C0F15E01904A515C41F02001C0F108
:1074F0005E028D4B99548B4911F8101001F0200158
:1075000049B1C0F15E01884A515C41F00401C0F10B
:107510005E02854B9954834911F8101001F0400127
:1075200049B1C0F15E01804A515C41F00801C0F1EF
:107530005E027D4B9954411CC8B22B28FFF67BAFED
:107540002B20D5E02B281BD1764911F8101001F023
:10755000010139B1754991F82F1041F00101734AC9
:1075600082F82F106F4911F8101001F0200139B185
:107570006E4991F82F1041F002016C4A82F82F10E9
:107580002C281BD1674911F8101001F0020139B104
:10759000664991F8301041F00101644A82F83010D8
:1075A000604911F8101001F0400139B15F4991F8BC
:1075B000301041F002015D4A82F830102D281BD1B5
:1075C000584911F8101001F0040139B1574991F8E8
:1075D000311041F00101554A82F83110514911F83A
:1075E000101001F0100139B1504991F8311041F0FB
:1075F00002014E4A82F831102E280DD1494911F866
:10760000101001F0080139B1484991F82B1041F0F0
:107610000101464A82F82B102F281BD1414911F84D
:10762000101001F0010139B1404991F82E1041F0DC
:1076300001013E4A82F82E103A4911F8101001F06B
:10764000020139B1394991F82E1041F00201374A4F
:1076500082F82E1030281BD1324911F8101001F099
:10766000200139B1314991F82D1041F001012F4A23
:1076700082F82D102B4911F8101001F0400139B19A
:107680002A4991F82D1041F00201284A82F82D1064
:1076900031281BD1234911F8101001F0040139B130
:1076A000224991F82C1041F00201204A82F82C1056
:1076B0001C4911F8101001F0100139B11B4991F863
:1076C0002C1041F00101194A82F82C1032280DD1FA
:1076D000144911F8101001F0080139B1134991F85B
:1076E0002B1041F00201114A82F82B10411CC8B244
:1076F0003328FFF627AF3320F6E3332805D03C28A4
:1077000003D0452801D04E287DD1064911F810102C
:1077100001F00101C1B1A0F13301054A32F81110A5
:10772000014A07E06C66002030660020F465002006
:107730009E340108515C41F00102A0F13301FE4B7F
:1077400033F81110FD4B5A54FD4911F8101001F097
:10775000100179B1A0F13301F74A32F81110F74A5C
:10776000515C41F02002A0F13301F34B33F81110CA
:10777000F24B5A54F24911F8101001F0200179B17E
:10778000A0F13301EC4A32F81110EC4A515C41F09F
:107790000202A0F13301E84B33F81110E74B5A54C1
:1077A000E74931F8101001F4807179B1A0F133018B
:1077B000E14A32F81110E14A515C41F00402A0F1B3
:1077C0003301DD4B33F81110DC4B5A54DC4911F80E
:1077D000101001F0400179B1A0F13301D64A32F81E
:1077E0001110D64A515C41F00802A0F13301D24B8E
:1077F00033F81110D14B5A54D14931F8101001F41B
:10780000006101B100E00FE0A0F13301CA4A32F893
:107810001110CA4A515C41F01002A0F13301C64B6D
:1078200033F81110C54B5A54342805D03D2803D0E5
:10783000462801D04F287DD1C14911F8101001F020
:10784000080179B1A0F13301BB4A32F81110BB4AEB
:10785000515C41F02002A0F13301B74B33F8111015
:10786000B64B5A54B64931F8101001F4007179B191
:10787000A0F13301B04A32F81110B04A515C41F026
:107880000202A0F13301AC4B33F81110AB4B5A5448
:10789000AB4931F8101001F4806179B1A0F13301E6
:1078A000A54A32F81110A54A515C41F00102A0F13D
:1078B0003301A14B33F81110A04B5A54A04911F8D1
:1078C000101001F0800179B1A0F133019A4A32F829
:1078D00011109A4A515C41F00402A0F13301964B19
:1078E00033F81110954B5A54954931F8101001F4A2
:1078F000805179B1A0F133018F4A32F811108F4ACB
:10790000515C41F01002A0F133018B4B33F81110A0
:107910008A4B5A548A4931F8101001F4005149B188
:10792000A0F13301844A32F81110844A515C41F0CD
:10793000080200E006E0A0F133017F4B33F811109C
:107940007E4B5A54352805D03E2803D0472801D015
:1079500050282BD17A4911F8101001F0020179B1A9
:10796000A0F13301744A32F81110744A515C41F0AD
:107970000102A0F13301704B33F811106F4B5A54D0
:107980006F4911F8101001F0040179B1A0F1330131
:10799000694A32F81110694A515C41F00802A0F1BD
:1079A0003301654B33F81110644B5A54362805D017
:1079B0003F2803D0482801D0512857D1604911F8F9
:1079C000101001F0100179B1A0F133015A4A32F8D8
:1079D00011105A4A515C41F01002A0F13301564B8C
:1079E00033F81110554B5A54554911F8101001F045
:1079F000200179B1A0F133014F4A32F811104F4AFA
:107A0000515C41F00202A0F133014B4B33F81110ED
:107A10004A4B5A544A4911F8101001F0400179B10B
:107A2000A0F13301444A32F81110444A515C41F04C
:107A30000402A0F13301404B33F811103F4B5A546C
:107A40003F4931F8101001F4006179B1A0F1330120
:107A5000394A32F81110394A515C41F02002A0F144
:107A60003301354B33F81110344B5A54372805D0B5
:107A7000402803D0492801D052287DD1304911F83F
:107A8000101001F0080179B1A0F133012A4A32F84F
:107A900011102A4A515C41F02002A0F13301264B1B
:107AA00033F81110254B5A54254931F8101001F4C0
:107AB000807179B1A0F133011F4A32F811101F4AC9
:107AC000515C41F00102A0F133011B4B33F811105E
:107AD0001A4B5A541A4931F8101001F4007179B157
