:020000040800F2
:10200000A87C0020B5E40008BDE400088BE10008CE
:102010008FE1000893E1000897E10008000000004C
:10202000000000000000000000000000C7E40008FD
:10203000C9E4000800000000CBE40008CDE400087B
:10204000CFE40008CFE40008CFE40008CFE40008A4
:10205000CFE40008CFE40008CFE40008CFE4000894
:10206000CFE4000861E10008CFE40008CFE40008F5
:10207000CFE40008CFE40008CFE40008CFE4000874
:10208000CFE40008CFE40008CFE40008CFE4000864
:10209000CFE40008CFE40008CFE40008CFE4000854
:1020A000CFE40008C1D70008CFE40008CFE400085F
:1020B000CFE40008CFE40008CFE40008CFE4000834
:1020C000CFE40008CFE40008CFE40008CFE4000824
:1020D000CFE40008CFE40008CFE40008CFE4000814
:1020E000CFE40008CFE40008CFE40008CFE4000804
:1020F000CFE40008CFE40008CFE40008CFE40008F4
:10210000CFE4000819D30008CFE40008CFE40008AA
:10211000CFE40008CFE40008CFE40008CFE40008D3
:10212000CFE40008CFE40008CFE40008000000007E
:10213000CFE40008CFE40008CFE40008CFE40008B3
:10214000CFE40008CFE4000800F002F800F06AF8DD
:102150000AA090E8000C82448344AAF10107DA4502
:1021600001D100F05FF8AFF2090EBAE80F0013F0EA
:10217000010F18BFFB1A43F0010318477414010044
:10218000B41401000A444FF0000C10F8013B13F0A6
:10219000070408BF10F8014B1D1108BF10F8015BC0
:1021A000641E05D010F8016B641E01F8016BF9D1B3
:1021B00013F0080F1EBF10F8014BAD1C0C1B09D10A
:1021C0006D1E58BF01F801CBFAD505E014F8016B7C
:1021D00001F8016B6D1EF9D59142D6D3704700000E
:1021E000103A24BF78C878C1FAD8520724BF30C843
:1021F00030C144BF04680C60704700000023002415
:1022000000250026103A28BF78C1FBD8520728BF06
:1022100030C148BF0B6070471FB511F060F81FBD9B
:1022200010B510BD0FF0B2FA1146FFF7F5FF00F040
:102230004FFA0FF0D0FA03B4FFF7F2FF03BC0FF030
:10224000D3FA00002DE9FF4104460D4616461F460D
:10225000F848844204D1012104200EF01DFA16E052
:10226000F548844204D1012108200EF015FA0EE051
:10227000F248844204D1012110200EF00DFA06E04C
:10228000EF48844203D1012120200EF005FAB5F574
:10229000803F0EDA68460DF03EFCADF8005002209B
:1022A0008DF802008DF804600297694620460DF013
:1022B00040FBBDE8FF8110B501231A469902DD48B5
:1022C000FFF7C0FF01231A465902DA48FFF7BAFFA9
:1022D00001231A461903D748FFF7B4FF01231A4612
:1022E000D902D448FFF7AEFF01231A462021D24875
:1022F000FFF7A8FF002301222021CE48FFF7A2FF0D
:10230000002301224021CB48FFF79CFF002301223C
:102310008021C848FFF796FF002301221146C648D6
:10232000FFF790FF002301220221C348FFF78AFF35
:10233000002301221102BF48FFF784FF10BD10B532
:102340000DF0F9FC10BD10B545F255500DF0EAFC4A
:1023500003200DF0EAFCBB480068C0F3CF100DF07D
:10236000E7FC0DF0E8FC0DF0EBFC10BD08B54FF4F8
:10237000A0600DF069FF0121C8020EF08DF919204F
:102380008DF8000000208DF8010001208DF802007A
:102390008DF8030068460CF0B2F80020AA490880C6
:1023A000AA480EF025FE40F21B20A8498880002094
:1023B0000880C8804880A6480EF06EFA0122A24824
:1023C0000188A3480EF0F2FE01221146A0480EF04B
:1023D00061FE01219E480EF043FE08BD10B5044683
:1023E000082C28D0102C19D0182C28D1012108072E
:1023F0000DF0EAFF9748006840F480709549086046
:10240000282101200EF04AF800BF41200DF025FEE2
:102410000028FAD018200EF000F814E001200DF08A
:1024200054FE00BF21200DF018FE0028FAD0102025
:102430000DF0F3FF07E008200DF0EFFF03E00020B0
:102440000DF0EBFF00BF00BF012180200DF090FFD9
:1024500010BD00B585B04FF4E0600CF04BF83120B2
:102460008DF8000000208DF8010001208DF8020099
:102470008DF8030068460CF042F8012104200EF0AC
:102480000BF901A80DF047FB0220ADF80400039002
:102490000620049001A967480DF04BFA0120ADF821
:1024A00004008DF808000620049001A961480DF091
:1024B00040FA1020FFF792FF0DF054FC66480DF033
:1024C000D8FC4FF4165064490860082088808001C9
:1024D0000881002048810220C88008460DF057FC82
:1024E00001214FF4A4600DF0EFFC01214FF4817045
:1024F0000DF0EAFC594908780DF02DFD05B000BD3E
:102500001FB5012104200EF0C7F8012108030EF0C9
:10251000B6F8072100200CF08BFB4FF4E0410020BF
:102520000DF0C5FE68460DF0F6FA1420ADF8000077
:102530000320029069463F480DF0FBF948480CF033
:1025400047F848480CF081F8002046490870487068
:102550004FF46020486000208860012008734048E4
:102560000CF044F801213E480CF077F800BF202120
:102570003B480CF037FB0028F9D039480CF0A9F89B
:1025800000BF37480CF0B3F80028FAD11FBD00B5E2
:1025900087B0012105200EF07FF803A80DF0BBFAEB
:1025A0000820ADF80C0000208DF81000059003A95C
:1025B00020480DF0BEF9032100200DF051FB08204A
:1025C000019000208DF8080008208DF809000120F6
:1025D0008DF80A0001A80CF070FB09208DF80000AE
:1025E00005208DF801000F208DF8020001208DF8E4
:1025F000030068460BF083FF07B000BD10B54FF431
:10260000C8701949088001201849087001F036FB8C
:1026100000201749087001201649087001F058FC85
:1026200000201549087010BD10B514481449086001
:10263000002429E000080140000C01400010014086
:10264000001401400460002000600020DC00002035
:10265000002C014000700040280100202F0B0020BA
:1026600000080240EC0000202660002028600020C6
:102670003C6000203D6000205460002000200008E5
:1026800008ED00E0601C84B24EF660208442F9DB65
:10269000002401E0601C84B24EF660208442F9DB25
:1026A000002401E0601C84B24EF660208442F9DB15
:1026B000FFF701FEFFF75AFEFFF7CBFEFFF720FF03
:1026C000FFF765FFFFF73FFEFFF798FF10BD000023
:1026D000FFF7AAFF1EE0FFF732FE05F049FC0BF002
:1026E0002EFD05F045FC09F0C3FE05F041FC01F0AC
:1026F00094F905F03DFC05F03BFC00F05FF800F0BC
:102700002EF800BF04480088B0F5F97FFADD0020FC
:1027100001490880DFE70000FC60002070B5044636
:102720000523012221461D480CF01AF801211B48FF
:102730000BF0EAFF00BF202118480CF097F90028A1
:10274000F9D0202115480CF0B8F9102113480CF0ED
:10275000B4F912480CF072F80546284670BD10B561
:102760000A210F480AF050FF0520FFF7D7FF0C4958
:10277000088008460AF056FF0A4908800A210A48DC
:102780000AF042FF0320FFF7C9FF07490880084607
:102790000AF048FF0549088010BD0000000802400B
:1027A000B403002000000020C80300200200002025
:1027B000304908700121304A117070472E48007866
:1027C000E0B100202C4908702A48007800EB400056
:1027D0002A49085C2A4908702648007800EB400026
:1027E000264908444078274908702248007800EBC1
:1027F0004000224908448078234908702048007826
:10280000002808DD0120214908701D480078401E7D
:102810001B4908702CE000201C4908701A480078F9
:10282000002820DD17480078002805DD15480078CD
:10283000401E144908701BE013480078401E1249DE
:1028400008700C48007800EB40000C49085C0C490B
:1028500008700848007800EB4000084908444078B8
:102860000849087004E0002005490870054908700F
:10287000704700000400002008000020E233010837
:1028800005000020060000200700002009000020AD
:1028900010B52DED088B8E48007801287ED10020E0
:1028A0008B4908708B4890ED000AB5EEC00AF1EE36
:1028B00010FA36DD884890ED000ADFED880A20EE38
:1028C000200A8448D0ED000A80EE201A844880ED6A
:1028D000001A90ED000ADFED810A80EE201A11EE59
:1028E000104A204610F08AFC41EC1B0B9FED7D1B2B
:1028F000B0EE4B0AF0EE6B0A0EF096FFB0EE40AA77
:10290000F0EE60AA53EC1A2B9FED780B51EC100BF4
:102910000FF0C0FF41EC190B0FF0CEFE75490860B7
:1029200000BF744890ED000ADFED730AB4EEE00AD0
:10293000F1EE10FA0DDD7148D0ED000AB3EE041A85
:1029400080EE810AD0ED000A30EE200A694880ED61
:10295000000A6B480088012808DC664890ED000AF0
:10296000DFED680A20EE200A80ED000A664890ED4F
:10297000000A664880ED000A654890ED000A654847
:1029800080ED000A5B4890ED000A5C4880ED000A8B
:1029900061490978012953D1604900E050E0098874
:1029A00096294DDD5E490988002949DD5D49097890
:1029B00000290BDC5C490978012907D05B490978BB
:1029C000012903D05A490978012907D159490878C2
:1029D00000EBD0714910A0EB410159B15149097880
:1029E00071BB5149097859BB5049097841BB5049DD
:1029F000097829BB3F4890ED000A3748D0ED000A1E
:102A000020EE208AB1EE000A68EE000A9FED4A1A15
:102A100080EE810AD0ED000AB2EE081AC0EE811AEB
:102A200030EE210A454880ED000A454890ED000A45
:102A30004248D0ED000A30EE200A414880ED000AFD
:102A400035480078042803D03E480078012834D166
:102A50009FED3D0A2D4880ED000A9FED3B0A274877
:102A600080ED000A9FED380A384880ED000A9FED9E
:102A7000360A80ED010A9FED340A80ED020A9FEDCF
:102A8000320A80ED030A9FED300A80ED040A9FEDC3
:102A90002E0A80ED050A0020194908809FED2A0AB8
:102AA0002B4880ED000A9FED280A2A4880ED000A95
:102AB0009FED250A164880ED000A0E4890ED000AA9
:102AC000BCEEC00A10EE100A80B2BDEC088B10BD3F
:102AD000A8610020C4610020946100200000FA4336
:102AE0008060002000000000000008406666666606
:102AF0006666064058600020000048445C60002084
:102B0000986100209A99993FA0610020A46100205B
:102B10006460002068600020146000201C610020B8
:102B20000C610020510000205200002053000020C2
:102B3000540000205700002000408345C861002059
:102B4000CC610020D061002000000000E461002082
:102B50006C6000206060002030B5044600209FEDCE
:102B6000F93AF0EE431A9FEDF73AF0EE432A9FED63
:102B7000F53AB0EE432A9FEDF33AB0EE430A9FEDEB
:102B8000F13AF0EE430A9FEDEF3AB0EE431A002916
:102B900068DD00BF2CE004EBC005D5ED003A04EB86
:102BA000C00595ED014AB0EE423A03EE843AB0EE2C
:102BB000432A04EBC00595ED003A33EE003AB0EE3F
:102BC000430A04EBC00595ED013A33EE203AF0EEEE
:102BD000430A04EBC005D5ED003A04EBC00595EDC2
:102BE000004AB0EE413A03EE843AB0EE431A401C7C
:102BF0008842D0DB03EE101AB8EEC33A23EE013A56
:102C000060EE003AB4EEE33AF1EE10FA14DD03EEB2
:102C1000101AB8EEC33A63EE023A40EE603A03EEA1
:102C2000101AB8EEC33A23EE013A00EE403A83EEB2
:102C3000834AF0EE441A03E09FEDC23AF0EE431AE5
:102C400003EE101AB8EEC33AC0EE833A21EE804A82
:102C500003EE101AB8EEC33AC4EE034A33EEE43A78
:102C6000F0EE432AC2ED001AC3ED002A30BD2DE973
:102C7000F0412DED068B9FEDB30AB0EE408A0026A1
:102C8000B1480078012842D10020AF4908700625DC
:102C90002C462DE0AD4800EB840090ED000A30EEAC
:102CA000080AB0EE408AAA4800EB840090ED000AC2
:102CB000B5EEC00AF1EE10FA13DDA54800EB840072
:102CC00090ED000AF7EE000A80EE801A601BA14921
:102CD00001EBC00080ED011A601B01EBC00080ED2C
:102CE000008A782C00DD08E0701C86B2601CC4B23B
:102CF00099480068401BA042CCD800BF974B984A27
:102D000031469448FFF728FF0120964908709448FF
:102D100090ED000A9448D0ED000A20EE200AB0EEB3
:102D2000408A924880ED008A90ED000AB5EEC00A14
:102D3000F1EE10FA08D990ED000ADFED8D0AB4EE3D
:102D4000E00AF1EE10FA04DD9FED8A0A874880ED73
:102D5000000A864890ED000ADFED870A80EE201A0F
:102D600011EE107A384610F049FA41EC1A0B9FED3B
:102D7000831BB0EE4A0AF0EE6A0A0EF055FDB0EE83
:102D8000409AF0EE609A51EC190B0FF095FC7D49DA
:102D90000860764890ED000ADFED7B0A20EE200AFD
:102DA0007A4880ED000A90ED000ABCEEC00A10EEF1
:102DB000100A77490880754890ED000ABCEEC00AF9
:102DC00010EE100A73490880734890ED000AF2EE85
:102DD000040AB4EEE00AF1EE10FA05D29FED6F0A94
:102DE0006F4880ED000A24E06B4890ED000ADFEDAB
:102DF0006D0AB4EEE00AF1EE10FA05D29FED6A0A10
:102E0000674880ED000A14E0634890ED000ADFEDAA
:102E1000670AB4EEE00AF1EE10FA05D29FED640AFB
:102E20005F4880ED000A04E09FED620A5C4880ED97
:102E3000000A5B48D0ED000A5548008800EE100AF1
:102E4000B8EE400A20EE800ADFED5B0A80EE201A21
:102E5000534880ED001ABDEC068BBDE8F08110B53B
:102E60002DED068B55480078012869D1544800782B
:102E7000012865D10020514908705248008810B9D6
:102E8000002051490880FFF703FD4E4908804E4855
:102E900000880988884203DA4A4800884A4908803D
:102EA0004A4800880FF065FE41EC1A0B9FED480B75
:102EB00053EC102B0FF0EEFC41EC190B0FF0FCFB68
:102EC0000446204610F09AF941EC1A0B9FED421B84
:102ED000B0EE4A0AF0EE6A0A0EF0A6FCB0EE409A96
:102EE000F0EE609A51EC190B0FF0E6FB08EE100AB9
:102EF000B5EEC08AF1EE10FA04DD9FED390AC0EE9E
:102F0000088A01E0DFED0F8AF5EEC08AF1EE10FAD3
:102F10000EDD0A2133480AF077FBBCEEE80A10EE1A
:102F2000100A3049088008460AF07CFB2E490880C8
:102F30002D48008800285BDD2B4800882B4908803D
:102F400061E0000000000000AA610020F0490020BC
:102F5000503A0020FC610020AC6100209460002009
:102F6000906000209E6000208C600020886000201F
:102F700082A8FB390742B23833333340696FF0859A
:102F8000C954D53FB06100200024744998600020E6
:102F9000866000209C60002078610020CDCC4C3DF4
:102FA0008C61002000007042CDCCCC3D0000F0428E
:102FB000CDCC4C3E9A99993E0000AA421161002066
:102FC00014600020086000200E6000202E600020A9
:102FD0000000000000407F400000000000000840AA
:102FE0009A993940BC650020A6600020106000203E
:102FF000FE480088002803DD0120FD49088002E02A
:103000000020FB490880BDEC068B10BDF948007814
:10301000012865D1F8480078012861D10020F549E0
:103020000870F648008801285ADDF5480088401CE1
:10303000F3490880F348008810B90020F24908805D
:10304000F2480078EF490880F1480088002810DD38
:1030500008460088EE49098888420ADDE948008868
:10306000EB490988401A1E2803DDE9480088E54934
:103070000880E4480088002803DDE2480088E4492D
:103080000880E0480088632802DD6320DD4908806D
:10309000DD480088DB490988884203DAD94800887E
:1030A000D9490880DB480068D64909880844D949CD
:1030B0000860D3480088002808DD08460068D04929
:1030C0000988B0FBF1F0D449088002E00020D24921
:1030D0000880D1480088632802DD6320CE4908803B
:1030E000C5480078012802D00020C94908807047EF
:1030F00010B5CA48007800280BDCC94800780128C0
:1031000007D0C8480078012803D0C74800780128B4
:103110004DD1C649087800EBD0714910A0EB4101B0
:10312000012905D1C249097811B90720FFF740FBF1
:10313000BE49087800EBD0714910A0EB410191B96C
:10314000BB49097801290ED10020BA490880BA4943
:103150000860BA490880BA480068BA490860BA48A5
:103160000088BA490880B648006810B90020B549FF
:103170000860B548008810B90020B4490880B048FC
:103180000068B0490968401AAB490860AE48008839
:10319000AE490988401AA9490880A449087800EB7B
:1031A000D0714910A0EB4101A14A11700AE0002042
:1031B000A0490880A0490860A0490880A14908608A
:1031C000A24908808C480078012808D1A0480078DE
:1031D00028B9A0480078401C9E49087006E086483F
:1031E0000078012802D000209A49087082490978A5
:1031F00001297BD1964909780029FAD19649098895
:10320000962903DD7D490988002924DC9349097842
:10321000012907D19249098800291CDC91490988B4
:10322000002918DC7D49097800290BDC7C490978E4
:10323000012907D07B490978012903D07A49097807
:103240000129D6D17949087800EBD0714910A0EB5B
:10325000410101294AD183480088401C81490880E6
:103260006E48007800280BDC6D480078012807D0F4
:103270006C480078012803D06B480078012854D1AD
:1032800066490978082923D06449097809291FD09B
:10329000624909780A291BD0604909780B2917D09F
:1032A0005E4909780C2913D05C4909780E290FD0A2
:1032B0005A4909780D290BD058490978112907D0A6
:1032C00057490978012903D05649097801290ED1B7
:1032D0005649087800EBD0714910A0EB410131B993
:1032E00061480088401C604908801EE039E05E4863
:1032F0000088002819DD5C480088401E5A49088073
:103300005A480088401C594908804849087800EB11
:10331000D0714910A0EB4101012906D15248008823
:10332000022802DC0720FFF743FA4E4800883C28B9
:1033300012DB00204B49088049480088401C48495E
:1033400008800846008841F27071884204DB002042
:10335000434908804349088045480088401C444947
:10336000088010BD70B52DED088B424800780A2109
:1033700090FBF1F0C5B23F48007890FBF1F201FB01
:103380001200052801DB681CC5B205B901250A2D0C
:1033900000DD0A2518480078012826D12E4800882B
:1033A000962822DD154800880028FADD1B49097897
:1033B00000290BDC1A490978012907D01949097835
:1033C000012903D018490978012963D117490878E0
:1033D00000EBD0714910A0EB410101295AD12648D8
:1033E000008808B925484BE051E094E108600020CE
:1033F0001060002012610020146000200C61002089
:10340000AE600020B0600020B2600020906100201B
:10341000B6600020B8600020B46000205100002099
:1034200052000020530000205400002057000020CC
:10343000D4600020BE600020C4600020C060002076
:103440001C600020C860002018600020C2600020BE
:10345000E0610020BC6000201C6100203E60002074
:10346000166000201A600020640000206600002022
:1034700012600020846000200A6000201F000020ED
:103480000078012803D1F8480068F8490860BDECCD
:10349000088B70BDF448006860B90020F4490880CA
:1034A000F4490880F4490880F4490880EF4908602D
:1034B000F3490880F34890ED000ABCEEC00A10EE14
:1034C000100AF1490880F14890ED000ABCEEC00AEC
:1034D000E54880ED000A0068ED49884202D30846BD
:1034E000E1490860EB480088C0EB0010EA49098810
:1034F00001EB80004FF4967190FBF1F201FB12009A
:1035000050B9D9480068D9490860DF480088DC49CB
:1035100008800020E1490880D3480088D349098801
:10352000401ADF490880D8480088D5490988401AE0
:10353000DC490880DC480078012879D10020DA498C
:103540000870DA480088002814DDD84800880FF099
:1035500010FB41EC1A0B53EC1A2B9FEDD50B51ECE1
:10356000100B0FF097F941EC190B0FF0A5F808EECE
:10357000100A01E09FEDD08A18EE100A0FF03EFE0F
:1035800041EC1A0B9FEDCD1BB0EE4A0AF0EE6A0A31
:103590000EF04AF9B0EE409AF0EE609A51EC190B39
:1035A0000FF08AF808EE900A9FEDC60A28EE800A0E
:1035B000BCEEC00A10EE100AC34908800846008815
:1035C000002807DD08460088C04991FBF0F0C0499B
:1035D000088002E00020BE490880BE48007801282B
:1035E00007D0BD480078012803D0BC4800780128E6
:1035F00023D1BB49087800EBD0714910A54A128845
:10360000C2EB0212A44B1B8803EB8202B54B1B8852
:1036100003FB11214FF4FA7201FB02F49248006897
:1036200038B191480068B4FBF0F0944908801DE07F
:1036300090E000209149088018E096480088C0EB8F
:1036400000109549098801EB80004FF4FA7100FBE6
:1036500001F48548006830B183480068B4FBF0F09D
:103660008649088002E0002084490880814800885B
:1036700095490988884202DC7E48008818B992483A
:1036800000887C490880894800880FF072FA41EC74
:103690001B0B9FED950B53EC102B0FF0B9FA41EC7F
:1036A0001A0B9FED930B53EC102B0FF037F841ECF6
:1036B000190B0FF001F808EE100ABCEEC80A10EE64
:1036C000100A8D4908806A4800880988884203DA10
:1036D00089480088664908806B4800884FF461611A
:1036E00000FB01F46C480088002803DC694800886E
:1036F00000280CDD67480088C0EB00106649098887
:1037000001EB8000B4FBF0F05B49088022E0002070
:10371000594908801EE079480078D8B900205449FA
:1037200008805449088054490880544908807449E5
:103730000860744908809FED600A734880ED000AB4
:103740009FED5D0A714880ED000A9FED5B0A4F48CE
:1037500080ED000A00BF9AE66849097801292AD15C
:103760006B49097819B96B490978694A11706A4936
:10377000097819B967490978674A11706449097865
:10378000644A1278914203DA62490978604A1170FA
:10379000614909785F4A1278914203DD5D490978F1
:1037A0005D4A11705A4909785B4A127888184108B5
:1037B0005A4A117002E00021574A1170704730B523
:1037C000574C248844B1574C24882CB1544C24883D
:1037D000544D2D88AC4203D10024534D2C701BE175
:1037E0004F4C24884F4D2D88AC4202DA4C4C248833
:1037F00001E04C4C24882146494C2488494D2D88B1
:10380000AC4202DA474C248801E0454C2488234628
:103810005C1A102C03DA0024434D2C70FCE05C1A77
:10382000424D2D7894FBF5F4A2B2002005E000246F
:103830003F4D25F81040441CE0B21028F7DB002073
:1038400006E002FB00143A4D25F81040441CE0B29B
:10385000364C2478A042F4DB314C2488314D2D883D
:10386000AC4267DA012094E01C600020D8600020A0
:10387000346000202C600020366000202E60002084
:10388000DC600020CC61002018600020B8610020BE
:103890003C860100166000201A60002012600020A3
:1038A0000A6000200C6000201361002008600020E6
:1038B000666666666666064000000000555555550A
:1038C0005555D53F0000FA432A600020A0BB0D00EB
:1038D00030600020540000205200002053000020DF
:1038E0005700002072000020508D976E12830B400D
:1038F0008195438B6CC372403260002014600020BD
:10390000B8600020AE600020CC600020D0600020B5
:103910003960002024600020DE6000203860002034
:1039200050600020526000204E6000204F60002058
:10393000D065002032E0012809D1554C6488554DEE
:103940002D88AC4223DB0124534D2C701FE0534CD7
:103950002478641E4E4D35F814404E4D2D88AC42EF
:1039600004DA4E4C24784C4D2C7010E0441E484D27
:1039700035F81440474D2D88AC4208DA444C34F8F1
:103980001040444D2D88AC4201DB434C2070441C58
:10399000E0B2424C2478A042CDDB3DE0404C24888C
:1039A000404D2D88AC4237DD012031E001280AD19D
:1039B000374C6488374D2D88AC4227DB374C247850
:1039C000354D2C7022E0354C2478641E304D35F88E
:1039D0001440304D2D88AC4203DA01242E4D2C705A
:1039E00014E0441E2A4D35F814402A4D2D88AC426F
:1039F0000CDA274C34F81040264D2D88AC4205DBFC
:103A0000264C2478241A641C234D2C70441CE0B2EC
:103A1000224C2478A042C9DB30BD10B52248007882
:103A200040B922480078022804DC20480078401C75
:103A30001E4908701D480078022813D101231A4638
:103A400041031B48FEF7FEFB01231A4659031848A1
:103A5000FEF7F8FB0120FEF7ABFE14480078401C8F
:103A600012490870FFF703F9FFF7F9F9FFF7CEFAEB
:103A7000FFF7A5FEFFF770FEFFF73AFBFFF772FCBA
:103A800006F08AFA07F0ADFF04F036FB10BD000027
:103A9000D0650020020000204E6000204F60002012
:103AA0005060002052600020E0610020546000203F
:103AB0000008014006E040F23C6100E0491E002998
:103AC000FCD1401E0028F6D1704705E0022100E03D
:103AD000491E0029FCD1401E0028F7D1704701463D
:103AE000002000E0401E0028FCD1704770B504465D
:103AF0000D46002621E004F0800028B14FF400714B
:103B000088480CF02EF804E04FF4007185480CF062
:103B10002CF84FF4806183480CF027F86006040EFF
:103B20000A20FFF7DCFF4FF480617E480CF019F8A3
:103B30000A20FFF7D4FF701CC6B2AE42DBDB70BDBB
:103B400010B504464FF4805176480CF00EF84FF44F
:103B5000006174480CF009F80120FFF7B6FF082156
:103B60002046FFF7C3FF0120FFF7AFFF4FF480515E
:103B70006C480BF0F6FF4FF400616A480BF0F1FF60
:103B800010BD70B505460C464FF4805165480BF0EA
:103B9000ECFF4FF4006163480BF0E7FF0120FFF7F3
:103BA00094FF08212846FFF7A1FF0120FFF78DFFB2
:103BB00008212046FFF79AFF0120FFF786FF4FF408
:103BC000805158480BF0CDFF4FF4006155480BF081
:103BD000C8FF70BD10B54FF4805152480BF0C5FFBF
:103BE0000420FFF772FF08218020FFF77FFF0420E9
:103BF000FFF76BFF08210020FFF778FF002409E0A2
:103C00000420FFF762FF4849085D0821FFF76EFFB7
:103C1000601CC4B23C2CF3DB0420FFF756FF4FF4CA
:103C2000805140480BF09DFF4FF400613D480BF080
:103C30009CFF0420FFF749FF08218020FFF756FF73
:103C40000420FFF742FF08210020FFF74FFF002468
:103C500009E00420FFF739FF3449085D0821FFF728
:103C600045FF601CC4B23C2CF3DB0420FFF72DFFA2
:103C70004FF400612B480BF074FF10BD10B5AA2063
:103C8000FFF75EFF0220FFF715FF0021C020FFF7BE
:103C900078FF0A20FFF719FF0021C220FFF771FF0C
:103CA0000A20FFF712FF1321D020FFF76AFF7321CC
:103CB0008220FFF766FF0A20FFF707FF012184201B
:103CC000FFF75FFF0A20FFF700FF02218820FFF7C0
:103CD00058FF0A20FFF7F9FE03218620FFF751FF66
:103CE0000A20FFF7F2FE10BD10B5AA20FFF728FF4B
:103CF0000220FFF7DFFE02218620FFF742FF0A20A5
:103D0000FFF7E3FE10BD10B5AA20FFF719FF022050
:103D1000FFF7D0FE03218620FFF733FF0A20FFF7CD
:103D2000D4FE10BD00080140F06500202C66002084
:103D300070B505460E46F7480068F7490860F54833
:103D400040684860F348806888600020C860F14897
:103D500000690861EF4840694861EE48281A800808
:103D600041F820600BF0B2F8EA480BF0FBF80024B1
:103D70000AE0E94A52F82410E64A042303FB04202F
:103D80000BF06EFA601CC4B2062CF2DB0BF0A4F848
:103D900070BD2DE9F04104460D46002609E0DF48DC
:103DA000042101FB06073868DB4941F82600701C36
:103DB00086B2B6F5967FF2DB2888D849611A890861
:103DC000D54A42F821006888D449611A012202EBE1
:103DD0009101D14A42F82100A888D049611A0222F3
:103DE00002EB9101CC4A42F82100E888CB49611AE4
:103DF000032202EB9101C84A42F821002889C749F1
:103E0000611A042202EB9101C34A42F82100688939
:103E1000C249611A052202EB9101BF4A42F8210012
:103E2000BE49611A062202EB9101BB4AE86842F8DA
:103E30002100288AB949611A072202EB9101B64A8A
:103E400042F82100688AB549611A082202EB910103
:103E5000B14A42F82100A88AB049611A092202EB4E
:103E60009101AD4A42F82100AC49611A0A2202EBE5
:103E70009101A94AA86942F82100A88BA749611AB3
:103E80000B2202EB9101A44A42F82100A87FA3492A
:103E9000611A0C2202EB91019F4A42F821000BF0BB
:103EA00015F89E480BF05EF800260AE09A4A52F890
:103EB00026109A4A042303FB06200BF0D1F9701C4C
:103EC00086B2B6F5967FF1DB0BF006F8BDE8F0811F
:103ED00070B59048006892490880084600884FF6FF
:103EE000FF71884202DB00208D49088089484068C4
:103EF0008C490880084600884FF6FF71884202DB33
:103F0000002088490880834800698749087008466E
:103F10000078102803DC08460078062802DA0A2018
:103F2000814908707B48806880490870084600789D
:103F3000632802DC0846007810B904207B49087029
:103F40007448C56825B1002172480C30FFF7F0FEB7
:103F50000020774908706F48406976490870084624
:103F60000078142801DB0020087000242CE13420A4
:103F700060436A49455841F27070854205D300207C
:103F80006D4901EB4411088003E06B4901EB4411DA
:103F90000D8004EB840000EBC400604901EB80005D
:103FA000456841F27070854205D90020624901EBF5
:103FB0004411488003E0604901EB44114D8004EB5B
:103FC000840000EBC400554901EB8000856842F293
:103FD0000F70854205D90020574901EB44118880B4
:103FE00003E0554901EB44118D8004EB840000EBA4
:103FF000C4004A4901EB8000C56842F20F70854257
:1040000005D900204C4901EB4411C88003E04A491E
:1040100001EB4411CD8004EB840000EBC4003F4968
:1040200001EB80000569B5F57A7F05D30020424990
:1040300001EB4411088103E03F4901EB44110D817C
:1040400004EB840000EBC400344901EB80004569B7
:1040500042F20F70854205D90020374901EB441127
:10406000488103E0344901EB44114D8104EB8400A5
:1040700000EBC400294901EB8000856944F61F600C
:10408000854205D900202C4901EB4411C86003E0AA
:10409000294800EB4410C56004EB840000EBC40029
:1040A0001E4901EB8000C56944F61F60854205D9B1
:1040B0000020214901EB4411088203E01E4901EB75
:1040C00044110D8204EB840000EBC400134901EBA2
:1040D0008000056A42F20F70854205D9002016491A
:1040E00001EB4411488203E0134901EB44114D8276
:1040F00004EB840000EBC400084901EB8000456A32
:10410000B5F5803F1AD300200B4901EB441188829A
:1041100018E0000000500108DC0300200040010806
:1041200050600020526000204F6000204E000020B0
:10413000F06000203A60002034010020244901EBA7
:1041400044118D8204EB840000EBC400214901EB93
:104150008000856A42F20F70854205D900201C4913
:1041600001EB4411886103E0194800EB44108561BC
:1041700004EB840000EBC400164901EB8000C56A23
:10418000B5F57A7F05D30020114901EB44118883EE
:1041900003E00F4901EB44118D8304EB840000EB35
:1041A000C4000C4901EB8000056BB5F57A7F05D39F
:1041B0000020074901EB4411887703E0044901EB33
:1041C00044118D77601CC4B2142CFFF6D0AE70BDC4
:1041D00034010020004001080146002003E0FE4AAF
:1041E0001154421CD0B23C28F9DB002003E0FB4A0A
:1041F0001154421CD0B23C28F9DB002004E0F84AFC
:1042000022F81010421CD0B25728F8DB7047F5494D
:10421000B0FBF1F201FB1200F349B0FBF1F1F34AFC
:104220005171F149B0FBF1F201FB120042F2107141
:10423000B0FBF1F1ED4A117142F21071B0FBF1F2F5
:1042400001FB12004FF47A71B0FBF1F1E74AD17033
:104250004FF47A71B0FBF1F201FB12006421B0FB64
:10426000F1F1E24A91706421B0FBF1F201FB12001E
:104270000A21B0FBF1F1DD4A51700A21B0FBF1F2E5
:1042800001FB1201D94A1170704710B503460C4664
:104290001846FFF7BCFF0A2B12DBD1480088D34930
:1042A0004978D34A32F811100843CD4908800846AE
:1042B0004088CE49497832F811100843C8494880EF
:1042C000C7488088C9490978C94A32F8111008439B
:1042D000C34988800846C088C449097832F811105B
:1042E0000843BF49C8802046FFF791FFBC480089BA
:1042F000BE494978BE4A32F811100843B8490881CE
:1043000008464089B949497832F811100843B44940
:10431000488108468089B549097832F81110084368
:10432000AF4988810846C089B049097832F8111030
:104330000843AB49C88110BD00B503461846FFF7D6
:1043400066FFB3F57A7F12DBA5480088A749C978D4
:10435000A74A32F811100843A1490880084640884E
:10436000A249C97832F8111008439D494880642B4E
:1043700012DB9B4880889D4989789D4A32F811104C
:104380000843974988800846C0889849897832F858
:10439000111008439249C8800A2B12DB904800890B
:1043A00092494978924A32F8111008438C490881A1
:1043B000084640898D49497832F8111008438849E8
:1043C00048818748808989490978894A32F81110DB
:1043D0000843834988810846C0898449097832F8AE
:1043E000111008437E49C88100BD00B50346184638
:1043F000FFF70DFFB3F57A7F12DB7948008A7B491E
:10440000C9787B4A32F8111008437549088208467A
:10441000408A7649C97832F81110084370494882B9
:10442000642B12DB6E48808A70498978704A32F8B2
:10443000111008436A4988820846C08A6B49897806
:1044400032F8111008436649C8820A2B12DB64480F
:10445000008B66494978664A32F811100843604972
:1044600008830846408B6149497832F811100843A7
:104470005B4948835A48808B5C4909785C4A32F82A
:1044800011100843564988830846C08B574909785C
:1044900032F8111008435249C88300BD00B50346E5
:1044A0001846FFF7B4FE42F21070834212D34C4814
:1044B000008C4E4909794E4A32F811100843484998
:1044C00008840846408C4949097932F8111008439C
:1044D00043494884B3F57A7F12D34148808C4349DD
:1044E000C978434A32F8111008433D498884084688
:1044F000C08C3E49C97832F8111008433849C88445
:10450000642B12D33648008D38498978384A32F8FE
:1045100011100843324908850846408D334989788F
:1045200032F8111008432E4948850A2B12D32C4823
:10453000808D2E4949782E4A32F8111008432849B7
:1045400088850846C08D2949497832F811100843FA
:104550002349C8852248008E24490978244A32F824
:10456000111008431E4908860846408E1F490978E5
:1045700032F8111008431A49488600BD00B50346B9
:104580001846FFF744FE42F21070834212DB1448D3
:10459000008C16490979164A32F81110084310495F
:1045A00008840846408C1149097932F811100843F3
:1045B0000B494884B3F57A7F21DB0948808C0B498D
:1045C000C9780B4A32F81110084305498884084617
:1045D000C08C0649C9780DE0F06500202C660020EB
:1045E0006866002040420F00A0860100DF600020C6
:1045F000FA33010832F811100843FE49C884642BCD
:1046000012DBFC48008DFC498978FC4A32F8111015
:104610000843F84908850846408DF749897832F8FB
:1046200011100843F34948850A2B12DBF148808DAD
:10463000F1494978F14A32F811100843ED4988856B
:104640000846C08DEC49497832F811100843E94911
:10465000C885E848008EE8490978E84A32F8111020
:104660000843E44908860846408EE349097832F851
:1046700011100843DF49488600BD10B503460C46BB
:104680001846FFF7C4FD642B09DBDA48808EDA494F
:104690008978DA4A32F811100843D64988860A2BFD
:1046A00012DBD448C08ED4494978D44A32F811106C
:1046B0000843D049C8860846008FCF49497832F868
:1046C00011100843CB490887CA48408FCA49097866
:1046D000CA4A32F811100843C64948870846808FF5
:1046E000C549097832F811100843C2498887204625
:1046F000FFF78DFDBF48C08FBF494978BF4A32F8E8
:1047000011100843BB49C8870846B0F84000BA49B1
:10471000497832F811100843B649A1F8400008461C
:10472000B0F84200B449097832F811100843B14991
:10473000A1F842000846B0F84400AF49097832F8C1
:1047400011100843AB49A1F8440010BD00B5034661
:104750001846FFF75CFDB3F57A7F0BDBA548B0F890
:104760004600A549C978A54A32F811100843A14965
:10477000A1F84600642B0BDB9E48B0F848009E4928
:1047800089789E4A32F8111008439A49A1F84800E6
:104790000A2B0BDB9748B0F84A0097494978974AAB
:1047A00032F8111008439349A1F84A009148B0F833
:1047B0004C0091490978914A32F8111008438D490B
:1047C000A1F84C0000BD00B503461846FFF71FFDD9
:1047D000B3F57A7F0BDB8748B0F846008649C97885
:1047E000864A32F8111008438249A1F84600642B2A
:1047F0000BDB8048B0F848007F4989787F4A32F85F
:10480000111008437B49A1F848000A2B0BDB7948BB
:10481000B0F84A0078494978784A32F811100843CC
:104820007449A1F84A007348B0F84C0072490978FD
:10483000724A32F8111008436E49A1F84C0000BDCD
:1048400000B503461846FFF7E2FCB3F57A7F0BDBB1
:104850006848B0F84E006849C978684A32F81110C3
:1048600008436449A1F84E00642B0BDB6148B0F8A3
:10487000500061498978614A32F8111008435D4956
:10488000A1F850000A2B0BDB5A48B0F852005A49E5
:1048900049785A4A32F8111008435649A1F8520093
:1048A0005448B0F8540054490978544A32F8111069
:1048B00008435049A1F8540000BD0A2871DB0A21C1
:1048C00090FBF1F14D4A32F811104A4AB2F85620E5
:1048D0001143484AA2F856100A2190FBF1F1474AC9
:1048E00032F81110434AB2F858201143414AA2F855
:1048F00058100A2190FBF1F1404A32F811103D4A5C
:10490000B2F85A2011433B4AA2F85A100A2190FBF0
:10491000F1F13A4A32F81110364AB2F85C201143EC
:10492000344AA2F85C100A2190FBF1F201FB12015B
:10493000324A32F811102F4AB2F85E2011432D4A44
:10494000A2F85E100A2190FBF1F201FB12012B4A42
:1049500032F81110274AB2F860201143254AA2F814
:1049600060100A2190FBF1F201FB1201234A32F898
:104970001110204AB2F8622011431E4AA2F86210B8
:104980000A2190FBF1F201FB12011C4A32F81110CE
:10499000184AB2F864201143164AA2F864104CE099
:1049A000FFE71449B1F8561041F03801114AA2F856
:1049B00056101146B1F8581041F03801A2F85810BD
:1049C0001146B1F85A1041F03801A2F85A101146B8
:1049D000B1F85C1041F03801A2F85C101146B1F852
:1049E0005E10064A32F810201143024AA2F85E1007
:1049F000114605E068660020DF600020FA330108F8
:104A0000B1F86010F94A32F810201143F84AA2F8C0
:104A100060101146B1F86210F44A32F810201143C8
:104A2000F34AA2F862101146B1F86410EF4A32F866
:104A300010201143EE4AA2F864107047002805DDEB
:104A4000EC49097E41F08001EA4A1176012805DD32
:104A5000E849097E41F04001E64A1176022805DD69
:104A6000E449497E41F08001E24A5176032805DDA0
:104A7000E049497E41F04001DE4A517604280ADDD2
:104A8000DC49897E41F08001DA4A91761146897EBF
:104A900041F040019176052805DDD649C97E41F0F7
:104AA0004001D44AD17606280ADDD249C97E41F0B8
:104AB0008001D04AD1761146097F41F0400111773B
:104AC000072805DDCB49097F41F08001C94A1177EC
:104AD00008280ADDC749497F41F04001C54A51779E
:104AE0001146497F41F08001517709280ADDC1490B
:104AF000897F41F08001BF4A91771146C97F41F01B
:104B00008001D1770A2805DDBA49C97F41F040010B
:104B1000B84AD1770B280EDDB64991F8201041F044
:104B20008001B44A82F82010114691F8201041F01B
:104B3000400182F820100C2807DDAE4991F82110C1
:104B400041F08001AB4A82F821100D280EDDA94901
:104B500091F8211041F04001A64A82F82110114637
:104B600091F8221041F0800182F822100E280EDD0B
:104B7000A04991F8221041F040019E4A82F822108B
:104B8000114691F8231041F0400182F823100F28BC
:104B900007DD984991F8231041F08001954A82F889
:104BA000231010280EDD934991F8241041F04001A4
:104BB000904A82F82410114691F8241041F08001A7
:104BC00082F82410112807DD8A4991F8251041F058
:104BD0004001884A82F8251012280EDD854991F897
:104BE000251041F08001834A82F82510114691F882
:104BF000261041F0400182F8261013280EDD7D4971
:104C000091F8261041F080017A4A82F82610114668
:104C100091F8271041F0800182F82710142807DD51
:104C2000744991F8281041F08001724A82F82810E6
:104C300015280EDD6F4991F8281041F040016D4AAA
:104C400082F82810114691F8291041F0800182F86D
:104C50002910162807DD674991F8291041F0400115
:104C6000644A82F8291017280EDD624991F82A104B
:104C700041F080015F4A82F82A10114691F82A100B
:104C800041F0400182F82A1018280EDD594991F8A8
:104C90002B1041F04001574A82F82B10114691F831
:104CA0002B1041F0800182F82B10192807DD5149A3
:104CB00091F82C1041F040014E4A82F82C101A282D
:104CC0000EDD4C4991F82C1041F08001494A82F8E0
:104CD0002C10114691F82D1041F0400182F82D1052
:104CE0001B2807DD434991F82D1041F08001414A0E
:104CF00082F82D101C280EDD3E4991F82E1041F04F
:104D000040013C4A82F82E10114691F82E1041F0D5
:104D1000800182F82E101D280EDD364991F82F10E3
:104D200041F08001334A82F82F10114691F830107B
:104D300041F0800182F830101E2807DD2D4991F8DE
:104D4000301041F040012B4A82F830101F280EDD50
:104D5000284991F8311041F08001264A82F831103B
:104D6000114691F8311041F0400182F8311070473E
:104D7000212818D2DFE800F01711181F262D404710
:104D8000535A6672798992A2B2BBCBD4F1EFEEEDA1
:104D9000ECEBEAE9E8E7E6E5E4001649097E41F0D4
:104DA0008001144A117685E11249097E41F04001E3
:104DB000104A11767EE10F49497E41F080010D4A8B
:104DC000517677E10B49497E41F04001094A51761D
:104DD00070E10849897E41F08001064A91761146CA
:104DE000897E41F04001917664E10000FA330108C8
:104DF000686600202C660020F849C97E41F0400119
:104E0000F64AD17656E1F549C97E41F08001F34A70
:104E1000D1761146097F41F0400111774AE1EF490F
:104E2000097F41F08001ED4A117743E1EB49497F69
:104E300041F04001E94A51771146497F41F0800134
:104E4000517737E1E549897F41F08001E34A917765
:104E50001146C97F41F08001D1772BE1DF49C97F3D
:104E600041F04001DD4AD17724E1DC4991F820107E
:104E700041F08001D94A82F82010114691F82010A3
:104E800041F0400182F8201014E1D44991F821103A
:104E900041F08001D14A82F821100BE1CF4991F80D
:104EA000231041F04001CD4A82F82310114691F8B9
:104EB000221041F0400182F82210FBE0C74991F82E
:104EC000231041F04001C54A82F82310114691F8A1
:104ED000221041F0400182F82210EBE0BF4991F826
:104EE000231041F08001BD4A82F82310E2E0BB4963
:104EF00091F8241041F04001B84A82F8241011467C
:104F000091F8241041F0800182F82410D2E0B349D6
:104F100091F8251041F04001B04A82F82510C9E00F
:104F2000AE4991F8251041F08001AC4A82F8251075
:104F3000114691F8261041F0400182F82610B9E0A0
:104F4000A8E09EE08DE07CE072E061E057E046E0A2
:104F500035E02BE01AE010E0FFE7A04991F82610B9
:104F600041F080019D4A82F82610114691F82710E1
:104F700041F0800182F827109CE0984991F82810B0
:104F800041F08001954A82F8281093E0934991F806
:104F9000281041F04001914A82F82810114691F8FA
:104FA000291041F0800182F8291083E08B4991F8A3
:104FB000291041F04001894A82F829107AE0874996
:104FC00091F82A1041F08001844A82F82A10114693
:104FD00091F82A1041F0400182F82A106AE07F49D6
:104FE00091F82B1041F040017C4A82F82B101146B9
:104FF00091F82B1041F0800182F82B105AE077498C
:1050000091F82C1041F04001744A82F82C1051E0C4
:10501000724991F82C1041F08001704A82F82C10EE
:10502000114691F82D1041F0400182F82D1041E019
:105030006A4991F82D1041F08001684A82F82D10DC
:1050400038E0664991F82E1041F04001634A82F839
:105050002E10114691F82E1041F0800182F82E108A
:1050600028E05E4991F82F1041F080015B4A82F8F8
:105070002F10114691F8301041F0800182F8301065
:1050800018E0564991F8301041F04001534A82F837
:1050900030100FE0514991F8311041F080014F4A32
:1050A00082F83110114691F8311041F0400182F838
:1050B000311000BF00BF704710B504462046FFF70F
:1050C000A6F8642C24DB002320E063B9444890F860
:1050D000290044498978444A12F81110084340498C
:1050E00081F8290010E03F48807800EB40003F49FC
:1050F00001EB400010F81300C3F12901384A515C5C
:105100000843C3F129015054581CC3B2032BDCDB04
:105110000A2C16DB002312E03248407800EB4000F6
:10512000324901EB400010F81300C3F125012C4A6D
:10513000515C0843C3F125015054581CC3B2032BE2
:10514000EADB002312E02748007800EB4000274903
:1051500001EB400010F81300C3F12101204A515C1B
:105160000843C3F121015054581CC3B2032BEADB9E
:1051700010BD10B50146002067E031F81020232A49
:105180000ADDC0F12802164B9A5C42F00102C0F120
:105190002803134CE25456E031F810201E2A06DD95
:1051A0000E4A125C42F001020C4B1A544BE031F8EB
:1051B0001020192A06DD094A125C42F00202074B50
:1051C0001A5440E031F81020142A11DD034A125C11
:1051D00042F00402014B1A5435E000002C66002016
:1051E000F0650020DF6000205E34010822340108F1
:1051F00031F810200F2A06DDFE4A125C42F0080248
:10520000FC4B1A541FE031F810200A2A06DDF94A37
:10521000125C42F01002F74B1A5414E031F81020DF
:10522000052A06DDF34A125C42F02002F14B1A54C3
:1052300009E031F81020002A05DDEE4A125C42F048
:105240004002EC4B1A54421CD0B2182895DB10BD1A
:1052500030B502462823E84C2380002A1CDDE74BAA
:105260001B78012B18D1E64B1B88002B05DDE44B86
:105270001B885B1EE24C23800EE0DF4B1B88E04C5A
:105280002380E04B1B885B1CDE4C238023461B885D
:10529000032B01DD00232380002043E0B1EB400F0E
:1052A0003EDDC0F12E03D84CE35CD84CD54D2D88A3
:1052B00014F815402343C0F12E04D34D2B5500F1B3
:1052C0002F032C46E35CD24CCE4D2D8814F81540AC
:1052D0002343DCB200F12F03CB4DEC54C94B1B88A8
:1052E000022B0EDAC0F12E032C46E35CC94CC54DEF
:1052F0002D8814F815402343C0F12E04C24D2B55C0
:105300000EE000F12F03C04CE35CC24CBD4D2D8874
:1053100014F815402343DCB200F12F03BA4DEC54CE
:10532000431CD8B20528B9DB30BDBB48B0F87800C3
:1053300040F236510843B849A1F878000846B0F861
:105340007A0040F236510843B349A1F87A00084682
:10535000B0F87C0040F236510843AF49A1F87C0018
:105360000846B0F87E0040F0F700A1F87E0008463D
:10537000B0F8800040F0F700A1F880000846B0F8CF
:10538000820040F0F700A1F882000846B0F88400DF
:1053900042F236110843A049A1F884000846B0F84B
:1053A000860042F2361108439B49A1F88600084660
:1053B000B0F8880042F2361108439749A1F88800F6
:1053C0000846B0F88A0040F03E00A1F88A0008467E
:1053D000B0F88C0040F03E00A1F88C000846B0F810
:1053E0008E0040F03E00A1F88E000846B0F8900014
:1053F00040F0F700A1F890000846B0F8920040F0A5
:10540000F700A1F892000846B0F8940040F0F700C9
:10541000A1F894000846B0F8960040F03800A1F8D2
:1054200096000846B0F8980040F03800A1F89800BF
:105430000846B0F89A0040F03800A1F89A0070478A
:105440007548B0F8780041F2012108437249A1F88B
:1054500078000846B0F87A0041F2012108436E490D
:10546000A1F87A000846B0F87C0041F20121084317
:105470006949A1F87C000846B0F87E0040F0F700CA
:10548000A1F87E000846B0F8800040F0F700A1F8CF
:1054900080000846B0F8820040F0F700A1F88200D2
:1054A0000846B0F8840042F2F30108435A49A1F8D3
:1054B00084000846B0F8860042F2F30108435649DA
:1054C000A1F886000846B0F8880042F2F3010843CC
:1054D0005149A1F888000846B0F88A0040F0BD00A4
:1054E000A1F88A000846B0F88C0040F0BD00A1F891
:1054F0008C000846B0F88E0040F0BD00A1F88E0088
:105500000846B0F8900040F0F900A1F89000084675
:10551000B0F8920040F0F900A1F892000846B0F807
:10552000940040F0F900A1F894000846B0F8960005
:1055300041F2012108433849A1F896000846B0F825
:10554000980041F2012108433349A1F89800084628
:10555000B0F89A0041F2012108432F49A1F89A00BE
:1055600070472D48B0F87E0041F2012108432A49D6
:10557000A1F87E000846B0F8800041F201210843FE
:105580002549A1F880000846B0F8820041F20121C7
:1055900008432149A1F882000846B0F8840041F28E
:1055A000092108431C49A1F884000846B0F8860088
:1055B00041F2092108431849A1F886000846B0F8CD
:1055C000880041F2092108431349A1F888000846E0
:1055D000B0F88A0040F2365108430F49A1F88A001A
:1055E0000846B0F88C0040F2365108430A49A1F849
:1055F0008C0013E02C660020AA000020146000201C
:10560000A8000020A6000020F065002072340108E8
:10561000823401087A340108686600200846B0F830
:105620008E0040F236510843FE49A1F88E0008462C
:10563000B0F8900040F0F900A1F890000846B0F8EA
:10564000920040F0F900A1F892000846B0F89400EA
:1056500040F0F900A1F894007047F248B0F87200E9
:1056600041F20F210843EF49A1F872000846B0F853
:10567000740041F20F210843EA49A1F8740008467A
:10568000B0F8760041F20F210843E649A1F8760010
:105690000846B0F8780041F209210843E149A1F831
:1056A00078000846B0F87A0041F209210843DD4944
:1056B000A1F87A000846B0F87C0041F209210843BD
:1056C000D849A1F87C000846B0F87E0040F0ED0013
:1056D000A1F87E000846B0F8800040F0ED00A1F887
:1056E00080000846B0F8820040F0ED00A1F882008A
:1056F0000846B0F8840041F201210843C949A1F8E5
:1057000084000846B0F8860041F201210843C549EB
:10571000A1F886000846B0F8880041F2012108434C
:10572000C049A1F888000846B0F88A0040F0F700A8
:10573000A1F88A000846B0F88C0040F0F700A1F804
:105740008C000846B0F88E0040F0F700A1F88E00FB
:105750000846B0F8900042F236110843B149A1F86A
:1057600090000846B0F8920042F236110843AD4965
:10577000A1F892000846B0F8940042F236110843AE
:10578000A849A1F894000846B0F8960040F0390006
:10579000A1F896000846B0F8980040F03900A1F84A
:1057A00098000846B0F89A0040F03900A1F89A0035
:1057B0000846B0F89C0040F0F900A1F89C000846AB
:1057C000B0F89E0040F0F900A1F89E000846B0F83D
:1057D000A00040F0F900A1F8A00070479148B0F88F
:1057E000720040F039008F49A1F872000846B0F805
:1057F000740040F03900A1F874000846B0F8760053
:1058000040F03900A1F876000846B0F8780040F082
:10581000F700A1F878000846B0F87A0040F0F700E9
:10582000A1F87A000846B0F87C0040F0F700A1F833
:105830007C000846B0F87E0040F03800A1F87E00F9
:105840000846B0F8800040F03800A1F88000084613
:10585000B0F8820040F03800A1F882000846B0F8A5
:10586000840040F03F00A1F884000846B0F88600AC
:1058700040F03F00A1F886000846B0F8880040F0EC
:105880003F00A1F888000846B0F88A0042F2F30110
:1058900008436449A1F88A000846B0F88C0042F237
:1058A000F30108435F49A1F88C000846B0F88E0068
:1058B00042F2F30108435B49A1F88E000846B0F8B4
:1058C000900041F2092108435649A1F8900008468A
:1058D000B0F8920041F2092108435249A1F8920020
:1058E0000846B0F8940041F2092108434D49A1F857
:1058F00094000846B0F8960040F0F900A1F8960030
:105900000846B0F8980040F0F900A1F89800084661
:10591000B0F89A0040F0F900A1F89A000846B0F8F3
:105920009C0040F0ED00A1F89C000846B0F89E00F5
:1059300040F0ED00A1F89E000846B0F8A00040F04D
:10594000ED00A1F8A00070473648B0F8780040F0AC
:10595000ED003449A1F878000846B0F87A0040F02C
:10596000ED00A1F87A000846B0F87C0040F0ED00A8
:10597000A1F87C000846B0F87E0041F201210843FE
:105980002849A1F87E000846B0F8800041F20121C4
:1059900008432449A1F880000846B0F8820041F28B
:1059A000012108431F49A1F882000846B0F884008D
:1059B00042F2F30108431B49A1F884000846B0F8FD
:1059C000860042F2F30108431649A1F88600084612
:1059D000B0F8880042F2F30108431249A1F88800A8
:1059E0000846B0F88A0040F03F00A1F88A00084657
:1059F000B0F88C0040F03F00A1F88C000846B0F8E9
:105A00008E0040F03F00A1F88E000846B0F89000EC
:105A100042F2704108430349A1F890000846B0F8EB
:105A2000920001E06866002042F270410843FE499E
:105A3000A1F892000846B0F8940042F27041084381
:105A4000F949A1F894000846B0F8960040F0F90032
:105A5000A1F896000846B0F8980040F0F900A1F8C7
:105A600098000846B0F89A0040F0F900A1F89A00B2
:105A70000846B0F89C0040F0ED00A1F89C000846F4
:105A8000B0F89E0040F0ED00A1F89E000846B0F886
:105A9000A00040F0ED00A1F8A0007047F0BBE24983
:105AA000B1F87E1041F0ED01DF4AA2F87E101146F8
:105AB000B1F8801041F0ED01A2F880101146B1F864
:105AC000821041F0ED01A2F882101146B1F8841065
:105AD00041F0F301A2F884101146B1F8861041F0AC
:105AE000F301A2F886101146B1F8881041F0F301D5
:105AF000A2F888101146B1F88A1040F236521143CC
:105B0000C94AA2F88A101146B1F88C1040F23652F8
:105B10001143C54AA2F88C10114600E008E0B1F824
:105B20008E1040F236521143BF4AA2F88E10FFE0A9
:105B3000BD49B1F8721041F0ED01BB4AA2F87210F4
:105B40001146B1F8741041F0ED01A2F8741011463D
:105B5000B1F8761041F0ED01A2F876101146B1F8D7
:105B6000781041F0F301A2F878101146B1F87A10DC
:105B700041F0F301A2F87A101146B1F87C1041F01F
:105B8000F301A2F87C101146B1F87E1040F23652B3
:105B90001143A54AA2F87E101146B1F8801040F2D8
:105BA00036521143A04AA2F880101146B1F8821073
:105BB00040F2365211439C4AA2F8821001285AD171
:105BC0001146B1F88A1041F0ED01A2F88A10114691
:105BD000B1F88C1041F0ED01A2F88C101146B1F82B
:105BE0008E1041F0ED01A2F88E101146B1F8901020
:105BF00041F03801A2F890101146B1F8921041F02E
:105C00003801A2F892101146B1F8941041F0380111
:105C1000A2F894101146B1F8961041F03F01A2F895
:105C200096101146B1F8981041F03F01A2F8981073
:105C30001146B1F89A1041F03F01A2F89A101146AE
:105C4000B1F89C1042F636221143774AA2F89C1014
:105C50001146B1F89E1042F636221143724AA2F85C
:105C60009E101146B1F8A01042F6362211436E4A3A
:105C7000A2F8A0105CE002285AD16B49B1F88A1052
:105C800041F0F101684AA2F88A101146B1F88C106F
:105C900041F0F101A2F88C101146B1F88E1041F0DC
:105CA000F101A2F88E101146B1F8901041F0F70101
:105CB000A2F890101146B1F8921041F0F701A2F845
:105CC00092101146B1F8941041F0F701A2F8941027
:105CD0001146B1F8961041F0ED01A2F89610114668
:105CE000B1F8981041F0ED01A2F898101146B1F802
:105CF0009A1041F0ED01A2F89A101146B1F89C10EB
:105D000041F201221143484AA2F89C101146B1F811
:105D10009E1041F201221143434AA2F89E101146FF
:105D2000B1F8A01041F2012211433F4AA2F8A0109D
:105D3000704700B50346002B78D13B48B0F8780097
:105D400041F2092108433849A1F878000846B0F823
:105D50007A0041F2092108433349A1F87A00084644
:105D6000B0F87C0041F2092108432F49A1F87C00DA
:105D70000846B0F87E0042F2361108432A49A1F8DD
:105D80007E000846B0F8800042F2361108432649EA
:105D9000A1F880000846B0F8820042F236110843AC
:105DA0002149A1F882000846B0F8840041F201219F
:105DB00008431D49A1F884000846B0F8860041F266
:105DC000012108431849A1F886000846B0F8880068
:105DD00041F2012108431449A1F888000846B0F8AF
:105DE0008A0040F0F900A1F88A000846B0F88C005B
:105DF00040F0F900A1F88C000846B0F88E0040F0A1
:105E0000F900A1F88E000846B0F8900042F2F301C4
:105E100008430549A1F890000846B0F8920042F204
:105E2000F3010843004902E0686600204AE0A1F857
:105E300092000846B0F8940042F2F3010843FE498C
:105E4000A1F894000846B0F8960040F44360A1F829
:105E500096000846B0F8980040F44360A1F8980016
:105E60000846B0F89A0040F44360A1F89A0008464A
:105E7000B0F89C0040F0F700A1F89C000846B0F88C
:105E80009E0040F0F700A1F89E000846B0F8A00080
:105E900040F0F700A1F8A0000846B0F8A20040F0DA
:105EA0003800A1F8A2000846B0F8A40040F038007D
:105EB000A1F8A4000846B0F8A60040F03800A1F808
:105EC000A60030E1DC48B0F8660041F20921084341
:105ED000D949A1F866000846B0F8680041F20921E6
:105EE0000843D549A1F868000846B0F86A0041F2B5
:105EF00009210843D049A1F86A000846B0F86C00AF
:105F000042F236110843CC49A1F86C000846B0F8BB
:105F10006E0042F236110843C749A1F86E000846E8
:105F2000B0F8700042F236110843C349A1F870007E
:105F30000846B0F8720041F201210843BE49A1F8B9
:105F400072000846B0F8740041F201210843BA49D2
:105F5000A1F874000846B0F8760041F20121084328
:105F6000B549A1F876000846B0F8780040F0F9008D
:105F7000A1F878000846B0F87A0040F0F900A1F8DE
:105F80007A000846B0F87C0040F0F900A1F87C00E7
:105F90000846B0F87E0042F2F3010843A649A1F892
:105FA0007E000846B0F8800042F2F3010843A2499F
:105FB000A1F880000846B0F8820042F2F3010843DD
:105FC0009D49A1F882000846B0F8840040F443607F
:105FD000A1F884000846B0F8860040F44360A1F8B8
:105FE00086000846B0F8880040F44360A1F88800B5
:105FF0000846B0F88A0040F0F700A1F88A00084689
:10600000B0F88C0040F0F700A1F88C000846B0F81A
:106010008E0040F0F700A1F88E000846B0F890001E
:1060200040F03800A1F890000846B0F8920040F027
:106030003800A1F892000846B0F8940040F038000B
:10604000A1F89400002B27DD052B25DA1846FEF772
:10605000DEF87948B0F89C0078490978784A32F837
:10606000111008437449A1F89C000846B0F89E003E
:106070007249097832F8111008436F49A1F89E005F
:106080000846B0F8A0006D49097832F811100843AD
:106090006949A1F8A00046E0052B44D16648B0F854
:1060A0009C0041F2012108436349A1F89C00084685
:1060B000B0F89E0041F2012108435F49A1F89E001B
:1060C0000846B0F8A00041F2012108435A49A1F85E
:1060D000A0000846B0F8A20040F0F700A1F8A20026
:1060E0000846B0F8A40040F0F700A1F8A400084664
:1060F000B0F8A60040F0F700A1F8A6000846B0F8F6
:10610000A80040F0BD00A1F8A8000846B0F8AA0019
:1061100040F0BD00A1F8AA000846B0F8AC0040F07D
:10612000BD00A1F8AC0000BD4348B0F8660041F2E4
:106130008F2108434049A1F866000846B0F868007E
:1061400041F28F2108433C49A1F868000846B0F8A5
:106150006A0041F28F2108433749A1F86A000846D6
:10616000B0F86C0041F2012108433349A1F86C00FA
:106170000846B0F86E0041F2012108432E49A1F80B
:106180006E000846B0F8700041F2012108432A4928
:10619000A1F87000704730B503460C461546184606
:1061A000FEF735F842F21070834221DB2248B0F846
:1061B000660022490979224A32F8111008431E4923
:1061C000A1F866000846B0F868001C49097932F861
:1061D000111008431849A1F868000846B0F86A0091
:1061E0001649097932F8111008431349A1F86A00D9
:1061F000B3F57A7F28DB1048B0F86C000F49C978F6
:106200000F4A32F8111008430B49A1F86C000846F8
:10621000B0F86E000949C97832F8111008430649F0
:10622000A1F86E000846B0F870000449C97832F849
:1062300011100843004905E068660020DF60002077
:106240000E340108A1F87000642B21DBFE48B0F881
:106250007200FE498978FE4A32F811100843FA4963
:10626000A1F872000846B0F87400F849897832F84D
:1062700011100843F449A1F874000846B0F87600FC
:10628000F249897832F811100843EF49A1F87600F5
:106290000A2B21DBEC48B0F87800EC494978EC4A4D
:1062A00032F811100843E849A1F878000846B0F820
:1062B0007A00E649497832F811100843E249A1F81A
:1062C0007A000846B0F87C00E049497832F81110AD
:1062D0000843DD49A1F87C00DB48B0F87E00DB49CB
:1062E0000978DB4A32F811100843D749A1F87E003B
:1062F0000846B0F88000D549097832F811100843F3
:10630000D149A1F880000846B0F88200CF49097849
:1063100032F811100843CC49A1F882000846B0F8C1
:10632000840040F0C000A1F884000846B0F8860060
:1063300040F0C000A1F886000846B0F8880040F0A0
:10634000C000A1F888002046FDF761FF642C64DBE3
:10635000BD48B0F88A00BD498978BD4A32F81110AD
:106360000843B949A1F88A000846B0F88C00B7493B
:10637000897832F811100843B349A1F88C00084617
:10638000B0F88E00B149897832F811100843AE494F
:10639000A1F88E000846B0F89000AC49497832F870
:1063A00011100843A849A1F890000846B0F89200DF
:1063B000A649497832F811100843A349A1F8920080
:1063C0000846B0F89400A149497832F81110084302
:1063D0009D49A1F894000846B0F896009B490978B9
:1063E00032F8111008439849A1F896000846B0F811
:1063F00098009649097832F8111008439249A1F89B
:1064000098000846B0F89A009049097832F81110BF
:1064100008438D49A1F89A0067E00A2C43DB8A48BB
:10642000B0F88A0089494978894A32F8111008433E
:106430008549A1F88A000846B0F88C00834949785C
:1064400032F8111008438049A1F88C000846B0F8D2
:106450008E007E49497832F8111008437A49A1F834
:106460008E000846B0F890007849097832F811108B
:1064700008437549A1F890000846B0F892007349A6
:10648000097832F8111008436F49A1F892000846C4
:10649000B0F894006D49097832F8111008436A4940
:1064A000A1F8940021E06848B0F88A0067490978AB
:1064B000674A32F8111008436349A1F88A00084678
:1064C000B0F88C006149097832F8111008435E4930
:1064D000A1F88C000846B0F88E005C49097832F8C3
:1064E000111008435849A1F88E002846FDF78FFE89
:1064F0000A2D21DB5448B0F8A20054494978544A87
:1065000032F8111008435049A1F8A2000846B0F82B
:10651000A4004E49497832F8111008434A49A1F8BD
:10652000A4000846B0F8A6004849497832F811108E
:1065300008434549A1F8A6004348B0F8A8004349DC
:106540000978434A32F8111008433F49A1F8A800DE
:106550000846B0F8AA003D49097832F811100843FE
:106560003949A1F8AA000846B0F8AC0037490978C3
:1065700032F8111008433449A1F8AC0030BD00B521
:1065800003463148B0F8660042F2361108432E49FE
:10659000A1F866000846B0F8680042F236110843D8
:1065A0002949A1F868000846B0F86A0042F236119D
:1065B00008432549A1F86A000846B0F86C0040F08D
:1065C0003F00A1F86C000846B0F86E0040F03F00B4
:1065D000A1F86E000846B0F8700040F03F00A1F846
:1065E00070001846FDF713FE1748B0F878001749F9
:1065F0004978174A32F8111008431349A1F8780076
:106600000846B0F87A001149497832F81110084369
:106610000D49A1F87A000846B0F87C000B4949788A
:1066200032F8111008430849A1F87C000846B0F878
:106630007E000649097832F8111008430249A1F892
:106640007E00084606E0000068660020DF6000204B
:106650000E340108B0F88000FE49097832F81110B4
:106660000843FD49A1F880000846B0F88200F949C6
:10667000097832F811100843F749A1F8820000BDEB
:10668000F548B0F8780040F0F300F349A1F878003D
:106690000846B0F87A0040F0F300A1F87A00084606
:1066A000B0F87C0040F0F300A1F87C000846B0F898
:1066B0007E0040F0F700A1F87E000846B0F88000A8
:1066C00040F0F700A1F880000846B0F8820040F0E2
:1066D000F700A1F882000846B0F8840040F03E00C0
:1066E000A1F884000846B0F8860040F03E00A1F80A
:1066F00086000846B0F8880040F03E00A1F8880007
:106700000846B0F88A0040F0ED00A1F88A0008467B
:10671000B0F88C0040F0ED00A1F88C000846B0F80D
:106720008E0040F0ED00A1F88E000846B0F8900011
:1067300040F0F900A1F890000846B0F8920040F04F
:10674000F900A1F892000846B0F8940040F0F90072
:10675000A1F894007047C048B0F8780040F0ED0010
:10676000BD49A1F878000846B0F87A0040F0ED0085
:10677000A1F87A000846B0F87C0040F0ED00A1F8DE
:106780007C000846B0F87E0041F201210843B2497E
:10679000A1F87E000846B0F8800041F201210843CC
:1067A000AD49A1F880000846B0F8820041F201210D
:1067B0000843A949A1F882000846B0F8840040F0D7
:1067C0003F00A1F884000846B0F8860040F03F0082
:1067D000A1F886000846B0F8880040F03F00A1F814
:1067E00088000846B0F88A0040F0F300A1F88A005B
:1067F0000846B0F88C0040F0F300A1F88C00084681
:10680000B0F88E0040F0F300A1F88E007047002031
:10681000EEE0014600EBD1725210A0EB4202002ADA
:106820007AD18D4911F8101001F0800149B1C0F101
:1068300010018A4A515C41F01001C0F11002874BEF
:106840009954854911F8101001F0010139B1C0F1D6
:106850001001824A515CC0F11002804B99547E496C
:1068600011F8101001F0020139B1C0F110017B4A9A
:10687000515CC0F11002794B9954774911F810100E
:1068800001F0040139B1C0F11001744A515CC0F14A
:106890001002724B9954704911F8101001F0080160
:1068A00039B1C0F110016D4A515CC0F110026B4B5F
:1068B0009954694911F8101001F0100149B1C0F163
:1068C0001001664A515C41F02001C0F11002634B97
:1068D0009954614911F8101001F0200149B1C0F13B
:1068E00010015E4A515C41F08001C0F110025B4B27
:1068F0009954594911F8101001F04001002975D040
:10690000C0F11001554A515C41F04001C0F1100244
:10691000524B99546AE0FFE74F4911F8101001F00B
:10692000010149B1C0F110014C4A515C41F08001B4
:10693000C0F11002494B9954474911F8101001F069
:10694000020149B1C0F11001444A515C41F04001DB
:10695000C0F11002414B99543F4911F8101001F059
:10696000040149B1C0F110013C4A515C41F02001E1
:10697000C0F11002394B9954374911F8101001F049
:10698000080149B1C0F11001344A515C41F01001D5
:10699000C0F11002314B99542F4911F8101001F039
:1069A000100139B1C0F110012C4A515CC0F1100244
:1069B0002A4B9954284911F8101001F0200139B1DF
:1069C000C0F11001254A515CC0F11002234B9954CB
:1069D000214911F8101001F0400139B1C0F1100146
:1069E0001E4A515CC0F110021C4B9954411CC8B2A4
:1069F0000828FFF60EAF0820F6E0014600EBD17242
:106A00005210A0EB4202002A7ED1134911F8101057
:106A100001F0800149B1C0F10F01104A515C41F011
:106A20001001C0F10F020D4B99540B4911F81010D1
:106A300001F0010139B1C0F10F01084A515CC0F108
:106A40000F02064B9954044911F8101001F002018D
:106A500071B105E0DF60002068660020F06500206D
:106A6000C0F10F01FE4A515CC0F10F02FC4B99547A
:106A7000FC4911F8101001F0040139B1C0F10F0107
:106A8000F74A515CC0F10F02F54B9954F54911F8E2
:106A9000101001F0080139B1C0F10F01F04A515C4A
:106AA000C0F10F02EE4B9954EE4911F8101001F0AD
:106AB000100149B1C0F10F01E94A515C41F02001D8
:106AC000C0F10F02E64B9954E64911F8101001F09D
:106AD000200149B1C0F10F01E14A515C41F0800150
:106AE000C0F10F02DE4B9954DE4911F8101001F08D
:106AF0004001002976D0C0F10F01D94A515C41F024
:106B00004001C0F10F0200E002E0D54B995469E06A
:106B1000D44911F8101001F0010149B1C0F10F0181
:106B2000CF4A515C41F08001C0F10F02CC4B995427
:106B3000CC4911F8101001F0020149B1C0F10F0168
:106B4000C74A515C41F04001C0F10F02C44B995457
:106B5000C44911F8101001F0040149B1C0F10F014E
:106B6000BF4A515C41F02001C0F10F02BC4B995467
:106B7000BC4911F8101001F0080149B1C0F10F0132
:106B8000B74A515C41F01001C0F10F02B44B995467
:106B9000B44911F8101001F0100139B1C0F10F0122
:106BA000AF4A515CC0F10F02AD4B9954AD4911F899
:106BB000101001F0200139B1C0F10F01A84A515C59
:106BC000C0F10F02A64B9954A64911F8101001F01C
:106BD000400139B1C0F10F01A14A515CC0F10F026F
:106BE0009F4B9954411CC8B21028FFF606AF1020E5
:106BF00095E0102847D19B4911F8101001F00101D0
:106C000019B19749C97B964AD173964911F810106A
:106C100001F0020129B19249C97B41F00101904A7A
:106C2000D173904911F8101001F0040119B18C4989
:106C3000C97B8B4AD1738B4911F8101001F0080100
:106C400019B18749C97B864AD173864911F810105A
:106C500001F0100119B18249C97B814AD173814980
:106C600011F8101001F0200119B17D49C97B7C4A4F
:106C7000D1737C4911F8101001F0400119B1784925
:106C8000C97B774AD173112847D1764911F8101082
:106C900001F0010119B17249097C714A11747149FD
:106CA00011F8101001F0020119B16D49097C6C4A0C
:106CB00011746C4911F8101001F0040129B16849F0
:106CC000097C41F00101664A1174664911F81010FF
:106CD00001F0080119B16249097C614A11746149E6
:106CE00011F8101001F0100119B15D49097C5C4ADE
:106CF00011745C4911F8101001F0200119B15849C4
:106D0000097C574A1174574911F8101001F04001DD
:106D100019B15349097C524A1174411CC8B2122856
:106D2000FFF667AF122061E116286BD14D4911F8CB
:106D3000101001F0010149B1C0F12201484A515C33
:106D400041F00801C0F12202454B9954454911F820
:106D5000101001F0020139B1C0F12201404A515C2A
:106D6000C0F122023E4B99543E4911F8101001F037
:106D7000040139B1C0F12201394A515CC0F122024B
:106D8000374B9954374911F8101001F0080149B1F7
:106D9000C0F12201324A515C41F00101C0F12202EE
:106DA0002F4B99542F4911F8101001F0100149B1DF
:106DB000C0F122012A4A515C41F00201C0F12202D5
:106DC000274B9954274911F8101001F0200149B1BF
:106DD000C0F12201224A515C41F00401C0F12202BB
:106DE0001F4B99541F4911F8101001F04001002960
:106DF00007D0C0F122011A4A515CC0F12202184B9F
:106E00009954F1E0014600EBD1725210A0EB42021E
:106E100052BB144911F8101001F0800149B1C0F1C2
:106E200022010F4A515C41F00101C0F122020C4BDA
:106E300099540C4911F8101001F0010149B1C0F149
:106E40002201074A515C41F01001C0F12202044BBB
:106E50009954044911F8101001F0020169B104E0DD
:106E6000F06500206866002054E0C0F12201FE4A6F
:106E7000515CC0F12202FC4B9954FC4911F81010EE
:106E800001F0040139B1C0F12201F74A515CC0F1AF
:106E90002202F54B9954F54911F8101001F0080140
:106EA00049B1C0F12201F04A515C41F00201C0F148
:106EB0002202ED4B9954ED4911F8101001F0100128
:106EC00049B1C0F12201E84A515C41F00401C0F12E
:106ED0002202E54B9954E54911F8101001F0200108
:106EE00049B1C0F12201E04A515C41F00801C0F112
:106EF0002202DD4B9954DD4911F8101001F04001D8
:106F0000E9B3C0F12201D84A515CC0F12202D64B4C
:106F1000995469E0D54911F8101001F0010139B117
:106F2000C0F12201D04A515CC0F12202CE4B9954EB
:106F3000CE4911F8101001F0020149B1C0F122014F
:106F4000C94A515C41F00801C0F12202C64B995474
:106F5000C64911F8101001F0040149B1C0F1220135
:106F6000C14A515C41F00201C0F12202BE4B99546A
:106F7000BE4911F8101001F0080149B100E033E0FA
:106F8000C0F12201B84A515CC0F12202B64B9954BB
:106F9000B64911F8101001F0100139B1C0F1220109
:106FA000B14A515CC0F12202AF4B9954AF4911F87C
:106FB000101001F0200139B1C0F12201AA4A515C40
:106FC000C0F12202A84B9954A84911F8101001F001
:106FD000400149B1C0F12201A34A515C41F00401D2
:106FE000C0F12202A04B9954411CC8B21A28FFF6E6
:106FF0009BAE55D19D4911F8101001F0800129B1C7
:107000009949097A41F00101974A1172974911F89B
:10701000101001F0010119B19349097A924A1172D5
:10702000924911F8101001F0020129B18E49097A34
:1070300041F008018C4A11728C4911F8101001F0CE
:10704000040129B18849097A41F00201864A117286
:10705000864911F8101001F0080119B18249097A26
:10706000814A1172814911F8101001F0100119B113
:107070007D49097A7C4A11727C4911F8101001F09F
:10708000200119B17849097A774A1172774911F8C4
:10709000101001F0400119B17349097A724A117256
:1070A0001B2063E11F286BD1704911F8101001F00B
:1070B000010149B1C0F122016B4A515C41F0080164
:1070C000C0F12202684B9954684911F8101001F080
:1070D000020139B1C0F12201634A515CC0F12202C0
:1070E000614B9954614911F8101001F0040139B154
:1070F000C0F122015C4A515CC0F122025A4B995402
:107100005A4911F8101001F0080149B1C0F12201EB
:10711000554A515C41F00101C0F12202524B995491
:10712000524911F8101001F0100149B1C0F12201CB
:107130004D4A515C41F00201C0F122024A4B995480
:107140004A4911F8101001F0200149B1C0F12201A3
:10715000454A515C41F00401C0F12202424B99546E
:10716000424911F8101001F04001002907D0C0F188
:1071700022013D4A515CC0F122023B4B9954F3E09D
:10718000014600EBD1725210A0EB4202F2BB37492C
:1071900011F8101001F0800149B1C0F12201324A0A
:1071A000515C41F00101C0F122022F4B99542F494B
:1071B00011F8101001F0010139B1C0F122012A4A81
:1071C000515CC0F12202284B9954284911F8101043
:1071D00001F0020149B1C0F12201234A515C41F0A2
:1071E0000801C0F12202204B9954204911F81010D7
:1071F00001F0040149B1C0F122011B4A515C41F088
:107200000201C0F12202184B995400E040E01749F6
:1072100011F8101001F0080139B1C0F12201124A31
:10722000515CC0F12202104B9954104911F8101012
:1072300001F0100139B1C0F122010B4A515CC0F1DB
:107240002202094B9954094911F8101001F020014C
:1072500039B1C0F12201044A515CC0F12202024B53
:107260009954024904E00000F0650020686600209F
:1072700011F8101001F04001E9B3C0F12201FE4AFB
:10728000515C41F00401C0F12202FB4B99546BE0C8
:10729000FA4911F8101001F0010149B1C0F12201C1
:1072A000F54A515C41F01001C0F12202F24B9954B1
:1072B000F24911F8101001F0020139B1C0F12201B8
:1072C000ED4A515CC0F12202EB4B9954EB4911F8A5
:1072D000101001F0040139B1C0F12201E64A515CFD
:1072E000C0F12202E44B9954E44911F8101001F066
:1072F000080159B100E037E0C0F12201DE4A515CDB
:1073000041F00201C0F12202DB4B9954DB4911F834
:10731000101001F0100149B1C0F12201D64A515CB0
:1073200041F00401C0F12202D34B9954D34911F822
:10733000101001F0200149B1C0F12201CE4A515C88
:1073400041F00801C0F12202CB4B9954CB4911F80E
:10735000101001F0400139B1C0F12201C64A515C60
:10736000C0F12202C44B9954411CC8B22328FFF635
:1073700099AE232081E0C14911F8101001F080017D
:1073800049B1C0F15E01BE4A515C41F08001C0F1DB
:107390005E02BB4B9954B94911F8101001F001017C
:1073A00049B1C0F15E01B64A515C41F00101C0F142
:1073B0005E02B34B9954B14911F8101001F002016B
:1073C00049B1C0F15E01AE4A515C41F00201C0F129
:1073D0005E02AB4B9954A94911F8101001F0040159
:1073E00049B1C0F15E01A64A515C41F01001C0F103
:1073F0005E02A34B9954A14911F8101001F0080145
:1074000049B1C0F15E019E4A515C41F04001C0F1BA
:107410005E029B4B9954994911F8101001F010012C
:1074200049B1C0F15E01964A515C41F02001C0F1C2
:107430005E02934B9954914911F8101001F020010C
:1074400049B1C0F15E018E4A515C41F00401C0F1C6
:107450005E028B4B9954894911F8101001F04001DC
:1074600049B1C0F15E01864A515C41F00801C0F1AA
:107470005E02834B9954411CC8B22728FFF67BAFAC
:10748000272081E07D4911F8101001F0800149B1F9
:10749000C0F15E017A4A515C41F08001C0F15E02A8
:1074A000774B9954754911F8101001F0010149B159
:1074B000C0F15E01724A515C41F00101C0F15E020F
:1074C0006F4B99546D4911F8101001F0020149B148
:1074D000C0F15E016A4A515C41F00201C0F15E02F6
:1074E000674B9954654911F8101001F0040149B136
:1074F000C0F15E01624A515C41F01001C0F15E02D0
:107500005F4B99545D4911F8101001F0080149B121
:10751000C0F15E015A4A515C41F04001C0F15E0287
:10752000574B9954554911F8101001F0100149B109
:10753000C0F15E01524A515C41F02001C0F15E028F
:107540004F4B99544D4911F8101001F0200149B1E9
:10755000C0F15E014A4A515C41F00401C0F15E0293
:10756000474B9954454911F8101001F0400149B1B9
:10757000C0F15E01424A515C41F00801C0F15E0277
:107580003F4B9954411CC8B22B28FFF67BAF2B20F0
:10759000DCE02B281BD1394911F8101001F0010152
:1075A00039B1354991F82F1041F00101324A82F882
:1075B0002F10324911F8101001F0200139B12E4975
:1075C00091F82F1041F002012B4A82F82F102C283D
:1075D0001BD12A4911F8101001F0020139B12649D6
:1075E00091F8301041F00101234A82F8301023490C
:1075F00011F8101001F0400139B11F4991F8301015
:1076000041F002011C4A82F830102D281BD11B4981
:1076100011F8101001F0040139B1174991F8311037
:1076200041F00101144A82F83110144911F8101088
:1076300001F0100139B1104991F8311041F0020107
:107640000D4A82F831102E280DD10C4911F8101076
:1076500001F0080139B1084991F82B1041F00101FE
:10766000054A82F82B102F2822D1044911F8101056
:1076700001F0010171B105E0F065002068660020AD
:107680002C660020FE4991F82E1041F00101FC4AC1
:1076900082F82E10FB4911F8101001F0020139B1E7
:1076A000F74991F82E1041F00201F54A82F82E10A8
:1076B00030281BD1F34911F8101001F0200139B125
:1076C000EF4991F82D1041F00101ED4A82F82D109B
:1076D000EC4911F8101001F0400139B1E84991F876
:1076E0002D1041F00201E64A82F82D1031281BD1FD
:1076F000E44911F8101001F0040139B1E04991F8A2
:107700002C1041F00201DE4A82F82C10DD4911F8FC
:10771000101001F0100139B1D94991F82C1041F045
:107720000101D74A82F82C1032280DD1D54911F821
:10773000101001F0080139B1D14991F82B1041F036
:107740000201CF4A82F82B10411CC8B23328FFF641
:1077500020AF3320F1E3332805D03C2803D045285F
:1077600001D04E287DD1C74911F8101001F0010158
:1077700079B1A0F13301C44A32F81110C34A515C07
:1077800041F00102A0F13301BF4B33F81110BF4BA0
:107790005A54BC4911F8101001F0100179B1A0F150
:1077A0003301B94A32F81110B84A515C41F0200255
:1077B000A0F13301B44B33F81110B44B5A54B14912
:1077C00011F8101001F0200179B1A0F13301AE4A97
:1077D00032F81110AD4A515C41F00202A0F13301C0
:1077E000A94B33F81110A94B5A54A64931F810107F
:1077F00001F4807179B1A0F13301A34A32F811107C
:10780000A24A515C41F00402A0F133019E4B33F8CF
:1078100011109E4B5A549B4911F8101001F0400171
:1078200079B1A0F13301984A32F81110974A515CAE
:1078300041F00802A0F13301934B33F81110934B40
:107840005A54904931F8101001F4006149B1A0F187
:1078500033018D4A32F811108C4A515C41F010020C
:1078600000E006E0A0F13301874B33F81110874B9D
:107870005A54342805D03D2803D0462801D04F283B
:107880007DD1804911F8101001F0080179B1A0F103
:1078900033017D4A32F811107C4A515C41F02002DC
:1078A000A0F13301784B33F81110784B5A547549D5
:1078B00031F8101001F4007179B1A0F13301724A6E
:1078C00032F81110714A515C41F00202A0F133010B
:1078D0006D4B33F811106D4B5A546A4931F8101042
:1078E00001F4806179B1A0F13301674A32F81110D7
:1078F000664A515C41F00102A0F13301624B33F85A
:107900001110624B5A545F4911F8101001F08001B8
:1079100079B1A0F133015C4A32F811105B4A515C35
:1079200041F00402A0F13301574B33F81110574BCB
:107930005A54544931F8101001F4805179B1A0F132
:107940003301514A32F81110504A515C41F0100293
:10795000A0F133014C4B33F811104C4B5A544949A8
:1079600031F8101001F4005149B1A0F13301464A39
:1079700032F81110454A515C41F0080200E006E07F
:10798000A0F13301404B33F81110404B5A543528C5
:1079900005D03E2803D0472801D050282BD13949A3
:1079A00011F8101001F0020179B1A0F13301364A4B
:1079B00032F81110354A515C41F00102A0F1330157
:1079C000314B33F81110314B5A542E4911F8101025
:1079D00001F0040179B1A0F133012B4A32F8111002
:1079E0002A4A515C41F00802A0F13301264B33F8DA
:1079F0001110264B5A54362805D03F2803D048286A
:107A000001D0512861D11F4911F8101001F0100167
:107A100079B1A0F133011C4A32F811101B4A515CB4
:107A200041F01002A0F13301174B33F81110174B3E
:107A30005A54144911F8101001F0200179B1A0F145
:107A40003301114A32F81110104A515C41F0020220
:107A5000A0F133010C4B33F811100C4B5A54094967
:107A600011F8101001F04001C9B1A0F13301064A2C
:107A700032F81110054A515C41F0040208E00000A0
:107A8000F0650020686600208A3401082C6600201A
:107A9000A0F13301FE4B33F81110FE4B5A54FE494E
:107AA00031F8101001F4006179B1A0F13301F84A06
:107AB00032F81110F74A515C41F02002A0F1330175
:107AC000F34B33F81110F34B5A54372805D04028A4
:107AD00003D0492801D052287DD1EF4911F8101068
