:020000040800F2
:10000000D8780020BDAC0008C5AC0008C7AC00081B
:10001000C9AC0008CBAC0008CDAC00080000000063
:10002000000000000000000000000000CFAC00084D
:10003000D1AC000800000000D3AC0008D5AC00082B
:10004000D7AC0008D7AC0008D7AC0008D7AC000884
:10005000D7AC0008D7AC0008D7AC0008D7AC000874
:10006000D7AC000879A90008D7AC0008D7AC0008C5
:10007000D7AC0008D7AC0008D7AC0008D7AC000854
:10008000D7AC0008D7AC0008D7AC0008D7AC000844
:10009000D7AC0008D7AC0008D7AC0008D7AC000834
:1000A000D7AC0008D99F0008D7AC0008D7AC00082F
:1000B000D7AC0008D7AC0008D7AC0008D7AC000814
:1000C000D7AC0008D7AC0008D7AC0008D7AC000804
:1000D000D7AC0008D7AC0008D7AC0008D7AC0008F4
:1000E000D7AC0008D7AC0008D7AC0008D7AC0008E4
:1000F000D7AC0008D7AC0008D7AC0008D7AC0008D4
:10010000D7AC0008D7AC0008D7AC0008D7AC0008C3
:10011000D7AC0008D7AC0008D7AC0008D7AC0008B3
:10012000D7AC0008D7AC0008D7AC0008000000002E
:10013000D7AC0008D7AC0008D7AC0008D7AC000893
:10014000D7AC0008D7AC000800F002F800F05AF86D
:100150000AA090E8000C82448344AAF10107DA4522
:1001600001D100F04FF8AFF2090EBAE80F0013F01A
:10017000010F18BFFB1A43F001031847DCFB000016
:100180001CFC00000A4410F8014B14F00F0508BFD6
:1001900010F8015B240908BF10F8014B6D1E05D053
:1001A00010F8013B6D1E01F8013BF9D1641E03D02C
:1001B000641E01F8015BFBD19142E4D3704700005B
:1001C000103A24BF78C878C1FAD8520724BF30C883
:1001D00030C144BF04680C60704700000023002455
:1001E00000250026103A28BF78C1FBD8520728BF47
:1001F00030C148BF0B6070471FB50FF02CFC1FBD0E
:1002000010B510BD0DF07CFE1146FFF7F5FF00F0B4
:100210006DFB0DF09AFE03B4FFF7F2FF03BC0DF087
:100220009DFE00002DE9F05F82460C464FF0000B6A
:100230000CF07CF91CB1012C01D0022C1AD1012048
:100240000CF0F7F90CF006FAFE4908700846007841
:10025000012801D000BFFEE7012C01D0022C05D1FE
:100260004FF00109022C28D1A34626E004BB4FF031
:10027000000922E0032C03D0042C01D0052C1CD152
:100280004FF480300CF07AF90CF0B7F9EE490870B1
:1002900008460078012801D000BFFEE7042C01D0F9
:1002A000052C06D14FF44039052C06D14FF0020B36
:1002B00003E0032C01D14FF48039E449AAEB01009B
:1002C0008A452BD009DCE248504468B1E049084433
:1002D00080B1E049084470BB12E0DE49084458B3DD
:1002E000DD49084438BB30E04FF0000635462F4664
:1002F000A84633E04FF0000635462F46A8462DE0CD
:100300004FF000060CB9354603E0032C01D14FF441
:1003100000254FF480674FF000081FE001260CB95C
:10032000B50403E0032C01D14FF480154FF480672E
:100330004FF0000812E00FE0FFE702264FF4E0154F
:100340004FF4A0674FF4806808E00326C34D4FF4D4
:10035000A0674FF4806801E000BFFEE700BF3046B1
:100360000BF038F900200CF011FA40460CF020FA9E
:1003700038460CF014FA5A46294648460CF0D9F98A
:1003800001200CF0F2F900BF39200CF01AF9002816
:10039000FAD003200CF0ECF900BF0CF0F2F90C28B5
:1003A000FBD1BDE8F09F2DE9FF4104460D461646FE
:1003B0001F46AB48844204D1012104200CF020FCEC
:1003C00016E0A848844204D1012108200CF018FC52
:1003D0000EE0A548844204D1012110200CF010FC4D
:1003E00006E0A248844203D1012120200CF008FC41
:1003F000B5F5803F0EDA68460BF091FFADF800507E
:1004000002208DF802008DF80460029769462046AC
:100410000BF093FEBDE8FF8110B501231A46D90306
:100420008F48FFF7C0FF01231A4699028C48FFF757
:10043000BAFF01231A4659028948FFF7B4FF012386
:100440001A4619038648FFF7AEFF01231A46D90260
:100450008348FFF7A8FF0023012220218048FFF7EF
:10046000A2FF0023012240217D48FFF79CFF0023CB
:10047000012280217A48FFF796FF002301221146CE
:100480007848FFF790FF0023012202217548FFF70B
:100490008AFF0023012211027148FFF784FF10BD7B
:1004A00010B549200DF039FC10BD10B50121C8026E
:1004B0000CF03EFA4FF480700DF011FC49200DF065
:1004C00017FC49200DF02FFC10BD08B54FF4A060BB
:1004D0000CF06EF90121C8020CF092FB19208DF886
:1004E000000000208DF8010001208DF802008DF839
:1004F000030068460AF007FC00205D4908805D485B
:100500000DF02AF840F21B205A498880002008800C
:10051000C880488058480CF073FC01225448018878
:1005200055480DF0F7F80122114653480DF066F8D2
:10053000012151480DF048F808BD1FB501210846BA
:100540000CF051FB012110200CF05AFB0121080393
:100550000CF049FB072100200AF06EFF4FF4E04148
:1005600000200CF058F968460BF0D9FE1020ADF8C9
:10057000000003200290694639480BF0DEFD3F4839
:100580000DF0E6FB3E480DF058FC3E483C49086043
:100590003D484860002088600120C8600020086154
:1005A00048614FF4807088618000C8612020086233
:1005B000000248620020886230480DF020FC0123D0
:1005C0002E4A2E49083900200DF07BFC01212B48D2
:1005D0000DF040FC2D480AF03CFC01202B4908702E
:1005E00048704FF460204860002088600120087344
:1005F00024484C380AF0FEFB052301221946214805
:100600004C380AF0B1FC01211E484C380AF029FC94
:1006100000BF20211B484C380AF0E8FE0028F8D023
:1006200018484C380AF059FC00BF16484C380AF0FC
:1006300062FC0028F9D1012112484C380AF023FC51
:10064000012125E00700002006000020006CDC02EC
:1006500000F7C2FF00CA91FE00AFDAFD00002808D3
:1006600000080140000C014000100140001401404E
:10067000000000206C600020002C014008000240B7
:100680008C6000204C080240020000207C600020AA
:1006900087484C380AF03CFC1FBD1FB501210846B5
:1006A0000CF0A1FA012110200CF0AAFA0121080394
:1006B0000CF099FA072100200AF0BEFE4FF4E04149
:1006C00000200CF0A8F868460BF029FE0420ADF8D5
:1006D000000003200290694676480BF02EFD764814
:1006E0000DF036FB75480DF0A8FB714873490860A2
:1006F00073484860002088600120C86000200861BD
:1007000048614FF4807088618000C86120200862D1
:10071000000248620020886267480DF070FB0123E8
:10072000654A6549083900200DF0CBFB012162487C
:100730000DF090FB63480AF08CFB012061490870C2
:1007400048704FF4602048600020886001200873E2
:1007500057484C380AF04EFB052301220321544828
:100760004C380AF001FC012151484C380AF079FB61
:1007700000BF20214E484C380AF038FE0028F8D03F
:100780004B484C380AF0A9FB00BF49484C380AF0E6
:10079000B2FB0028F9D1012145484C380AF073FB1F
:1007A000012143484C380AF0B3FB1FBD00B587B0A8
:1007B000012105200CF024FA03A80BF0B0FD08205D
:1007C000ADF80C0000208DF81000059003A9394801
:1007D0000BF0B3FC032100200BF046FE0820019033
:1007E00000208DF8080008208DF8090001208DF800
:1007F0000A0001A80AF065FE09208DF80000052016
:100800008DF801000F208DF8020001208DF8030003
:1008100068460AF078FA07B000BD10B54FF4C8700A
:100820002949088001202949087001F0F9FA0020BF
:10083000274908700120274908700A2026490870B6
:1008400040F2CC402549088040F64A1024490880EF
:1008500004202449087000202349087010BD10B5F9
:10086000002401E0601C84B24EF660208442F9DB73
:10087000002401E0601C84B24EF660208442F9DB63
:10088000002401E0601C84B24EF660208442F9DB53
:10089000FFF7C2FDFFF719FEFFF74FFEFFF7FDFE62
:1008A000FFF784FFFFF701FEFFF7B7FF10BD000061
:1008B0004C08024000080140080002408C60002003
:1008C000040000207C60002026000020280000207A
:1008D0003C0000203D0000204F0000205000002080
:1008E00052000020CE00002054000020FFF7B7FF88
:1008F0001CE0FFF7D5FD05F0BFF90AF02CF805F074
:10090000BBF905F0B9F901F05DF905F0B5F905F0AD
:10091000B3F900F03DF800F00DF800BF044800887E
:10092000B0F5F97FFADD002001490880E1E7000019
:100930005801002010B50A210C4809F071FA0C4842
:1009400000880A490880084609F078FA09490880B1
:100950000A21094809F064FA084800880649088015
:10096000084609F06BFA0649088010BD386300207C
:1009700002000020560000204C63002004000020EC
:1009800058000020304908700121304A117070472A
:100990002E480078E0B100202C4908702A480078E1
:1009A00000EB40002A49085C2A4908702648007874
:1009B00000EB400026490844407827490870224847
:1009C000007800EB400022490844807823490870F1
:1009D00020480078002808DD0120214908701D48C2
:1009E0000078401E1B4908702CE000201C4908704C
:1009F0001A480078002820DD17480078002805DD17
:100A000015480078401E144908701BE01348007810
:100A1000401E124908700C48007800EB40000C4959
:100A2000085C0C4908700848007800EB4000084951
:100A3000084440780849087004E00020054908701F
:100A40000549087070470000006000200460002025
:100A50005AFB0008016000200260002003600020B3
:100A60000560002010B52DED088B8E480078012818
:100A70007ED100208B4908708B4890ED000AB5EEBE
:100A8000C00AF1EE10FA36DD884890ED000ADFED7D
:100A9000880A20EE200A8448D0ED000A80EE201A51
:100AA000844880ED001A90ED000ADFED810A80EEA7
:100AB000201A11EE104A20460EF05CFF41EC1B0B91
:100AC0009FED7D1BB0EE4B0AF0EE6B0A0DF068FA5D
:100AD000B0EE40AAF0EE60AA53EC1A2B9FED780B13
:100AE00051EC100B0EF092FA41EC190B0EF0A0F93C
:100AF0007549086000BF744890ED000ADFED730A85
:100B0000B4EEE00AF1EE10FA0DDD7148D0ED000A06
:100B1000B3EE041A80EE810AD0ED000A30EE200A0E
:100B2000694880ED000A6B480088012808DC6648A7
:100B300090ED000ADFED680A20EE200A80ED000A41
:100B4000664890ED000A664880ED000A654890ED21
:100B5000000A654880ED000A5B4890ED000A5C4899
:100B600080ED000A61490978012953D1604900E00C
:100B700050E0098896294DDD5E490988002949DD44
:100B80005D49097800290BDC5C490978012907D007
:100B90005B490978012903D05A490978012907D10D
:100BA0005949087800EBD0714910A0EB410159B1C7
:100BB0005149097871BB5149097859BB50490978A5
:100BC00041BB5049097829BB3F4890ED000A37489E
:100BD000D0ED000A20EE208AB1EE000A68EE000A8D
:100BE0009FED4A1A80EE810AD0ED000AB2EE081A93
:100BF000C0EE811A30EE210A454880ED000A4548D2
:100C000090ED000A4248D0ED000A30EE200A41483B
:100C100080ED000A35480078042803D03E4800786B
:100C2000012834D19FED3D0A2D4880ED000A9FED4B
:100C30003B0A274880ED000A9FED380A384880EDCE
:100C4000000A9FED360A80ED010A9FED340A80ED1F
:100C5000020A9FED320A80ED030A9FED300A80ED13
:100C6000040A9FED2E0A80ED050A0020194908802C
:100C70009FED2A0A2B4880ED000A9FED280A2A489A
:100C800080ED000A9FED250A164880ED000A0E4807
:100C900090ED000ABCEEC00A10EE100A80B2BDEC66
:100CA000088B10BD0402002020020020F00100206B
:100CB0000000FA438400002000000000000008400B
:100CC00066666666666606405C0000200000484472
:100CD00060000020F40100209A99993FFC01002057
:100CE00000020020680000206C000020140000209A
:100CF0007801002068010020D1000020D2000020EF
:100D0000D3000020D4000020D700002000408345FD
:100D100024020020280200202C02002000000000F5
:100D200044020020700000206400002030B504461A
:100D300000209FEDF93AF0EE431A9FEDF73AF0EEFE
:100D4000432A9FEDF53AB0EE432A9FEDF33AB0EE19
:100D5000430A9FEDF13AF0EE430A9FEDEF3AB0EE11
:100D6000431A002968DD00BF2CE004EBC005D5ED77
:100D7000003A04EBC00595ED014AB0EE423A03EEAD
:100D8000843AB0EE432A04EBC00595ED003A33EE09
:100D9000003AB0EE430A04EBC00595ED013A33EE9C
:100DA000203AF0EE430A04EBC005D5ED003A04EB1F
:100DB000C00595ED004AB0EE413A03EE843AB0EE3C
:100DC000431A401C8842D0DB03EE101AB8EEC33A37
:100DD00023EE013A60EE003AB4EEE33AF1EE10FA97
:100DE00014DD03EE101AB8EEC33A63EE023A40EE99
:100DF000603A03EE101AB8EEC33A23EE013A00EE61
:100E0000403A83EE834AF0EE441A03E09FEDC23A83
:100E1000F0EE431A03EE101AB8EEC33AC0EE833A6E
:100E200021EE804A03EE101AB8EEC33AC4EE034A2C
:100E300033EEE43AF0EE432AC2ED001AC3ED002A85
:100E400030BD2DE9F0412DED068B9FEDB30AB0EEDC
:100E5000408A0026B1480078012842D10020AF49DD
:100E6000087006252C462DE0AD4800EB840090ED7F
:100E7000000A30EE080AB0EE408AAA4800EB84006F
:100E800090ED000AB5EEC00AF1EE10FA13DDA548A8
:100E900000EB840090ED000AF7EE000A80EE801A65
:100EA000601BA14901EBC00080ED011A601B01EB42
:100EB000C00080ED008A782C00DD08E0701C86B24E
:100EC000601CC4B299480068401BA042CCD800BF47
:100ED000974B984A31469448FFF728FF01209649DE
:100EE0000870944890ED000A9448D0ED000A20EE76
:100EF000200AB0EE408A924880ED008A90ED000A08
:100F0000B5EEC00AF1EE10FA08D990ED000ADFED57
:100F10008D0AB4EEE00AF1EE10FA04DD9FED8A0AC4
:100F2000874880ED000A864890ED000ADFED870AC9
:100F300080EE201A11EE107A38460EF01BFD41ECBF
:100F40001A0B9FED831BB0EE4A0AF0EE6A0A0DF011
:100F500027F8B0EE409AF0EE609A51EC190B0DF0C4
:100F600067FF7D490860764890ED000ADFED7B0A57
:100F700020EE200A7A4880ED000A90ED000ABCEECF
:100F8000C00A10EE100A77490880754890ED000AF3
:100F9000BCEEC00A10EE100A73490880734890ED49
:100FA000000AF2EE040AB4EEE00AF1EE10FA05D2FD
:100FB0009FED6F0A6F4880ED000A24E06B4890EDCA
:100FC000000ADFED6D0AB4EEE00AF1EE10FA05D288
:100FD0009FED6A0A674880ED000A14E0634890EDCF
:100FE000000ADFED670AB4EEE00AF1EE10FA05D26E
:100FF0009FED640A5F4880ED000A04E09FED620AFD
:101000005C4880ED000A5B48D0ED000A5548008836
:1010100000EE100AB8EE400A20EE800ADFED5B0A0F
:1010200080EE201A534880ED001ABDEC068BBDE817
:10103000F08110B52DED068B55480078012869D157
:1010400054480078012865D1002051490870524861
:10105000008810B9002051490880FFF703FD4E4970
:1010600008804E4800880988884203DA4A48008888
:101070004A4908804A4800880EF037F941EC1A0BBB
:101080009FED480B53EC102B0DF0C0FF41EC190BFA
:101090000DF0CEFE044620460EF06CFC41EC1A0B1F
:1010A0009FED421BB0EE4A0AF0EE6A0A0CF078FFA0
:1010B000B0EE409AF0EE609A51EC190B0DF0B8FECC
:1010C00008EE100AB5EEC08AF1EE10FA04DD9FEDCD
:1010D000390AC0EE088A01E0DFED0F8AF5EEC08A1A
:1010E000F1EE10FA0EDD0A21334808F099FEBCEE4D
:1010F000E80A10EE100A30490880084608F09EFE03
:101100002E4908802D48008800285BDD2B48008888
:101110002B49088061E0000000000000060200206A
:1011200040460020A03600205C020020080200207B
:101130001860002014600020226000201060002051
:101140000C60002082A8FB390742B23833333340A9
:10115000696FF085C954D53F0C0200200024744902
:101160001C6000200A60002020600020D4010020C4
:10117000CDCC4C3DE801002000007042CDCCCC3DF0
:101180000000F042CDCC4C3E9A99993E0000AA4214
:101190006D01002014000020080000200E00002037
:1011A0002E0000200000000000407F4000000000F2
:1011B000000008409A9939401C0600202A6000204F
:1011C00010000020FD480088002803DD0120FC49B4
:1011D000088002E00020FA490880BDEC068B10BDB3
:1011E000F8480078012847D1F7480078012843D112
:1011F0000020F4490870F548008801283CDDF448D7
:101200000088401CF2490880F248008810B900208C
:10121000F1490880F1480078EE49088008460088C6
:10122000632801DD63200880EB480088E9490988CC
:10123000884203DAE7480088E7490880E848006800
:10124000E44909880844E6490860E1480088002824
:1012500008DD08460068DE490988B0FBF1F0E14985
:10126000088002E00020DF490880DE48008863280B
:1012700002DD6320DB490880704710B5DA4800784A
:1012800000280BDCD9480078012807D0D84800781E
:10129000012803D0D748007801284DD1D6490878D5
:1012A00000EBD0714910A0EB4101012905D1D349D0
:1012B000097811B90720FFF765FBCF49087800EBE3
:1012C000D0714910A0EB410191B9CC4909780129AD
:1012D0000ED10020CA490880CA490860CA4908805E
:1012E000CA480068CA490860CA480088CA490880D4
:1012F000C648006810B90020C5490860C548008884
:1013000010B90020C4490880C0480068C049096875
:10131000401ABC490860BF480088BF490988401A84
:10132000B9490880B449087800EBD0714910A0EBA6
:101330004101B24A11700AE00020B1490880B14968
:101340000860B1490880B2490860B34908809E48E6
:101350000078012808D1B148007828B9B048007851
:10136000401CAF49087006E097480078012802D079
:101370000020AB4908709449097801297BD1A7491D
:1013800009780029FAD1A7490988962903DD8F49F0
:101390000988002924DCA4490978012907D1A34937
:1013A000098800291CDCA2490988002918DC8E491B
:1013B000097800290BDC8D490978012907D08C496F
:1013C0000978012903D08B4909780129D6D18A49A6
:1013D000087800EBD0714910A0EB410101294AD1F6
:1013E00093480088401C924908807F480078002874
:1013F0000BDC7E480078012807D07D480078012862
:1014000003D07C480078012854D17749097808290D
:1014100023D07549097809291FD0734909780A2909
:101420001BD0714909780B2917D06F4909780C290D
:1014300013D06D4909780E290FD06B4909780D2911
:101440000BD069490978112907D068490978012921
:1014500003D06749097801290ED16749087800EB64
:10146000D0714910A0EB410131B972480088401C8D
:10147000704908801EE039E06E480088002819DDB8
:101480006C480088401E6B4908806B480088401CEF
:10149000694908805849087800EBD0714910A0EBE1
:1014A0004101012906D163480088022802DC072097
:1014B000FFF768FA5E4800883C2812DB00205C4990
:1014C00008805A480088401C58490880084600880F
:1014D00041F27071884204DB00205449088054496D
:1014E000088056480088401C5449088010BD70B5DB
:1014F0002DED088B524800780A2190FBF1F0C5B21F
:101500004F48007890FBF1F201FB1200052801DB47
:10151000681CC5B205B901250A2D00DD0A252A4837
:101520000078012849D13F480088962845DD2748A2
:1015300000880028FADD2C49097800290BDC2B49AA
:101540000978012907D02A490978012903D02949B6
:101550000978012916D12849087800EBD071491083
:10156000A0EB410101290DD13648008838B9364831
:101570000078012803D12548006834490860BDEC93
:10158000088B70BD2148006860B900203049088090
:101590003049088030490880304908802B4908606C
:1015A0002F4908802F4890ED000ABCEEC00A10EECB
:1015B000100A184908802C4858E07EE108000020F5
:1015C000100000206E01002014000020680100209F
:1015D000326000203460002036600020EC010020E2
:1015E0003C60002038600020D1000020D2000020A4
:1015F000D3000020D4000020D70000205860002035
:101600004260002048600020446000201C00002050
:101610004C60002018000020466000203C020020A2
:1016200040600020780100203E00002016000020CD
:101630001A000020E4000020E60000201200002034
:10164000086000200A0000209F0000205C6000204D
:10165000340000202C000020360000202E00002046
:1016600060600020280200201402002090ED000A93
:10167000BCEEC00AFE4880ED000A0068FD498842C1
:1016800002D30846FA490860FB480088C0EB001006
:10169000FA49098801EB80004FF4967190FBF1F252
:1016A00001FB120050B9F2480068F5490860F5489E
:1016B0000088F54908800020F4490880EC4800883B
:1016C000EF490988401AF2490880EE480088EE493F
:1016D0000988401AEF490880EF480078012879D13D
:1016E0000020ED490870ED480088002814DDEB4823
:1016F00000880DF0FAFD41EC1A0B53EC1A2B9FED0C
:10170000E80B51EC100B0DF081FC41EC190B0DF0C6
:101710008FFB08EE100A01E09FEDE38A18EE100A35
:101720000EF028F941EC1A0B9FEDE01BB0EE4A0ACF
:10173000F0EE6A0A0CF034FCB0EE409AF0EE609ADB
:1017400051EC190B0DF074FB08EE900A9FEDD90ACD
:1017500028EE800ABCEEC00A10EE100AD6490880B6
:1017600008460088002807DD08460088D34991FB19
:10177000F0F0D349088002E00020D1490880D14828
:101780000078012807D0D0480078012803D0CF483E
:101790000078012823D1CE49087800EBD071491098
:1017A000B54A1288C2EB0212B44B1B8803EB8202CB
:1017B000C84B1B8803FB11214FF4FA7201FB02F4A2
:1017C000AB48006838B1AA480068B4FBF0F0C249E1
:1017D00008801DE090E00020BF49088018E0A6487E
:1017E0000088C0EB0010A549098801EB80004FF488
:1017F000FA7100FB01F49E48006830B19C48006813
:10180000B4FBF0F0B449088002E00020B24908803F
:10181000B2480088A8490988884202DCAF4800889D
:1018200018B9A5480088AD4908809C4800880DF08B
:101830005CFD41EC1B0B9FEDAA0B53EC102B0DF044
:10184000A3FD41EC1A0B9FEDA80B53EC102B0DF0F0
:1018500021FB41EC190B0DF0EBFA08EE100ABCEE7F
:10186000C80A10EE100AA2490880A2480088098818
:10187000884203DA9E4800889E4908808148008893
:101880004FF4616100FB01F47C480088002803DC10
:101890007948008800280CDD77480088C0EB0010EC
:1018A0007649098801EB8000B4FBF0F0924908808A
:1018B00022E00020904908801EE090480078D8B9C6
:1018C00000208C490880854908808B49088082491E
:1018D00008808B4908608B4908809FED730A8A480D
:1018E00080ED000A9FED700A884880ED000A9FEDA8
:1018F0006E0A874880ED000A00BF40E67F490978FC
:1019000001292AD18349097819B983490978814A7B
:1019100011708249097819B97F4909787F4A117095
:101920007C4909787C4A1278914203DA7A4909782D
:10193000784A117079490978774A1278914203DD23
:1019400075490978754A117072490978734A127895
:1019500088184108724A117002E000216F4A117024
:10196000704730B56F4C248844B16F4C24882CB13B
:101970006C4C24886C4D2D88AC4203D100246B4DF7
:101980002C701EE1674C2488674D2D88AC4202DA2A
:10199000644C248801E0644C24882146614C2488EE
:1019A000614D2D88AC4202DA5F4C248801E05D4C29
:1019B000248823465C1A102C03DA00245B4D2C701B
:1019C000FFE05C1A5A4D2D7894FBF5F4A2B200208A
:1019D00005E00024574D25F81040441CE0B21028C3
:1019E000F7DB002006E002FB0014524D25F8104002
:1019F000441CE0B24E4C2478A042F4DB494C2488CD
:101A0000494D2D88AC4231DA01202DE0012809D161
:101A1000484C6488484D2D88AC4223DB0124434D5B
:101A20002C701FE0424C2478641E424D35F814405F
:101A3000414D2D88AC4204DA3D4C24783B4D2C704E
:101A400010E0441E3B4D35F814403B4D2D88AC4210
:101A500008DA384C34F81040374D2D88AC4201DBA1
:101A6000324C2070441CE0B2314C67E06BE0000067
:101A70001C0000203C860100160000201A000020F7
:101A80005C60002018000020606000201200002030
:101A90000A0000200C0000206F0100200800002038
:101AA0006666666666660640000000005555555538
:101AB0005555D53F0000FA432A000020A0BB0D0079
:101AC00030000020D4000020D2000020D3000020ED
:101AD000D7000020F20000202E0000202C00002063
:101AE000508D976E12830B408195438B6CC372406F
:101AF00032000020340000203600002014000020B6
:101B00003C600020326000205060002054600020C3
:101B10001402002039000020240000206260002010
:101B20003800002050000020520000204E0000200D
:101B30004F00002030060020580000202478A042EA
:101B4000FFF664AF3DE03B4C24883B4D2D88AC4212
:101B500037DD012031E001280AD1384C6488384D46
:101B60002D88AC4227DB374C2478374D2C7022E08F
:101B7000344C2478641E314D35F81440304D2D8896
:101B8000AC4203DA0124304D2C7014E0441E2B4D7E
:101B900035F814402A4D2D88AC420CDA274C34F825
:101BA0001040274D2D88AC4205DB264C2478241AA2
:101BB000641C254D2C70441CE0B2224C2478A042B9
:101BC000C9DB30BD10B52148007840B92048007805
:101BD000022804DC1E480078401C1D4908701C487F
:101BE0000078022810D101231A4641031948FEF754
:101BF000DAFB0123002259031648FEF7D4FB1448F0
:101C00000078401C12490870FFF71BF9FFF711FA22
:101C1000FFF7E6FAFFF7A5FEFFF770FEFFF72DFBD3
:101C2000FFF765FC05F03FFF07F0CCFB04F0E8F898
:101C300010BD00005000002052000020300600209F
:101C4000580000204F0000204E0000203C020020E1
:101C5000540000200008014006E040F23C6100E032
:101C6000491E0029FCD1401E0028F6D1704705E02E
:101C7000022100E0491E0029FCD1401E0028F7D1B6
:101C800070470146002000E0401E0028FCD170474C
:101C900070B504460D46002621E004F0800028B10E
:101CA0004FF4007188480AF060FB04E04FF40071C3
:101CB00085480AF05EFB4FF4806183480AF059FBC7
:101CC0006006040E0A20FFF7DCFF4FF480617E48B7
:101CD0000AF04BFB0A20FFF7D4FF701CC6B2AE42DD
:101CE000DBDB70BD10B504464FF4805176480AF036
:101CF00040FB4FF4006174480AF03BFB0120FFF702
:101D0000B6FF08212046FFF7C3FF0120FFF7AFFF12
:101D10004FF480516C480AF028FB4FF400616A4888
:101D20000AF023FB10BD70B505460C464FF48051F8
:101D300065480AF01EFB4FF4006163480AF019FB86
:101D40000120FFF794FF08212846FFF7A1FF01209B
:101D5000FFF78DFF08212046FFF79AFF0120FFF7CC
:101D600086FF4FF4805158480AF0FFFA4FF40061A3
:101D700055480AF0FAFA70BD10B54FF48051524838
:101D80000AF0F7FA0420FFF772FF08218020FFF71E
:101D90007FFF0420FFF76BFF08210020FFF778FF8B
:101DA000002409E00420FFF762FF4849085D08218C
:101DB000FFF76EFF601CC4B23C2CF3DB0420FFF77E
:101DC00056FF4FF4805140480AF0CFFA4FF40061BB
:101DD0003D480AF0CEFA0420FFF749FF0821802091
:101DE000FFF756FF0420FFF742FF08210020FFF70E
:101DF0004FFF002409E00420FFF739FF3449085D54
:101E00000821FFF745FF601CC4B23C2CF3DB042023
:101E1000FFF72DFF4FF400612B480AF0A6FA10BD22
:101E200010B5AA20FFF75EFF0220FFF715FF002183
:101E3000C020FFF778FF0A20FFF719FF0021C2201A
:101E4000FFF771FF0A20FFF712FF1321D020FFF7E1
:101E50006AFF73218220FFF766FF0A20FFF707FF62
:101E600001218420FFF75FFF0A20FFF700FF022116
:101E70008820FFF758FF0A20FFF7F9FE032186208C
:101E8000FFF751FF0A20FFF7F2FE10BD10B5AA20A0
:101E9000FFF728FF0220FFF7DFFE02218620FFF771
:101EA00042FF0A20FFF7E3FE10BD10B5AA20FFF79E
:101EB00019FF0220FFF7D0FE03218620FFF733FF32
:101EC0000A20FFF7D4FE10BD000801405006002094
:101ED0008C0600200146002003E0FE4A1154421CFB
:101EE000D0B23C28F9DB002003E0FB4A1154421C2D
:101EF000D0B23C28F9DB002004E0F84A22F81010A8
:101F0000421CD0B25728F8DB7047F549B0FBF1F21C
:101F100001FB1200F349B0FBF1F1F34A5171F149B1
:101F2000B0FBF1F201FB120042F21071B0FBF1F1D3
:101F3000ED4A117142F21071B0FBF1F201FB120097
:101F40004FF47A71B0FBF1F1E74AD1704FF47A7136
:101F5000B0FBF1F201FB12006421B0FBF1F1E24AA7
:101F600091706421B0FBF1F201FB12000A21B0FB79
:101F7000F1F1DD4A51700A21B0FBF1F201FB1201CF
:101F8000D94A1170704710B503460C461846FFF742
:101F9000BCFF0A2B12DBD1480088D3494978D34AC9
:101FA00032F811100843CD49088008464088CE49D0
:101FB000497832F811100843C8494880C7488088DA
:101FC000C9490978C94A32F811100843C3498880C1
:101FD0000846C088C449097832F811100843BF493F
:101FE000C8802046FFF791FFBC480089BE49497868
:101FF000BE4A32F811100843B849088108464089A2
:10200000B949497832F811100843B4494881084663
:102010008089B549097832F811100843AF498881A1
:102020000846C089B049097832F811100843AB4915
:10203000C88110BD00B503461846FFF766FFB3F52B
:102040007A7F12DBA5480088A749C978A74A32F8E9
:1020500011100843A149088008464088A249C97860
:1020600032F8111008439D494880642B12DB9B48CD
:1020700080889D4989789D4A32F811100843974914
:1020800088800846C0889849897832F8111008433A
:102090009249C8800A2B12DB9048008992494978FE
:1020A000924A32F8111008438C4908810846408949
:1020B0008D49497832F8111008438849488187488A
:1020C000808989490978894A32F81110084383497F
:1020D00088810846C0898449097832F8111008437C
:1020E0007E49C88100BD00B503461846FFF70DFFC5
:1020F000B3F57A7F12DB7948008A7B49C9787B4A3D
:1021000032F811100843754908820846408A76491A
:10211000C97832F81110084370494882642B12DBE9
:102120006E48808A70498978704A32F811100843E5
:102130006A4988820846C08A6B49897832F811104A
:1021400008436649C8820A2B12DB6448008B664943
:102150004978664A32F811100843604908830846F6
:10216000408B6149497832F8111008435B49488334
:102170005A48808B5C4909785C4A32F81110084350
:10218000564988830846C08B5749097832F81110A0
:1021900008435249C88300BD00B503461846FFF7FF
:1021A000B4FE42F21070834212D34C48008C4E4968
:1021B00009794E4A32F81110084348490884084604
:1021C000408C4949097932F8111008434349488441
:1021D000B3F57A7F12D34148808C4349C978434A8A
:1021E00032F8111008433D4988840846C08C3E49A6
:1021F000C97832F8111008433849C884642B12D3C7
:102200003648008D38498978384A32F81110084329
:10221000324908850846408D3349897832F81110D3
:1022200008432E4948850A2B12D32C48808D2E490D
:1022300049782E4A32F81110084328498885084603
:10224000C08D2949497832F8111008432349C885BF
:102250002248008E24490978244A32F81110084394
:102260001E4908860846408E1F49097832F8111029
:1022700008431A49488600BD00B503461846FFF7D3
:1022800044FE42F21070834212DB1448008C16495F
:102290000979164A32F81110084310490884084693
:1022A000408C1149097932F8111008430B494884D0
:1022B000B3F57A7F21DB0948808C0B49C9780B4A3A
:1022C00032F811100843054988840846C08C064935
:1022D000C9780DE0500600208C060020C8060020BA
:1022E00040420F00A08601006360002072FB0008DE
:1022F00032F811100843FE49C884642B12DBFC48F5
:10230000008DFC498978FC4A32F811100843F849DD
:1023100008850846408DF749897832F8111008433E
:10232000F34948850A2B12DBF148808DF149497841
:10233000F14A32F811100843ED4988850846C08DEE
:10234000EC49497832F811100843E949C885E84852
:10235000008EE8490978E84A32F811100843E44948
:1023600008860846408EE349097832F81110084380
:10237000DF49488600BD10B503460C461846FFF7F6
:10238000C4FD642B09DBDA48808EDA498978DA4AA1
:1023900032F811100843D64988860A2B12DBD4483C
:1023A000C08ED4494978D44A32F811100843D04934
:1023B000C8860846008FCF49497832F81110084383
:1023C000CB490887CA48408FCA490978CA4A32F8B7
:1023D00011100843C64948870846808FC5490978C7
:1023E00032F811100843C24988872046FFF78DFD57
:1023F000BF48C08FBF494978BF4A32F8111008431F
:10240000BB49C8870846B0F84000BA49497832F855
:1024100011100843B649A1F840000846B0F8420040
:10242000B449097832F811100843B149A1F84200C3
:102430000846B0F84400AF49097832F81110084353
:10244000AB49A1F8440010BD00B503461846FFF79C
:102450005CFDB3F57A7F0BDBA548B0F84600A549D3
:10246000C978A54A32F811100843A149A1F84600DD
:10247000642B0BDB9E48B0F848009E4989789E4A41
:1024800032F8111008439A49A1F848000A2B0BDBD7
:102490009748B0F84A0097494978974A32F811109E
:1024A00008439349A1F84A009148B0F84C0091497B
:1024B0000978914A32F8111008438D49A1F84C006F
:1024C00000BD00B503461846FFF71FFDB3F57A7F40
:1024D0000BDB8748B0F846008649C978864A32F84F
:1024E000111008438249A1F84600642B0BDB804899
:1024F000B0F848007F4989787F4A32F811100843C4
:102500007B49A1F848000A2B0BDB7948B0F84A0058
:1025100078494978784A32F8111008437449A1F88B
:102520004A007348B0F84C0072490978724A32F890
:10253000111008436E49A1F84C0000BD00B50346D8
:102540001846FFF7E2FCB3F57A7F0BDB6848B0F87A
:102550004E006849C978684A32F811100843644946
:10256000A1F84E00642B0BDB6148B0F850006149C4
:102570008978614A32F8111008435D49A1F850008A
:102580000A2B0BDB5A48B0F852005A4949785A4A8C
:1025900032F8111008435649A1F852005448B0F8D7
:1025A000540054490978544A32F8111008435049EC
:1025B000A1F8540000BD0A2871DB0A2190FBF1F15B
:1025C0004D4A32F811104A4AB2F856201143484A8F
:1025D000A2F856100A2190FBF1F1474A32F8111087
:1025E000434AB2F858201143414AA2F858100A2130
:1025F00090FBF1F1404A32F811103D4AB2F85A20EE
:1026000011433B4AA2F85A100A2190FBF1F13A4AD1
:1026100032F81110364AB2F85C201143344AA2F85D
:102620005C100A2190FBF1F201FB1201324A32F8F0
:1026300011102F4AB2F85E2011432D4AA2F85E1005
:102640000A2190FBF1F201FB12012B4A32F8111022
:10265000274AB2F860201143254AA2F860100A21E7
:1026600090FBF1F201FB1201234A32F81110204ACB
:10267000B2F8622011431E4AA2F862100A2190FBB0
:10268000F1F201FB12011C4A32F81110184AB2F89B
:1026900064201143164AA2F864104CE0FFE7144985
:1026A000B1F8561041F03801114AA2F856101146FF
:1026B000B1F8581041F03801A2F858101146B1F89D
:1026C0005A1041F03801A2F85A101146B1F85C10C6
:1026D00041F03801A2F85C101146B1F85E10064ACC
:1026E00032F810201143024AA2F85E10114605E0AC
:1026F000C80600206360002072FB0008B1F860107B
:10270000F94A32F810201143F84AA2F86010114635
:10271000B1F86210F44A32F810201143F34AA2F8DB
:1027200062101146B1F86410EF4A32F810201143DC
:10273000EE4AA2F864107047002805DDEC49097ED6
:1027400041F08001EA4A1176012805DDE849097E59
:1027500041F04001E64A1176022805DDE449497E50
:1027600041F08001E24A5176032805DDE049497EC7
:1027700041F04001DE4A517604280ADDDC49897EB9
:1027800041F08001DA4A91761146897E41F040019C
:102790009176052805DDD649C97E41F04001D44A2D
:1027A000D17606280ADDD249C97E41F08001D04A9F
:1027B000D1761146097F41F040011177072805DDE8
:1027C000CB49097F41F08001C94A117708280ADD09
:1027D000C749497F41F04001C54A51771146497FB9
:1027E00041F08001517709280ADDC149897F41F014
:1027F0008001BF4A91771146C97F41F08001D177AE
:102800000A2805DDBA49C97F41F04001B84AD177AD
:102810000B280EDDB64991F8201041F08001B44A32
:1028200082F82010114691F8201041F0400182F802
:1028300020100C2807DDAE4991F8211041F08001ED
:10284000AB4A82F821100D280EDDA94991F821101C
:1028500041F04001A64A82F82110114691F8221059
:1028600041F0800182F822100E280EDDA04991F877
:10287000221041F040019E4A82F82210114691F840
:10288000231041F0400182F823100F2807DD9849FA
:1028900091F8231041F08001954A82F82310102806
:1028A0000EDD934991F8241041F04001904A82F8DE
:1028B0002410114691F8241041F0800182F8241070
:1028C000112807DD8A4991F8251041F04001884A16
:1028D00082F8251012280EDD854991F8251041F067
:1028E0008001834A82F82510114691F8261041F0A4
:1028F000400182F8261013280EDD7D4991F826103C
:1029000041F080017A4A82F82610114691F827108A
:1029100041F0800182F82710142807DD744991F8EE
:10292000281041F08001724A82F8281015280EDD27
:102930006F4991F8281041F040016D4A82F8281043
:10294000114691F8291041F0800182F829101628CB
:1029500007DD674991F8291041F04001644A82F887
:10296000291017280EDD624991F82A1041F08001E4
:102970005F4A82F82A10114691F82A1041F040016E
:1029800082F82A1018280EDD594991F82B1041F0D1
:102990004001574A82F82B10114691F82B1041F054
:1029A000800182F82B10192807DD514991F82C106D
:1029B00041F040014E4A82F82C101A280EDD4C4995
:1029C00091F82C1041F08001494A82F82C101146F0
:1029D00091F82D1041F0400182F82D101B2807DDE1
:1029E000434991F82D1041F08001414A82F82D10A1
:1029F0001C280EDD3E4991F82E1041F040013C4A62
:102A000082F82E10114691F82E1041F0800182F8C4
:102A10002E101D280EDD364991F82F1041F080014F
:102A2000334A82F82F10114691F8301041F080019E
:102A300082F830101E2807DD2D4991F8301041F042
:102A400040012B4A82F830101F280EDD284991F8EA
:102A5000311041F08001264A82F83110114691F878
:102A6000311041F0400182F831107047212818D20E
:102A7000DFE800F01711181F262D4047535A6672E1
:102A8000798992A2B2BBCBD4F1EFEEEDECEBEAE99F
:102A9000E8E7E6E5E4001649097E41F08001144AC2
:102AA000117685E11249097E41F04001104A117604
:102AB0007EE10F49497E41F080010D4A517677E170
:102AC0000B49497E41F04001094A517670E10849BD
:102AD000897E41F08001064A91761146897E41F057
:102AE0004001917664E1000072FB0008C8060020F6
:102AF0008C060020F849C97E41F04001F64AD176A3
:102B000056E1F549C97E41F08001F34AD17611467C
:102B1000097F41F0400111774AE1EF49097F41F017
:102B20008001ED4A117743E1EB49497F41F04001D3
:102B3000E94A51771146497F41F08001517737E1E9
:102B4000E549897F41F08001E34A91771146C97FC9
:102B500041F08001D1772BE1DF49C97F41F040018D
:102B6000DD4AD17724E1DC4991F8201041F0800161
:102B7000D94A82F82010114691F8201041F0400106
:102B800082F8201014E1D44991F8211041F080011D
:102B9000D14A82F821100BE1CF4991F8231041F07E
:102BA0004001CD4A82F82310114691F8221041F0DD
:102BB000400182F82210FBE0C74991F8231041F050
:102BC0004001C54A82F82310114691F8221041F0C5
:102BD000400182F82210EBE0BF4991F8231041F048
:102BE0008001BD4A82F82310E2E0BB4991F824102D
:102BF00041F04001B84A82F82410114691F824109F
:102C000041F0800182F82410D2E0B34991F82510F8
:102C100041F04001B04A82F82510C9E0AE4991F870
:102C2000251041F08001AC4A82F82510114691F838
:102C3000261041F0400182F82610B9E0A8E09EE09D
:102C40008DE07CE072E061E057E046E035E02BE0AB
:102C50001AE010E0FFE7A04991F8261041F080014A
:102C60009D4A82F82610114691F8271041F0800104
:102C700082F827109CE0984991F8281041F08001D3
:102C8000954A82F8281093E0934991F8281041F072
:102C90004001914A82F82810114691F8291041F01C
:102CA000800182F8291083E08B4991F8291041F0C6
:102CB0004001894A82F829107AE0874991F82A1060
:102CC00041F08001844A82F82A10114691F82A10B6
:102CD00041F0400182F82A106AE07F4991F82B10F8
:102CE00041F040017C4A82F82B10114691F82B10DC
:102CF00041F0800182F82B105AE0774991F82C10AE
:102D000041F04001744A82F82C1051E0724991F868
:102D10002C1041F08001704A82F82C10114691F875
:102D20002D1041F0400182F82D1041E06A4991F8E0
:102D30002D1041F08001684A82F82D1038E0664974
:102D400091F82E1041F04001634A82F82E1011468E
:102D500091F82E1041F0800182F82E1028E05E4993
:102D600091F82F1041F080015B4A82F82F10114634
:102D700091F8301041F0800182F8301018E0564987
:102D800091F8301041F04001534A82F830100FE0C2
:102D9000514991F8311041F080014F4A82F83110C9
:102DA000114691F8311041F0400182F8311000BF16
:102DB00000BF704710B504462046FFF7A6F8642C04
:102DC00024DB002320E063B9444890F829004449FB
:102DD0008978444A12F811100843404981F82900C3
:102DE00010E03F48807800EB40003F4901EB400095
:102DF00010F81300C3F12901384A515C0843C3F1AC
:102E000029015054581CC3B2032BDCDB0A2C16DBFF
:102E1000002312E03248407800EB4000324901EBD9
:102E2000400010F81300C3F125012C4A515C0843FF
:102E3000C3F125015054581CC3B2032BEADB002315
:102E400012E02748007800EB4000274901EB4000E2
:102E500010F81300C3F12101204A515C0843C3F16B
:102E600021015054581CC3B2032BEADB10BD10B52E
:102E70000146002067E031F81020462A0ADDC0F143
:102E80002802164B9A5C42F00102C0F12803134C51
:102E9000E25456E031F810203C2A06DD0E4A125C5E
:102EA00042F001020C4B1A544BE031F81020322A48
:102EB00006DD094A125C42F00202074B1A5440E058
:102EC00031F81020282A11DD034A125C42F0040276
:102ED000014B1A5435E000008C06002050060020FB
:102EE00063600020D6FB00089AFB000831F8102030
:102EF0001E2A06DDFE4A125C42F00802FC4B1A5400
:102F00001FE031F81020142A06DDF94A125C42F065
:102F10001002F74B1A5414E031F810200A2A06DD8B
:102F2000F34A125C42F02002F14B1A5409E031F8E6
:102F30001020002A05DDEE4A125C42F04002EC4B04
:102F40001A54421CD0B2182895DB10BD30B50A4681
:102F5000322803DB3223E74C238027E02D2803DBD4
:102F60006423E44C238021E0282803DB9623E14CF2
:102F700023801BE0232803DBC823DE4C238015E0DD
:102F80001E2803DBFA23DB4C23800FE0192803DB28
:102F9000C823D84C238009E0142803DBFA23D54C3E
:102FA000238003E04FF49673D24C238000281CDD6D
:102FB000D14B1B78012B18D1D04B1B88002B05DD82
:102FC000CE4B1B885B1ECD4C23800EE0C94B1B886B
:102FD000CA4C2380CA4B1B885B1CC94C23802346E8
:102FE0001B88052B01DD00232380002123E0B2EBA9
:102FF000410F1EDDC1F12E03C24CE35CC24CC04D3B
:103000002D8814F815402343C1F12E04BD4D2B55D6
:1030100001F12F032C46E35CB94C2488C4F105046C
:10302000B94D15F814402343DCB201F12F03B54D1F
:10303000EC544B1CD9B20529D9DB30BDB348B0F8EC
:10304000780040F236510843B049A1F878000846AC
:10305000B0F87A0040F236510843AC49A1F87A0042
:103060000846B0F87C0040F236510843A749A1F861
:103070007C000846B0F87E0040F0F700A1F87E0022
:103080000846B0F8800040F0F700A1F8800008463C
:10309000B0F8820040F0F700A1F882000846B0F8CE
:1030A000840042F2361108439849A1F8840008468A
:1030B000B0F8860042F2361108439449A1F8860020
:1030C0000846B0F8880042F2361108438F49A1F84B
:1030D00088000846B0F88A0040F03E00A1F88A0057
:1030E0000846B0F88C0040F03E00A1F88C0008467D
:1030F000B0F88E0040F03E00A1F88E000846B0F80F
:10310000900040F0F700A1F890000846B0F8920057
:1031100040F0F700A1F892000846B0F8940040F0A3
:10312000F700A1F894000846B0F8960040F0380087
:10313000A1F896000846B0F8980040F03800A1F8D1
:1031400098000846B0F89A0040F03800A1F89A00BC
:1031500070476E48B0F8780041F2012108436B498E
:10316000A1F878000846B0F87A0041F2012108433E
:103170006649A1F87A000846B0F87C0041F20121C6
:1031800008436249A1F87C000846B0F87E0040F090
:10319000F700A1F87E000846B0F8800040F0F70084
:1031A000A1F880000846B0F8820040F0F700A1F8CE
:1031B00082000846B0F8840042F2F3010843534904
:1031C000A1F884000846B0F8860042F2F3010843F3
:1031D0004E49A1F886000846B0F8880042F2F30193
:1031E00008434A49A1F888000846B0F88A0040F030
:1031F000BD00A1F88A000846B0F88C0040F0BD0080
:10320000A1F88C000846B0F88E0040F0BD00A1F88F
:103210008E000846B0F8900040F0F900A1F8900048
:103220000846B0F8920040F0F900A1F89200084674
:10323000B0F8940040F0F900A1F894000846B0F806
:10324000960041F2012108433049A1F89600084652
:10325000B0F8980041F2012108432C49A1F89800E8
:103260000846B0F89A0041F2012108432749A1F825
:103270009A0070472548B0F87E0041F201210843CA
:103280002249A1F87E000846B0F8800041F20121F1
:1032900008431E49A1F880000846B0F8820041F2B8
:1032A000012108431949A1F882000846B0F88400BA
:1032B00041F2092108431549A1F884000846B0F8F5
:1032C000860041F2092108431049A1F8860008460A
:1032D000B0F8880041F2092108430C49A1F88800A0
:1032E0000846B0F88A0040F23651084307490FE01B
:1032F0008C06002028010020140000202601002058
:103300002401002050060020EAFB0008C806002027
:10331000A1F88A000846B0F88C0040F23651084304
:10332000FE49A1F88C000846B0F88E0040F23651F4
:103330000843FA49A1F88E000846B0F8900040F022
:10334000F900A1F890000846B0F8920040F0F900AA
:10335000A1F892000846B0F8940040F0F900A1F8F6
:1033600094007047ED48B0F8720041F20F21084315
:10337000EA49A1F872000846B0F8740041F20F2142
:103380000843E649A1F874000846B0F8760041F217
:103390000F210843E149A1F876000846B0F878000B
:1033A00041F209210843DD49A1F878000846B0F848
:1033B0007A0041F209210843D849A1F87A00084669
:1033C000B0F87C0041F209210843D449A1F87C00FF
:1033D0000846B0F87E0040F0ED00A1F87E000846F7
:1033E000B0F8800040F0ED00A1F880000846B0F889
:1033F000820040F0ED00A1F882000846B0F8840099
:1034000041F201210843C549A1F884000846B0F8FB
:10341000860041F201210843C049A1F88600084610
:10342000B0F8880041F201210843BC49A1F88800A6
:103430000846B0F88A0040F0F700A1F88A00084674
:10344000B0F88C0040F0F700A1F88C000846B0F806
:103450008E0040F0F700A1F88E000846B0F890000A
:1034600042F236110843AD49A1F890000846B0F881
:10347000920042F236110843A849A1F8920008468A
:10348000B0F8940042F236110843A449A1F8940020
:103490000846B0F8960040F03900A1F896000846BA
:1034A000B0F8980040F03900A1F898000846B0F84C
:1034B0009A0040F03900A1F89A000846B0F89C0044
:1034C00040F0F900A1F89C000846B0F89E0040F0DA
:1034D000F900A1F89E000846B0F8A00040F0F900FD
:1034E000A1F8A00070478D48B0F8720040F0390094
:1034F0008A49A1F872000846B0F8740040F039001B
:10350000A1F874000846B0F8760040F03900A1F840
:1035100076000846B0F8780040F0F700A1F878008F
:103520000846B0F87A0040F0F700A1F87A000846A3
:10353000B0F87C0040F0F700A1F87C000846B0F835
:103540007E0040F03800A1F87E000846B0F8800008
:1035500040F03800A1F880000846B0F8820040F042
:103560003800A1F882000846B0F8840040F03F001F
:10357000A1F884000846B0F8860040F03F00A1F8AA
:1035800086000846B0F8880040F03F00A1F88800A7
:103590000846B0F88A0042F2F30108435F49A1F8F7
:1035A0008A000846B0F88C0042F2F30108435B49F8
:1035B000A1F88C000846B0F88E0042F2F3010843EF
:1035C0005649A1F88E000846B0F8900041F2092152
:1035D00008435249A1F890000846B0F8920041F221
:1035E000092108434D49A1F892000846B0F894001B
:1035F00041F2092108434949A1F894000846B0F86E
:10360000960040F0F900A1F896000846B0F898003E
:1036100040F0F900A1F898000846B0F89A0040F090
:10362000F900A1F89A000846B0F89C0040F0ED00BF
:10363000A1F89C000846B0F89E0040F0ED00A1F80B
:103640009E000846B0F8A00040F0ED00A1F8A000F0
:1036500070473248B0F8780040F0ED002F49A1F8EB
:1036600078000846B0F87A0040F0ED00A1F87A0042
:103670000846B0F87C0040F0ED00A1F87C00084658
:10368000B0F87E0041F2012108432449A1F87E00F0
:103690000846B0F8800041F2012108431F49A1F813
:1036A00080000846B0F8820041F2012108431B491E
:1036B000A1F882000846B0F8840042F2F301084302
:1036C0001649A1F884000846B0F8860042F2F301DA
:1036D00008431249A1F886000846B0F8880042F273
:1036E000F30108430D49A1F888000846B0F88A00A4
:1036F00040F03F00A1F88A000846B0F88C0040F086
:103700003F00A1F88C000846B0F88E0040F03F0062
:10371000A1F88E000846B0F8900001E0C80600202D
:1037200042F270410843FE49A1F890000846B0F803
:10373000920042F270410843F949A1F8920008460C
:10374000B0F8940042F270410843F549A1F89400A2
:103750000846B0F8960040F0F900A1F89600084637
:10376000B0F8980040F0F900A1F898000846B0F8C9
:103770009A0040F0F900A1F89A000846B0F89C00C1
:1037800040F0ED00A1F89C000846B0F89E0040F023
:10379000ED00A1F89E000846B0F8A00040F0ED0052
:1037A000A1F8A0007047E8BBDD49B1F87E1041F0F8
:1037B000ED01DB4AA2F87E101146B1F8801041F00D
:1037C000ED01A2F880101146B1F8821041F0ED0130
:1037D000A2F882101146B1F8841041F0F301A2F86A
:1037E00084101146B1F8861041F0F301A2F886105A
:1037F0001146B1F8881041F0F301A2F88810114683
:10380000B1F88A1040F236521143C54AA2F88A1024
:103810001146B1F88C1040F236521143C04AA2F85A
:103820008C1000E009E01146B1F88E1040F23652DB
:103830001143BB4AA2F88E10FFE0B949B1F87210EB
:1038400041F0ED01B64AA2F872101146B1F87410B9
:1038500041F0ED01A2F874101146B1F8761041F074
:10386000ED01A2F876101146B1F8781041F0F3019D
:10387000A2F878101146B1F87A1041F0F301A2F8DD
:103880007A101146B1F87C1041F0F301A2F87C10D7
:103890001146B1F87E1040F236521143A04AA2F808
:1038A0007E101146B1F8801040F2365211439C4A06
:1038B000A2F880101146B1F8821040F2365211433E
:1038C000974AA2F8821001285AD11146B1F88A10FD
:1038D00041F0ED01A2F88A101146B1F88C1041F0C8
:1038E000ED01A2F88C101146B1F88E1041F0ED01F7
:1038F000A2F88E101146B1F8901041F03801A2F8EC
:1039000090101146B1F8921041F03801A2F89210CF
:103910001146B1F8941041F03801A2F89410114604
:10392000B1F8961041F03F01A2F896101146B1F897
:10393000981041F03F01A2F898101146B1F89A1082
:1039400041F03F01A2F89A101146B1F89C1042F6DE
:1039500036221143724AA2F89C101146B1F89E100B
:1039600042F6362211436E4AA2F89E101146B1F873
:10397000A01042F636221143694AA2F8A0105CE07A
:1039800002285AD16649B1F88A1041F0F101644A1F
:10399000A2F88A101146B1F88C1041F0F101A2F89A
:1039A0008C101146B1F88E1041F0F101A2F88E1082
:1039B0001146B1F8901041F0F701A2F890101146AD
:1039C000B1F8921041F0F701A2F892101146B1F847
:1039D000941041F0F701A2F894101146B1F8961036
:1039E00041F0ED01A2F896101146B1F8981041F09F
:1039F000ED01A2F898101146B1F89A1041F0ED01CE
:103A0000A2F89A101146B1F89C1041F2012211431C
:103A1000434AA2F89C101146B1F89E1041F20122CF
:103A200011433F4AA2F89E101146B1F8A01041F28E
:103A3000012211433A4AA2F8A010704700B503468C
:103A4000002B6FD13648B0F8780041F209210843C5
:103A50003349A1F878000846B0F87A0041F209210C
:103A600008432F49A1F87A000846B0F87C0041F2DB
:103A7000092108432A49A1F87C000846B0F87E00D5
:103A800042F2361108432649A1F87E000846B0F8F4
:103A9000800042F2361108432149A1F8800008460F
:103AA000B0F8820042F2361108431D49A1F88200A5
:103AB0000846B0F8840041F2012108431849A1F8F2
:103AC00084000846B0F8860041F2012108431449F9
:103AD000A1F886000846B0F8880041F201210843A9
:103AE0000F49A1F888000846B0F88A0040F0F900B4
:103AF000A1F88A000846B0F88C0040F0F900A1F85F
:103B00008C000846B0F88E0040F0F900A1F88E0055
:103B10000846B0F8900042F2F3010843004902E081
:103B2000C806002053E0A1F890000846B0F89200C3
:103B300042F2F3010843FE49A1F892000846B0F8AA
:103B4000940042F2F3010843F949A1F894000846B1
:103B5000B0F8960040F44360A1F896000846B0F82B
:103B6000980040F44360A1F898000846B0F89A0025
:103B700040F44360A1F89A000846B0F89C0040F079
:103B8000F700A1F89C000846B0F89E0040F0F7004E
:103B9000A1F89E000846B0F8A00040F0F700A1F898
:103BA000A0000846B0F8A20040F03800A1F8A2003A
:103BB0000846B0F8A40040F03800A1F8A400084678
:103BC000B0F8A60040F03800A1F8A60030E1D848CF
:103BD000B0F8660041F209210843D549A1F8660012
:103BE0000846B0F8680041F209210843D049A1F81D
:103BF00068000846B0F86A0041F209210843CC4940
:103C0000A1F86A000846B0F86C0042F23611084389
:103C1000C749A1F86C000846B0F86E0042F23611B0
:103C20000843C349A1F86E000846B0F8700042F29C
:103C300036110843BE49A1F870000846B0F872007A
:103C400041F201210843BA49A1F872000846B0F8D0
:103C5000740041F201210843B549A1F874000846F7
:103C6000B0F8760041F201210843B149A1F876008D
:103C70000846B0F8780040F0F900A1F8780008464E
:103C8000B0F87A0040F0F900A1F87A000846B0F8E0
:103C90007C0040F0F900A1F87C000846B0F87E00F6
:103CA00042F2F3010843A249A1F87E000846B0F8A9
:103CB000800042F2F30108439D49A1F880000846C4
:103CC000B0F8820042F2F30108439949A1F882005A
:103CD0000846B0F8840040F44360A1F88400084628
:103CE000B0F8860040F44360A1F886000846B0F8BA
:103CF000880040F44360A1F888000846B0F88A00C4
:103D000040F0F700A1F88A000846B0F88C0040F0B7
:103D1000F700A1F88C000846B0F88E0040F0F700DC
:103D2000A1F88E000846B0F8900040F03800A1F8E5
:103D300090000846B0F8920040F03800A1F89200D8
:103D40000846B0F8940040F03800A1F89400002B29
:103D500027DD052B25DA1846FEF7D7F87448B0F8AA
:103D60009C0074490978744A32F81110084370496C
:103D7000A1F89C000846B0F89E006E49097832F818
:103D8000111008436A49A1F89E000846B0F8A00047
:103D90006849097832F8111008436549A1F8A00074
:103DA00046E0052B44D16248B0F89C0041F2012165
:103DB00008435F49A1F89C000846B0F89E0041F214
:103DC000012108435A49A1F89E000846B0F8A00016
:103DD00041F2012108435649A1F8A0000846B0F875
:103DE000A20040F0F700A1F8A2000846B0F8A40035
:103DF00040F0F700A1F8A4000846B0F8A60040F093
:103E0000F700A1F8A6000846B0F8A80040F0BD00F1
:103E1000A1F8A8000846B0F8AA0040F0BD00A1F83B
:103E2000AA000846B0F8AC0040F0BD00A1F8AC0014
:103E300000BD3F48B0F8660041F28F2108433C497D
:103E4000A1F866000846B0F8680041F28F210843E7
:103E50003749A1F868000846B0F86A0041F28F219E
:103E600008433349A1F86A000846B0F86C0041F2F3
:103E7000012108432E49A1F86C000846B0F86E00F5
:103E800041F2012108432A49A1F86E000846B0F822
:103E9000700041F2012108432549A1F870007047E4
:103EA00030B503460C4615461846FEF72EF842F28A
:103EB0001070834221DB1E48B0F866001D49097965
:103EC0001D4A32F8111008431949A1F86600084646
:103ED000B0F868001749097932F8111008431449FD
:103EE000A1F868000846B0F86A001249097932F86A
:103EF000111008430E49A1F86A00B3F57A7F28DB58
:103F00000B48B0F86C000B49C9780B4A32F8111015
:103F100008430749A1F86C000846B0F86E0005494F
:103F2000C97832F8111008430149A1F86E0005E084
:103F3000C80600206360002086FB00080846B0F831
:103F40007000FE49C97832F811100843FC49A1F805
:103F50007000642B21DBFA48B0F87200F7498978C9
:103F6000F84A32F811100843F549A1F872000846E2
:103F7000B0F87400F149897832F811100843F0491B
:103F8000A1F874000846B0F87600EC49897832F858
:103F900011100843EA49A1F876000A2B21DBE84812
:103FA000B0F87800E5494978E64A32F8111008433C
:103FB000E349A1F878000846B0F87A00DF4949786B
:103FC00032F811100843DE49A1F87A000846B0F82B
:103FD0007C00DA49497832F811100843D849A1F831
:103FE0007C00D748B0F87E00D4490978D54A32F829
:103FF00011100843D249A1F87E000846B0F88000AD
:10400000CE49097832F811100843CD49A1F8800053
:104010000846B0F88200C949097832F811100843FF
:10402000C749A1F882000846B0F8840040F0C000FB
:10403000A1F884000846B0F8860040F0C000A1F85E
:1040400086000846B0F8880040F0C000A1F888005B
:104050002046FDF75AFF642C64DBB948B0F88A00AB
:10406000B6498978B74A32F811100843B449A1F823
:104070008A000846B0F88C00B049897832F81110EF
:104080000843AF49A1F88C000846B0F88E00AB4950
:10409000897832F811100843A949A1F88E00084622
:1040A000B0F89000A549497832F811100843A449A6
:1040B000A1F890000846B0F89200A049497832F87B
:1040C000111008439E49A1F892000846B0F89400E8
:1040D0009A49497832F8111008439949A1F8940097
:1040E0000846B0F896009549097832F8111008434F
:1040F0009349A1F896000846B0F898008F490978CE
:1041000032F8111008438E49A1F898000846B0F81B
:104110009A008A49097832F8111008438849A1F8B1
:104120009A0067E00A2C43DB8548B0F88A0083498F
:104130004978844A32F8111008438149A1F88A006D
:104140000846B0F88C007D49497832F811100843D0
:104150007B49A1F88C000846B0F88E007749497871
:1041600032F8111008437649A1F88E000846B0F8DD
:1041700090007249097832F8111008437049A1F88B
:1041800090000846B0F892006C49097832F8111096
:1041900008436B49A1F892000846B0F894006749BB
:1041A000097832F8111008436549A1F8940021E01C
:1041B0006348B0F88A0061490978624A32F8111000
:1041C00008435F49A1F88A000846B0F88C005B49B3
:1041D000097832F8111008435949A1F88C000846B3
:1041E000B0F88E005549097832F811100843544947
:1041F000A1F88E002846FDF788FE0A2D21DB5048E5
:10420000B0F8A2004D4949784E4A32F811100843DF
:104210004B49A1F8A2000846B0F8A40047494978E4
:1042200032F8111008434649A1F8A4000846B0F836
:10423000A6004249497832F8111008434049A1F8D4
:10424000A6003F48B0F8A8003C4909783D4A32F83A
:10425000111008433A49A1F8A8000846B0F8AA008E
:104260003649097832F8111008433549A1F8AA00F7
:104270000846B0F8AC003149097832F8111008430B
:104280002F49A1F8AC0030BD00B503462C48B0F86A
:10429000660042F2361108432949A1F86600084633
:1042A000B0F8680042F2361108432549A1F86800C9
:1042B0000846B0F86A0042F2361108432049A1F8D6
:1042C0006A000846B0F86C0040F03F00A1F86C00AE
:1042D0000846B0F86E0040F03F00A1F86E000846B6
:1042E000B0F8700040F03F00A1F870001846FDF7EC
:1042F0000CFE1348B0F8780010494978114A32F89A
:10430000111008430E49A1F878000846B0F87A0069
:104310000A49497832F8111008430949A1F87A008E
:104320000846B0F87C000549497832F81110084376
:104330000349A1F87C00084606E000006360002005
:10434000C806002086FB0008B0F87E00FE49097808
:1043500032F811100843FD49A1F87E000846B0F874
:104360008000F949097832F811100843F749A1F89B
:1043700080000846B0F88200F349097832F811103D
:104380000843F249A1F8820000BDF048B0F8780077
:1043900040F0F300ED49A1F878000846B0F87A0043
:1043A00040F0F300A1F87A000846B0F87C0040F035
:1043B000F300A1F87C000846B0F87E0040F0F7005A
:1043C000A1F87E000846B0F8800040F0F700A1F8A0
:1043D00080000846B0F8820040F0F700A1F88200A3
:1043E0000846B0F8840040F03E00A1F8840008467A
:1043F000B0F8860040F03E00A1F886000846B0F80C
:10440000880040F03E00A1F888000846B0F88A0015
:1044100040F0ED00A1F88A000846B0F88C0040F0AA
:10442000ED00A1F88C000846B0F88E0040F0ED00D9
:10443000A1F88E000846B0F8900040F0F900A1F80D
:1044400090000846B0F8920040F0F900A1F8920000
:104450000846B0F8940040F0F900A1F894007047C5
:10446000BA48B0F8780040F0ED00B849A1F87800FB
:104470000846B0F87A0040F0ED00A1F87A0008464E
:10448000B0F87C0040F0ED00A1F87C000846B0F8E0
:104490007E0041F201210843AC49A1F87E000846A4
:1044A000B0F8800041F201210843A849A1F880003A
:1044B0000846B0F8820041F201210843A349A1F85F
:1044C00082000846B0F8840040F03F00A1F8840064
:1044D0000846B0F8860040F03F00A1F88600084684
:1044E000B0F8880040F03F00A1F888000846B0F816
:1044F0008A0040F0F300A1F88A000846B0F88C006A
:1045000040F0F300A1F88C000846B0F88E0040F0AF
:10451000F300A1F88E0070470020EEE0014600EBAA
:10452000D1725210A0EB4202002A7AD1874911F8C9
:10453000101001F0800149B1C0F11001844A515CB2
:1045400041F01001C0F11002814B99547F4911F8DC
:10455000101001F0010139B1C0F110017C4A515C29
:10456000C0F110027A4B9954784911F8101001F0FB
:10457000020139B1C0F11001754A515CC0F110025D
:10458000734B9954714911F8101001F0040139B1BD
:10459000C0F110016E4A515CC0F110026C4B99548D
:1045A0006A4911F8101001F0080139B1C0F1100189
:1045B000674A515CC0F11002654B9954634911F888
:1045C000101001F0100149B1C0F11001604A515CB6
:1045D00041F02001C0F110025D4B99545B4911F884
:1045E000101001F0200149B1C0F11001584A515C8E
:1045F00041F08001C0F11002554B9954534911F814
:10460000101001F04001002975D0C0F11001504A8E
:10461000515C41F04001C0F110024D4B99546AE0E9
:10462000FFE74A4911F8101001F0010149B1C0F14A
:104630001001474A515C41F08001C0F11002444B27
:104640009954424911F8101001F0020149B1C0F12A
:1046500010013F4A515C41F04001C0F110023C4B57
:1046600099543A4911F8101001F0040149B1C0F110
:104670001001374A515C41F02001C0F11002344B67
:104680009954324911F8101001F0080149B1C0F1F4
:1046900010012F4A515C41F01001C0F110022C4B67
:1046A00099542A4911F8101001F0100139B1C0F1E4
:1046B0001001274A515CC0F11002254B995423493F
:1046C00011F8101001F0200139B1C0F11001204A99
:1046D000515CC0F110021E4B99541C4911F8101086
:1046E00001F0400139B1C0F11001194A515CC0F12B
:1046F0001002174B9954411CC8B20828FFF60EAFA0
:104700000820F6E0014600EBD1725210A0EB420205
:10471000002A7CD10D4911F8101001F0800149B137
:10472000C0F10F010A4A515C41F01001C0F10F02C3
:10473000074B9954054911F8101001F0010171B1AE
:10474000C0F10F01024A05E063600020C8060020A6
:1047500050060020515CC0F10F02FE4B9954FE49F7
:1047600011F8101001F0020139B1C0F10F01F94A3E
:10477000515CC0F10F02F74B9954F74911F8101032
:1047800001F0040139B1C0F10F01F24A515CC0F1EE
:104790000F02F04B9954F04911F8101001F0080184
:1047A00039B1C0F10F01EB4A515CC0F10F02E94B86
:1047B0009954E94911F8101001F0100149B1C0F104
:1047C0000F01E44A515C41F02001C0F10F02E14BBE
:1047D0009954E14911F8101001F0200149B1C0F1DC
:1047E0000F01DC4A515C41F08001C0F10F02D94B4E
:1047F0009954D94911F8101001F04001002976D0E0
:10480000C0F10F01D34A515C41F0400100E004E0E7
:10481000C0F10F02CF4B995469E0CF4911F8101045
:1048200001F0010149B1C0F10F01CA4A515C41F0E8
:104830008001C0F10F02C74B9954C74911F81010FD
:1048400001F0020149B1C0F10F01C24A515C41F0CF
:104850004001C0F10F02BF4B9954BF4911F810102D
:1048600001F0040149B1C0F10F01BA4A515C41F0B5
:104870002001C0F10F02B74B9954B74911F810103D
:1048800001F0080149B1C0F10F01B24A515C41F099
:104890001001C0F10F02AF4B9954AF4911F810103D
:1048A00001F0100139B1C0F10F01AA4A515CC0F109
:1048B0000F02A84B9954A84911F8101001F02001DB
:1048C00039B1C0F10F01A34A515CC0F10F02A14BF5
:1048D0009954A14911F8101001F0400139B1C0F10B
:1048E0000F019C4A515CC0F10F029A4B9954411C34
:1048F000C8B21028FFF606AF102095E0102847D167
:10490000954911F8101001F0010119B19149C97BC5
:10491000904AD173904911F8101001F0020129B1A9
:104920008C49C97B41F001018A4AD1738A4911F847
:10493000101001F0040119B18649C97B854AD17371
:10494000854911F8101001F0080119B18149C97B9E
:10495000804AD173804911F8101001F0100119B18B
:104960007C49C97B7B4AD1737B4911F8101001F057
:10497000200119B17749C97B764AD173764911F87C
:10498000101001F0400119B17249C97B714AD1730D
:10499000112847D1704911F8101001F0010119B127
:1049A0006C49097C6B4A11746B4911F8101001F0C5
:1049B000020119B16749097C664A1174664911F808
:1049C000101001F0040129B16249097C41F0010194
:1049D000604A1174604911F8101001F0080119B112
:1049E0005C49097C5B4A11745B4911F8101001F0B5
:1049F000100119B15749097C564A1174564911F8EA
:104A0000101001F0200119B15249097C514A11746A
:104A1000514911F8101001F0400119B14D49097CBC
:104A20004C4A1174411CC8B21228FFF667AF12201D
:104A300061E116286BD1484911F8101001F001010D
:104A400049B1C0F12201434A515C41F00801C0F173
:104A50002202404B9954404911F8101001F0020114
:104A600039B1C0F122013B4A515CC0F12202394BFD
:104A70009954394911F8101001F0040139B1C0F10D
:104A80002201344A515CC0F12202324B995432491E
:104A900011F8101001F0080149B1C0F122012D4AAE
:104AA000515C41F00101C0F122022A4B99542A497C
:104AB00011F8101001F0100149B1C0F12201254A8E
:104AC000515C41F00201C0F12202224B995422496B
:104AD00011F8101001F0200149B1C0F122011D4A66
:104AE000515C41F00401C0F122021A4B99541A4959
:104AF00011F8101001F04001002907D0C0F1220187
:104B0000144A515CC0F12202124B9954F1E0014663
:104B100000EBD1725210A0EB4202D2B90E4911F84B
:104B2000101001F0800149B1C0F12201094A515C25
:104B300041F00101C0F12202064B9954064911F8D7
:104B4000101001F0010179B1C0F12201014A515C5C
:104B500004E064E050060020C806002041F0100187
:104B6000C0F12202FE4B9954FE4911F8101001F0D9
:104B7000020139B1C0F12201F94A515CC0F12202AF
:104B8000F74B9954F74911F8101001F0040139B1AD
:104B9000C0F12201F24A515CC0F12202F04B99545B
:104BA000F04911F8101001F0080149B1C0F12201DB
:104BB000EB4A515C41F00201C0F12202E84B9954EA
:104BC000E84911F8101001F0100149B1C0F12201BB
:104BD000E34A515C41F00401C0F12202E04B9954D8
:104BE000E04911F8101001F0200149B1C0F1220193
:104BF000DB4A515C41F00801C0F12202D84B9954C4
:104C0000D84911F8101001F04001E9B3C0F12201B8
:104C1000D34A515CC0F12202D14B995469E0D14989
:104C200011F8101001F0010139B1C0F12201CC4A94
:104C3000515CC0F12202CA4B9954CA4911F81010B4
:104C400001F0020149B1C0F12201C54A515C41F0B5
:104C50000801C0F12202C24B9954C24911F8101048
:104C600001F0040149B1C0F12201BD4A515C41F09B
:104C70000201C0F12202BA4B9954BA4911F810103E
:104C800001F0080149B100E033E0C0F12201B44A6B
:104C9000515CC0F12202B24B9954B24911F8101084
:104CA00001F0100139B1C0F12201AD4A515CC0F1EF
:104CB0002202AB4B9954AB4911F8101001F02001BE
:104CC00039B1C0F12201A64A515CC0F12202A44BC5
:104CD0009954A44911F8101001F0400149B1C0F1F4
:104CE00022019F4A515C41F00401C0F122029C4B19
:104CF0009954411CC8B21A28FFF69BAE55D1994968
:104D000011F8101001F0800129B19549097A41F09C
:104D10000101934A1172934911F8101001F0010139
:104D200019B18F49097A8E4A11728E4911F8101003
:104D300001F0020129B18A49097A41F00801884A43
:104D40001172884911F8101001F0040129B1844949
:104D5000097A41F00201824A1172824911F8101059
:104D600001F0080119B17E49097A7D4A11727D4925
:104D700011F8101001F0100119B17949097A784A37
:104D80001172784911F8101001F0200119B174491D
:104D9000097A734A1172734911F8101001F0400139
:104DA00019B16F49097A6E4A11721B2063E11F28FD
:104DB0006BD16C4911F8101001F0010149B1C0F13B
:104DC0002201674A515C41F00801C0F12202644BA4
:104DD0009954644911F8101001F0020139B1C0F181
:104DE00022015F4A515CC0F122025D4B99545D493A
:104DF00011F8101001F0040139B1C0F12201584A34
:104E0000515CC0F12202564B9954564911F81010CA
:104E100001F0080149B1C0F12201514A515C41F051
:104E20000101C0F122024E4B99544E4911F8101065
:104E300001F0100149B1C0F12201494A515C41F031
:104E40000201C0F12202464B9954464911F8101054
:104E500001F0200149B1C0F12201414A515C41F009
:104E60000401C0F122023E4B99543E4911F8101042
:104E700001F04001002907D0C0F12201384A515CFD
:104E8000C0F12202364B9954F3E0014600EBD17297
:104E90005210A0EB4202EABB324911F8101001F0A7
:104EA000800149B1C0F122012D4A515C41F001015C
:104EB000C0F122022A4B99542A4911F8101001F02E
:104EC000010139B1C0F12201254A515CC0F1220231
:104ED000234B9954234911F8101001F0020149B1F4
:104EE000C0F122011E4A515C41F00801C0F12202CA
:104EF0001B4B99541B4911F8101001F0040159B1D2
:104F0000C0F12201164A515C41F00201C0F12202B7
:104F1000134B00E041E09954124911F8101001F0D0
:104F2000080139B1C0F122010D4A515CC0F12202E1
:104F30000B4B99540B4911F8101001F0100139B1C5
:104F4000C0F12201064A515CC0F12202044B99547F
:104F5000044911F8101001F0200169B104E00000CB
:104F600050060020C8060020C0F12201FE4A515C14
:104F7000C0F12202FC4B9954FC4911F8101001F0C9
:104F80004001E9B3C0F12201F74A515C41F004014C
:104F9000C0F12202F44B99546BE0F44911F810105F
:104FA00001F0010149B1C0F12201EF4A515C41F029
:104FB0001001C0F12202EC4B9954EC4911F8101089
:104FC00001F0020139B1C0F12201E74A515CC0F1A0
:104FD0002202E54B9954E54911F8101001F0040143
:104FE00039B1C0F12201E04A515CC0F12202DE4B2E
:104FF0009954DE4911F8101001F0080159B100E090
:1050000037E0C0F12201D84A515C41F00201C0F101
:105010002202D54B9954D54911F8101001F0100116
:1050200049B1C0F12201D04A515C41F00401C0F104
:105030002202CD4B9954CD4911F8101001F02001F6
:1050400049B1C0F12201C84A515C41F00801C0F1E8
:105050002202C54B9954C54911F8101001F04001C6
:1050600039B1C0F12201C04A515CC0F12202BE4BED
:105070009954411CC8B22328FFF699AE232081E041
:10508000BA4911F8101001F0800149B1C0F15E0178
:10509000B74A515C41F08001C0F15E02B44B9954B3
:1050A000B24911F8101001F0010149B1C0F15E01DF
:1050B000AF4A515C41F00101C0F15E02AC4B995422
:1050C000AA4911F8101001F0020149B1C0F15E01C6
:1050D000A74A515C41F00201C0F15E02A44B995411
:1050E000A24911F8101001F0040149B1C0F15E01AC
:1050F0009F4A515C41F01001C0F15E029C4B9954F3
:105100009A4911F8101001F0080149B1C0F15E018F
:10511000974A515C41F04001C0F15E02944B9954B2
:10512000924911F8101001F0100149B1C0F15E016F
:105130008F4A515C41F02001C0F15E028C4B9954C2
:105140008A4911F8101001F0200149B1C0F15E0147
:10515000874A515C41F00401C0F15E02844B9954CE
:10516000824911F8101001F0400149B1C0F15E010F
:105170007F4A515C41F00801C0F15E027C4B9954BA
:10518000411CC8B22728FFF67BAF272081E0774972
:1051900011F8101001F0800149B1C0F15E01744AAC
:1051A000515C41F08001C0F15E02714B99546F492E
:1051B00011F8101001F0010149B1C0F15E016C4A13
:1051C000515C41F00101C0F15E02694B995467499D
:1051D00011F8101001F0020149B1C0F15E01644AFA
:1051E000515C41F00201C0F15E02614B99545F498C
:1051F00011F8101001F0040149B1C0F15E015C4AE0
:10520000515C41F01001C0F15E02594B995457496D
:1052100011F8101001F0080149B1C0F15E01544AC3
:10522000515C41F04001C0F15E02514B99544F492D
:1052300011F8101001F0100149B1C0F15E014C4AA3
:10524000515C41F02001C0F15E02494B995447493D
:1052500011F8101001F0200149B1C0F15E01444A7B
:10526000515C41F00401C0F15E02414B99543F4949
:1052700011F8101001F0400149B1C0F15E013C4A43
:10528000515C41F00801C0F15E02394B9954411C58
:10529000C8B22B28FFF67BAF2B20DCE02B281BD1DC
:1052A000324911F8101001F0010139B12E4991F87D
:1052B0002F1041F001012C4A82F82F102B4911F8D0
:1052C000101001F0200139B1274991F82F1041F059
:1052D0000201254A82F82F102C281BD1234911F8EE
:1052E000101001F0020139B11F4991F8301041F05E
:1052F00001011D4A82F830101C4911F8101001F00C
:10530000400139B1184991F8301041F00201164AB4
:1053100082F830102D281BD1144911F8101001F01B
:10532000040139B1104991F8311041F001010E4AE0
:1053300082F831100D4911F8101001F0100139B147
:10534000094991F8311041F00201074A82F8311001
:105350002E2814D1054911F8101001F0080171B17F
:10536000014991F82B1005E050060020C8060020E6
:105370008C06002041F00101FE4A82F82B102F28F4
:105380001BD1FD4911F8101001F0010139B1F949A3
:1053900091F82E1041F00101F64A82F82E10F649DC
:1053A00011F8101001F0020139B1F24991F82E10F4
:1053B00041F00201EF4A82F82E1030281BD1EE494D
:1053C00011F8101001F0200139B1EA4991F82D10BF
:1053D00041F00101E74A82F82D10E74911F8101059
:1053E00001F0400139B1E34991F82D1041F002017B
:1053F000E04A82F82D1031281BD1DF4911F8101036
:1054000001F0040139B1DB4991F82C1041F002019F
:10541000D84A82F82C10D84911F8101001F0100168
:1054200039B1D44991F82C1041F00101D14A82F8E8
:105430002C1032280DD1D04911F8101001F00801BC
:1054400039B1CC4991F82B1041F00201C94A82F8D8
:105450002B10411CC8B23328FFF620AF3320F0E3F5
:10546000332805D03C2803D0452801D04E287DD1D3
:10547000C14911F8101001F0010179B1A0F1330117
:10548000BE4A32F81110BE4A515C41F00102A0F14F
:105490003301BA4B33F81110B94B5A54B64911F8CD
:1054A000101001F0100179B1A0F13301B34A32F8C4
:1054B0001110B34A515C41F02002A0F13301AF4B0F
:1054C00033F81110AE4B5A54AB4911F8101001F0DB
:1054D000200179B1A0F13301A84A32F81110A84A8D
:1054E000515C41F00202A0F13301A44B33F81110DA
:1054F000A34B5A54A04931F8101001F4807179B1CE
:10550000A0F133019D4A32F811109D4A515C41F0DF
:105510000402A0F13301994B33F81110984B5A54FF
:10552000954911F8101001F0400179B1A0F1330153
:10553000924A32F81110924A515C41F00802A0F1EF
:1055400033018E4B33F811108D4B5A548A4931F880
:10555000101001F4006149B1A0F13301874A32F81B
:105560001110874A515C41F0100200E006E0A0F102
:105570003301824B33F81110814B5A54342805D033
:105580003D2803D0462801D04F287DD17A4911F813
:10559000101001F0080179B1A0F13301774A32F817
:1055A0001110774A515C41F02002A0F13301734B96
:1055B00033F81110724B5A546F4931F8101001F43E
:1055C000007179B1A0F133016C4A32F811106C4AC4
:1055D000515C41F00202A0F13301684B33F8111025
:1055E000674B5A54644931F8101001F4806179B165
:1055F000A0F13301614A32F81110614A515C41F067
:105600000102A0F133015D4B33F811105C4B5A5489
:10561000594911F8101001F0800179B1A0F133015E
:10562000564A32F81110564A515C41F00402A0F17A
:105630003301524B33F81110514B5A544E4931F843
:10564000101001F4805179B1A0F133014B4A32F8C6
:1056500011104B4A515C41F01002A0F13301474B4D
:1056600033F81110464B5A54434931F8101001F4E5
:10567000005149B1A0F13301404A32F81110404ABB
:10568000515C41F0080200E006E0A0F133013B4B21
:1056900033F811103A4B5A54352805D03E2803D020
:1056A000472801D050282BD1334911F8101001F0B0
:1056B000020179B1A0F13301304A32F81110304AB9
:1056C000515C41F00102A0F133012C4B33F8111071
:1056D0002B4B5A54284911F8101001F0040179B1EC
:1056E000A0F13301254A32F81110254A515C41F0EE
:1056F0000802A0F13301214B33F81110204B5A540A
:10570000362805D03F2803D0482801D0512860D141
:10571000194911F8101001F0100179B1A0F133010D
:10572000164A32F81110164A515C41F01002A0F1ED
:105730003301124B33F81110114B5A540E4911F822
:10574000101001F0200179B1A0F133010B4A32F8B9
:1057500011100B4A515C41F00202A0F13301074BDA
:1057600033F81110064B5A54034911F8101001F088
:10577000400107E050060020C8060020F6FB0008A4
:105780008C06002079B1A0F13301FE4A32F81110E5
:10579000FD4A515C41F00402A0F13301F94B33F8AA
:1057A0001110F94B5A54F94931F8101001F4006105
:1057B00079B1A0F13301F34A32F81110F24A515C89
:1057C00041F02002A0F13301EE4B33F81110EE4B03
:1057D0005A54372805D0402803D0492801D05228F0
:1057E0007DD1EA4911F8101001F0080179B1A0F15A
:1057F0003301E44A32F81110E34A515C41F02002CF
:10580000A0F13301DF4B33F81110DF4B5A54DF495D
:1058100031F8101001F4807179B1A0F13301D94A47
:1058200032F81110D84A515C41F00102A0F1330165
:10583000D44B33F81110D44B5A54D44931F81010CA
:1058400001F4007179B1A0F13301CE4A32F81110A0
:10585000CD4A515C41F00202A0F13301C94B33F84B
:105860001110C94B5A54C94911F8101001F08001A8
:1058700079B1A0F13301C34A32F81110C24A515C28
:1058800041F00402A0F13301BE4B33F81110BE4BBE
:105890005A54BE4931F8101001F4805179B1A0F189
:1058A0003301B84A32F81110B74A515C41F0100286
:1058B000A0F13301B34B33F81110B34B5A54B34931
:1058C00031F8101001F4005149B1A0F13301AD4A93
:1058D00032F81110AC4A515C41F0080200E006E0D9
:1058E000A0F13301A74B33F81110A74B5A543828B5
:1058F00005D0412803D04A2801D0532857D1A349C5
:1059000011F8101001F0010179B1A0F133019D4AA5
:1059100032F811109C4A515C41F00102A0F13301B0
:10592000984B33F81110984B5A54984911F81010AD
:1059300001F0020179B1A0F13301924A32F811105D
:10594000914A515C41F00402A0F133018D4B33F8D0
:1059500011108D4B5A548D4911F8101001F00401AB
:1059600079B1A0F13301874A32F81110864A515CAF
:1059700041F00802A0F13301824B33F81110824B41
:105980005A54824931F8101001F4806179B1A0F1C4
:1059900033017C4A32F811107B4A515C41F002021B
:1059A000A0F13301774B33F81110774B5A54392853
:1059B00005D0422803D04B2801D054282BD173495D
:1059C00011F8101001F0100179B1A0F133016D4A06
:1059D00032F811106C4A515C41F01002A0F1330111
:1059E000684B33F81110684B5A54684931F810105D
:1059F00001F4006179B1A0F13301624A32F811106B
:105A0000614A515C41F02002A0F133015D4B33F853
:105A100011105D4B5A543A2805D0432803D04C2826
:105A200001D055287DD1594911F8101001F001011C
:105A300079B1A0F13301534A32F81110524A515C46
:105A400041F00102A0F133014E4B33F811104E4BDF
:105A50005A544E4911F8101001F0080179B1A0F123
:105A60003301484A32F81110474A515C41F0200294
:105A7000A0F13301434B33F81110434B5A544349BF
:105A800011F8101001F0200179B1A0F133013D4A65
:105A900032F811103C4A515C41F00202A0F133018E
:105AA000384B33F81110384B5A54384931F810102C
:105AB00001F4807179B1A0F13301324A32F811104A
:105AC000314A515C41F00402A0F133012D4B33F80F
:105AD00011102D4B5A542D4911F8101001F04001AE
